:100000000C94B2000C94DA000C94DA000C94DA0030
:100010000C94DA000C94DA000C94DA000C94DA00F8
:100020000C94DA000C94DA000C94DA000C94DA00E8
:100030000C94DA000C94DA000C94DA000C94DA00D8
:100040000C944E120C94DA000C94B9150C94EB1528
:100050000C94DA000C94DA000C94DA000C94DA00B8
:100060000C94A40C0C94DA00601074108A10A61082
:10007000CA10F81017114E11F50F88111F104210F9
:10008000A911C3114A104E1068107E109A10B810B2
:10009000EC100B11331267117C11881136109D1171
:1000A000CE11687474703A2F2F6769746875622E68
:1000B000636F6D2F776865656C65722D6D6963720E
:1000C0006F666C7569646963732F626173655F6ED7
:1000D0006F64655F7270632E67697400302E313211
:1000E0002E706F7374323000576865656C657220CE
:1000F0004C61620000626173652D6E6F64652D72E4
:100100007063000000000008000201000003040703
:1001100000000000000000000102040810204080E0
:100120000102040810200102040810200404040441
:100130000404040402020202020203030303030391
:100140000000000023002600290000000000250018
:1001500028002B0000000000240027002A00E402F1
:100160001F0F1B1611241FBECFEFD8E0DEBFCDBF7F
:1001700011E0A0E0B1E0E0EFFDE202C005900D92D9
:10018000A436B107D9F724E0A4E6B1E001C01D927E
:10019000A336B207E1F711E0C4E6D1E004C022972C
:1001A000FE010E94AB16CE35D107C9F70E947F0B26
:1001B0000C94F6160C940000CF93DF9300D000D07F
:1001C00000D0CDB7DEB720E829831A821B821C82BB
:1001D000855F9E4F9E838D8330E040E050E0682F26
:1001E0007E8180E090E026960FB6F894DEBF0FBEC9
:1001F000CDBFDF91CF91089502970C94DC00049756
:100200000C94DC00E0916C02F0916D020280F381AD
:10021000E02DBC018CE692E00994FC01828193817F
:100220000C943C0FCF93DF93EC010E940D011C82D4
:10023000DF91CF910895EF92FF920F931F93CF9389
:10024000DF9300D000D000D0CDB7DEB78C01F62E02
:10025000E72EBC018F2D9E2D0E94B416C8010E946E
:10026000BB16AC0160E070E049835A836B837C83EA
:10027000FD82EE82282F3A818B815C816F2D7E2D4D
:10028000482F80E090E026960FB6F894DEBF0FBEB0
:10029000CDBFDF91CF911F910F91FF90EF90089507
:1002A000CF92DF92EF92FF920F9330E0C12CF2E1F8
:1002B000DF2EFAE7EF2EF12C4C155D056E057F055C
:1002C00040F4F694E794D794C7943F5F3630A1F793
:1002D00037E041E04327211102C050E701C050E55B
:1002E000242F30E03595279523700C70202B252B7B
:1002F000FC012083417041830F91FF90EF90DF90CC
:10030000CF90089520916103222399F03FB7F8948C
:1003100020916103213059F42DB320935F034DB335
:1003200020916003209524232DBB3FBF02C0309352
:100330005F038CBD9DBD089580916103882361F0AA
:100340009FB7F8942091610380915F03213019F4E5
:100350008DBB9FBF08958FBF08950F931F93CF93B9
:10036000DF93EC011A86198600E010E02B813C81B6
:1003700089859A850217130760F4EF81F885E00FED
:10038000F11F60810E94230F9A8789870F5F1F4F9B
:10039000EDCF0E943B0F9A878987DF91CF911F9104
:1003A0000F91089526E040E052EC61E070E082ECAD
:1003B00093E00E9457158CE08093B80062E071E0F2
:1003C00083E693E00C941A0FDC01ED91FC9102801E
:1003D000F381E02D41E050E009940F931F93CF93F8
:1003E000DF93EC018B01E881F9816F5F7F4F028021
:1003F000F381E02D41E050E00995E881F981028028
:10040000F381E02D41E050E0B801CE01DF91CF91C2
:100410001F910F910994FC01E158FF4F0190F08169
:10042000E02D2189222359F083589F4FDC01ED9163
:10043000FC910190F081E02D099580E0089580897C
:100440000895FC01E158FF4F0190F081E02D2189D2
:10045000222331F083589F4F0E94120180E00895BB
:10046000808908950F931F93CF93DF93EC018B0145
:10047000E881F9816F5F7F4F0280F381E02D41E0D9
:1004800050E00995E881F9810280F381E02D41E097
:1004900050E0B801CE01DF91CF911F910F910994E7
:1004A000CF92DF92EF92FF920F93CF93DF93CDB76E
:1004B000DEB768970FB6F894DEBF0FBECDBF6C01F4
:1004C0002A8B3B8B4C8B5D8B6E8B7F8B088F4A8985
:1004D0005B896C897D898FEF9FEF9B878A87FA8282
:1004E000E9820B838E899F895F834E8399878887F2
:1004F0005D834C83CE0101960E94AD018CE79CE7A1
:10050000ACE7B0E08C879D87AE87BF87D6018D9121
:100510009C91DC01ED91FC910280F381E02D43E0A0
:1005200050E0BE01645F7F4F0995BE016F5F7F4F52
:10053000F601808191810E943202D6018D919C91B9
:10054000DC01ED91FC910280F381E02D41E050E06F
:10055000BE01685E7F4F09958B81843611F0833729
:1005600029F58C819D81998B888BBE01605F7F4FBF
:10057000D6018D919C910E9432024C815D81411582
:10058000510561F0F60180819181DC01ED91FC91D2
:10059000688579850280F381E02D0995BE01665F4B
:1005A0007F4FF601808191810E94320268960FB6DA
:1005B000F894DEBF0FBECDBFDF91CF910F91FF90BA
:1005C000EF90DF90CF9008954F925F926F927F925D
:1005D0008F929F92AF92BF92CF92DF92EF92FF9253
:1005E0000F931F93CF93DF93C6E6D1E08BE091E0AA
:1005F00099838883A8E6EA2EA1E0FA2E81E191E0B2
:10060000D7018D939C930AE611E087E191E0F80110
:1006100091838083ECEBF1E0118210821092BE0195
:100620001092C0011092BF0144244A94542C50925D
:10063000C6014092C50180E5682E712C7092C201FE
:100640006092C1018CE691E09093C4018093C30154
:1006500097ECA92E91E0B92ED5011C921092C801F9
:100660001092D4011092D3011092D6011092D501AC
:100670001092DA011092D9011092E8011092E7016C
:10068000F093DC01E093DB01C5010E943C0F29EEF1
:10069000C22E21E0D22E3DE1832E31E0932EF601D1
:1006A00091828082B092EC01A092EB01C6010E947F
:1006B0000D0185E291E0D6018D939C9382EC93E04D
:1006C0009093EE018093ED01EFE3F2E0118210824E
:1006D000109241021092430210924202509249023B
:1006E0004092480270924502609244028FEE91E07F
:1006F00090934702809346024AE4A42E42E0B42E2F
:10070000D5011C9210924B02109257021092560281
:10071000109259021092580210925D0210925C02DF
:1007200010926B0210926A02F0935F02E0935E02F5
:10073000C5010E943C0F5CE6C52E52E0D52EF601A5
:1007400091828082B0926F02A0926E02C6010E94D6
:100750000D018DE291E0D6018D939C931092700271
:10076000C6010E94120185E391E0998388838BE39F
:1007700091E0F7019183808381E491E0D8018D932A
:100780009C93D0936501C0936401DF91CF911F9139
:100790000F91FF90EF90DF90CF90BF90AF909F9020
:1007A0008F907F906F905F904F900895CF93DF93DD
:1007B000E091E901F091EA01C281D38182EC93E0FA
:1007C0000E947414BC0189EE91E0FE01DF91CF918B
:1007D0000994BF92CF92DF92EF92FF920F931F93F3
:1007E000CF93DF931F92CDB7DEB78C017B0183E6F9
:1007F00093E00E940F0EB82E81E0E81AF108F8018C
:100800008481811101C0B482C12CD12CCE14DF04AB
:10081000A4F483E693E00E940F0E8983F80184819B
:10082000B81207C0BE016F5F7F4F828193810E9423
:100830005B0FFFEFCF1ADF0AE9CF0F90DF91CF9167
:100840001F910F91FF90EF90DF90CF90BF90089590
:10085000EF92FF920F931F93CF93DF93CDB7DEB745
:1008600069970FB6F894DEBF0FBECDBF7C012B8B0E
:100870003C8B4D8B5E8B6F8B788F098F4B895C899E
:100880006D897E891A8219828FEF9FEF9B878A87F5
:100890000B838F89988D5F834E83998788875D83CB
:1008A0004C83CE0101960E94AD018CE79CE7ACE73A
:1008B000B0E08C879D87AE87BF878091BA00869510
:1008C0008A8BF701608183E693E00E94FA0EBE01F5
:1008D0006E5E7F4F83E693E00E94E40143E050E0C8
:1008E000BE01645F7F4F83E693E00E94610EBE010C
:1008F0006F5F7F4F83E693E00E94ED01BE01675E6C
:100900007F4F83E693E00E94E4018C819D81998B67
:10091000888BBE01605F7F4F83E693E00E94ED010C
:1009200083E693E00E94170F0C811D8101151105CC
:1009300051F10032110510F00FE110E0F701608174
:1009400083E693E00E94FA0EBE016E5E7F4F83E65F
:1009500093E00E94E40168857985A80183E693E02D
:100960000E94610E83E693E00E94170F88859985A7
:10097000800F911F998788878C819D81801B910BA7
:100980009D838C83D1CFF701608183E693E00E9441
:10099000FA0EBE016E5E7F4F83E693E00E94E40193
:1009A000BE01665F7F4F83E693E00E94ED0183E620
:1009B00093E00E94170F69960FB6F894DEBF0FBE42
:1009C000CDBFDF91CF911F910F91FF90EF900895D0
:1009D0004F925F926F927F928F929F92AF92BF924F
:1009E000CF92DF92EF92FF920F931F93CF93DF93FB
:1009F000CDB7DEB7C059D1090FB6F894DEBF0FBE30
:100A0000CDBFFC01CB57DF4F2883C558D040CA5714
:100A1000DF4F3883C658D040C957DF4F4883C75887
:100A2000D040C857DF4F5883C858D040C757DF4F12
:100A30006883C958D040C657DF4F7883CA58D04022
:100A4000C557DF4FC882CB58D040C457DF4FD8823C
:100A5000CC58D040C357DF4FE882CD58D040C25762
:100A6000DF4FF882CE58D040C157DF4F0883CF58B0
:100A7000D040C057DF4F1883C059D040C757DF4F11
:100A8000A881B981C958D040C157DF4FA880B9802B
:100A9000CF58D0402D913C9111972D3F82E03807DF
:100AA00009F42BC308F0E6C02B30310509F474C2F9
:100AB00008F08CC02530310509F414C208F067C075
:100AC0002230310509F4C2C1E0F52115310509F4E0
:100AD00089C12130310509F0B2C480819181DC01E6
:100AE000ED91FC910190F081E02D099564966FAF36
:100AF000649765967FAF659765966EAD7FAD659798
:100B000085EF90E00E941B012A962FAF2A972B9623
:100B10003FAF2B972C964FAF2C972D965FAF2D970D
:100B20002E966FAF2E972F967FAF2F972D96CCAC2A
:100B3000DDACEEACFFAC2D972F96AEACBFAC2F97D3
:100B4000A0C42330310509F4AFC12430310509F0C8
:100B500076C480819181DC01ED91FC910190F0815E
:100B6000E02D09956FA778AB6FA578A98CED90E083
:100B70000E941B012DA33EA34FA358A769A77AA7E4
:100B8000CDA0DEA0EFA0F8A4A9A4BAA47AC428300E
:100B9000310509F4E7C188F42630310509F4C0C1F4
:100BA0002730310509F04BC40E949812D5016D938E
:100BB0007D938D939C931397CFC12930310509F410
:100BC000DBC12A30310509F4B3C139C42131310503
:100BD00009F4FDC190F52E30310509F4EAC180F425
:100BE0002C30310509F4E0C12D30310509F027C45E
:100BF00013966C91139712968C910E94131426C42D
:100C00002F30310509F4DAC12031310509F017C45C
:100C10009D012E5F3F4F16968D919C911797820FE5
:100C2000931F17969C938E93169712968D919C9175
:100C30001397D5018D939C93B4C22E3F81E0380762
:100C400009F420C248F42231310509F4F1C12F3FE3
:100C5000310509F4F5C2F3C32F3F81E0380709F4E9
:100C60002EC22115324009F0EAC38FEF93E0A0E0D5
:100C7000B0E06DC12D3F83E0380709F4E6C208F00B
:100C800062C0233083E0380709F491C200F52115D2
:100C9000A3E03A0709F43CC260F42E3FE2E03E07CD
:100CA00009F432C22F3F324009F0C9C380E290E01C
:100CB00075C2213083E0380709F46CC2223033401A
:100CC00009F0BDC383E693E00E940F0E3FC32630B8
:100CD00083E0380709F4AAC260F5243083E03807BE
:100CE00009F471C22530334009F0A9C3CD01029641
:100CF00017968D909C901897880E991E18969C9226
:100D00008E9217971396CD90DD90ED90FC901697EC
:100D100012966C9183E693E00E94FA0EA601B4014C
:100D200083E693E00E94610E83E693E00E94170F32
:100D30008DC32730F3E03F0709F47CC22C3F3340DA
:100D400009F47EC27CC32F3F84E0380709F4F6C261
:100D500008F52C3F84E0380709F4D4C260F42E3F34
:100D6000A3E03A0709F4C7C22B3F344009F067C338
:100D70000E94D10D6BC32D3FE4E03E0709F4CCC2C5
:100D80002E3F344009F05BC38CB5837F12969C9153
:100D9000892BD2C2223085E0380709F4F2C260F410
:100DA0002115E5E03E0709F4D8C22130354009F0AD
:100DB00046C30E949C014AC32A3F85E0380709F4D4
:100DC00028C32B3F354009F03AC326E040E052ECFF
:100DD00061E070E082EC93E00E9457158CE0809314
:100DE000B80034C380819181DC01ED91FC910190C8
:100DF000F081E02D0995A0966FAFA097A1967FAFE7
:100E0000A197A1966EAD7FADA19783E091E00E947E
:100E10001B0166962FAF669767963FAF67976896F8
:100E20004FAF689769965FAF69976A966FAF6A9799
:100E30006B967FAF6B976996CCACDDACEEACFFAC3C
:100E400069976B96AEACBFAC6B971BC380819181E9
:100E5000DC01ED91FC910190F081E02D099528963F
:100E60006FAF289729967FAF299729966EAD7FADF2
:100E7000299784EF90E00E941B012DAF3EAF4FAF4A
:100E800021965FAF219722966FAF229723967FAF6F
:100E900023972196CCACDDACEEACFFAC219723962A
:100EA000AEACBFAC2397EDC280819181DC01ED91A6
:100EB000FC910190F081E02D09956BAF7CAF6BAD9B
:100EC0007CAD88EE90E00E941B0129AB3AAB4BABA6
:100ED0005CAB6DAB7EABC9A8DAA8EBA8FCA8ADA84B
:100EE000BEA8CFC280819181DC01ED91FC9101907F
:100EF000F081E02D09956BA37CA36BA17CA182EA14
:100F000090E00E941B01298F3A8F4B8F5C8F6D8F71
:100F10007E8FC98CDA8CEB8CFC8CAD8CBE8CB1C214
:100F20000E94A412F501608371838283938314C0AD
:100F300020915F04309160048DB79EB72115310573
:100F400041F583569440AA2797FDA095BA2FF50145
:100F500080839183A283B383B4E0CB2ED12CE12C88
:100F6000F12C8FC212968D919C911397009709F4E2
:100F70006DC20E94EF126AC212966D917C91139716
:100F80006115710509F462C280E090E00E94C71209
:100F90005DC2821B930BD7CF13966C911397129659
:100FA0008C910E94DA1352C212968C910E944914BD
:100FB000CDC112968C910E943513F0C013966C919E
:100FC000139770E012968C910E9452133FC2FD015C
:100FD000329616968D919C9117978E0F9F1F17969C
:100FE0009C938E93169786E0DE01A758BF4F019021
:100FF0000D928A95E1F786E0FE01E758FF4FDE018A
:10100000AD58BF4F01900D928A95E1F7E996AEACCD
:10101000BFACE997E796CCACDDACEEACFFACE797A4
:10102000A2E0CC0CDD1CEE1CFF1CAA95D1F729C256
:10103000FD01329616968D919C9117978E0F9F1FEA
:1010400017969C938E93169786E0DE01A359BF4FA7
:1010500001900D928A95E1F786E0FE01E359FF4F7A
:10106000DE01A959BF4F01900D928A95E1F7AB9629
:10107000CCACDDACEEACFFACAB97AD96AEACBFACE0
:10108000AD97FFC19D012E5F3F4F18968D919C91AA
:101090001997820F931F19969C938E931897129607
:1010A0002D913C91139714964D915D916D917C918A
:1010B0001797F894B9010E94D4167894C7C1149672
:1010C000CD90DC9015971296ED90FC90139780814F
:1010D0009181DC011296ED91FC9113970190F081C2
:1010E000E02D029609956F8B788FAF88B88CA6019A
:1010F000B701C5010E94C41696C012966C9183E692
:1011000093E00E94D70EA2C18091BA0086951EC1BD
:1011100080819181DC011496ED91FC9115970190ED
:10112000F081E02D049609952D873E874F87588BD7
:10113000698B7A8B4D845E846F847888A988BA889D
:1011400018E0C12CD12CC601A0E0B0E084159505B3
:10115000A605B70508F067C0612F83E693E00E94FB
:10116000FA0E83E693E00E94170F81110FC07601FB
:10117000BFEFEB1AFB0AF501EC0DFD1D108361E0DA
:1011800070E080E090E00E94C71267011F5F18378F
:10119000D1F649C083E693E00E94070EF5019183E2
:1011A0008083F2E0CF2ED12CE12CF12C6AC1139672
:1011B0004C91139712966C9183E693E00E94F70E80
:1011C000F5018083C5C013961C9113971296FC906D
:1011D00080819181DC011496ED91FC91159701902D
:1011E000F081E02D049609956B877C87AB84BC84E5
:1011F000412F6F2D83E693E00E94F70EDA2C7501E4
:1012000003C0F70181937F01CE2CCD1883E693E0D4
:101210000E94070E892B31F083E693E00E940F0EA7
:10122000C11678F3D12CE12CF12C2BC18091BA009E
:10123000816003C08091BA008E7F8093BA0006C19E
:1012400089E490E0A0E0B0E082CE9D012E5F3F4FA8
:1012500017968D919C911897820F931F18969C93C7
:101260008E93179712961C911297E080F18086E07A
:10127000FD013396DE01AF59BF4F01900D928A9563
:10128000E1F786E0FE01EF59FF4FDE011196019074
:101290000D928A95E1F74701FAEF8F1AFEEF9F0A48
:1012A000C4010E941201C701865F9E4FDC011C939E
:1012B00004E629813A814B815C816D817E810E94A7
:1012C00028040E9498122B013C016701B9E8CB0E5B
:1012D000D11C0E949812641975098609970968380B
:1012E00073418105910508F0B5C0C6010E94210235
:1012F0008111B0C0EECF808191818A5F9E4F0E94A4
:101300001201A4C012968C91811103C08CB5806229
:1013100013C08CB58F7D10C012962C919CB5822F76
:1013200083709C7F892B8CBD8DB522FB222720F9F1
:101330008E7F822B8DBD8AC08CBD88C012968C9109
:101340008EBD00000DB407FEFDCF8EB5D5018C9388
:10135000C12CD12C7601C39494C012964D915D910D
:101360006D917C91159717960C91179716962C9165
:10137000CE0101960E94500189819A810E948201CA
:1013800065C0CD0102961D96AD90BC901E97A80E2B
:10139000B91E1E96BC92AE921D9712969C90129703
:1013A0001996CD90DD90ED90FC901C9713964D9181
:1013B0005D916D917C91169718960C9118971796E0
:1013C0002C91CE0101960E94500189819A810E9440
:1013D000820160E0892D0E941314F50140E050E085
:1013E000BA014C155D056E057F0561F081918EBDDA
:1013F00000000DB407FEFDCF8EB54F5F5F4F6F4FFE
:101400007F4FEFCF61E0892D0E9413140E949C0151
:1014100038C080819181DC01ED91FC910190F081D7
:10142000E02D099529833A834B835C836D837E830A
:10143000C980DA80EB80FC80AD80BE8022C0A12C08
:10144000B12CCC24CA94DC2C76011BC0C12CD12C2D
:10145000760117C0F701E752FF4FA780B084C38021
:10146000D480E12CF12CB8E4CB16D104E104F104D2
:1014700028F067E4C62ED12CE12CF12CC4010E9487
:101480001201C158DF4FC882D982EA82FB82CF574E
:10149000D040CD57DF4FB982A882C358D0402C2D01
:1014A000C058DF4F3881C058D040CF57DF4F4881F8
:1014B000C158D040CE57DF4F5881C258D0406A2D16
:1014C000CC57DF4F7881C458D04080E090E0C057BF
:1014D000DF4F0FB6F894DEBF0FBECDBFDF91CF91C7
:1014E0001F910F91FF90EF90DF90CF90BF90AF9042
:1014F0009F908F907F906F905F904F9008958F9204
:101500009F92AF92BF92CF92DF92EF92FF920F9392
:101510001F93CF93DF93CDB7DEB762970FB6F894E2
:10152000DEBF0FBECDBFFC01CB01438154812281C0
:10153000243619F44115510539F460E080E02FEFAD
:101540004FEF30E090E02CC03781A085032F3D8322
:10155000AE8385809680A12CB12CC82C89829A827A
:10156000AB82BC8260E070E0242F4F83588769878C
:101570007A87632F3B87AC87DA80EB80FC801A2F59
:10158000388549855A857A2F0E94E8042D873E8741
:101590004F87588B698B7A8B432F3F85952F872FE9
:1015A00029834A833B839C836D838E83342F4B81B5
:1015B000592F782F80E090E062960FB6F894DEBF46
:1015C0000FBECDBFDF91CF911F910F91FF90EF9094
:1015D000DF90CF90BF90AF909F908F900895EF9243
:1015E000FF920F93CF93DF93CDB7DEB72C970FB653
:1015F000F894DEBF0FBECDBF8CE691E00E940B02D7
:10160000882389F18CE691E00E940B02882359F12E
:1016100064E671E08CEB91E00E947F0A38875A877C
:101620006B877C87322F6885542F4A858B859C85F4
:10163000892B21F430E060E050E040E0232F3F832D
:10164000688759874A87E12CF12C04E6362F452F0D
:101650005A856B857C858DEE91E00E94500289EE63
:1016600091E00E940D018FEE91E00E9421028823FB
:10167000D1F18FEE91E00E9421028823A1F164E66E
:1016800071E08FE392E00E947F0A3A835C836D836E
:101690007E83322F6A81542F4C818D819E81892BCC
:1016A00021F430E060E050E040E0232F39836A838A
:1016B0005B834C8304E6362F452F5C816D817E81F0
:1016C00080E792E00E9428048CE692E02C960FB608
:1016D000F894DEBF0FBECDBFDF91CF910F91FF9089
:1016E000EF900C9412012C960FB6F894DEBF0FBE4B
:1016F000CDBFDF91CF910F91FF90EF9008950E94A1
:10170000FA120E94D201C1EAD4E10E94EF0A2097A6
:10171000E1F30E94A114F9CFCF92DF92EF92FF92F2
:101720000F931F93CF93DF931F92CDB7DEB77C014A
:101730006B0100E010E00C151D0584F482EC93E0D1
:101740000E948D148983BE016F5F7F4FF7018281F4
:1017500093810E945B0F0F5F1F4FEDCF0F90DF91C2
:10176000CF911F910F91FF90EF90DF90CF90089550
:1017700010925E0381E080935C0310925B0361E052
:1017800082E10E94131461E083E10E941314E9EBEB
:10179000F0E080818E7F808380818D7F808388E4EC
:1017A0008093B80085E48093BC000895880F8093EF
:1017B000BA000895413208F03FC090915E03911144
:1017C000FCCF91E090935E0320935C032FEF209376
:1017D000F10210923603240F2093350390935D039A
:1017E00090915D03880F892B80935D0380915B034B
:1017F000813041F410925B0380915D038093BB00C4
:1018000085EC01C085EE8093BC0080915E03813041
:10181000E1F380913603841710F44091360327E3F7
:1018200033E0FB01D9018A2F821B841718F48D91B4
:101830008193F9CF842F089580E008950F9341326A
:1018400008F046C090915E039111FCCF92E0909316
:101850005E0300935C039FEF9093F10210923603B6
:1018600040933503FB0167E373E0DB019A2F961B7E
:10187000941718F491919D93F9CF10925D03909174
:101880005D03880F892B80935D0380915B0381301A
:1018900041F410925B0380915D038093BB0085EC63
:1018A00001C085EE8093BC00222321F080915E036D
:1018B0008230E1F38091F1028F3F61F08091F1027B
:1018C000803251F08091F102803341F483E007C00F
:1018D00081E005C080E003C082E001C084E00F9198
:1018E0000895613298F420915E03243089F4609366
:1018F0001303FC0185E193E0DC012A2F281B261746
:1019000018F421912D93F9CF80E0089581E0089596
:1019100082E008959093580380935703089590931D
:101920005A0380935903089585ED8093BC008091FC
:10193000BC0084FDFCCF10925E03089585EC80937B
:10194000BC0010925E0308951F920F920FB60F9283
:1019500011242F933F934F935F936F937F938F93B4
:101960009F93AF93BF93EF93FF938091B900887FCC
:10197000803609F49CC068F5883209F45BC090F4A5
:10198000803109F454C038F4882309F4F5C0883054
:1019900009F44DC0F5C0883109F44CC0803209F417
:1019A0005DC0EEC0803409F468C048F4803309F4A7
:1019B00055C0883309F0E4C08093F102A8C0803597
:1019C00009F44FC0883509F45DC0883409F0D8C0E7
:1019D000D5C0883909F4C6C0A8F4883709F467C0AF
:1019E00038F4883609F463C0803709F460C0C8C091
:1019F000883809F4B7C0803909F45FC0803809F02D
:101A0000BFC05BC0803B09F485C038F4803A09F45C
:101A100066C0883A09F47EC0B3C0803C09F4A6C011
:101A2000883C09F4A3C0883B09F489C0A9C080910F
:101A30005D0310C09091360380913503981770F5BF
:101A4000E091360381E08E0F80933603F0E0E95C8D
:101A5000FC4F80818093BB0085EC85C08093F102B0
:101A60008DC0E091360381E08E0F80933603809124
:101A7000BB00F0E0E95CFC4F8083909136038091DD
:101A800035036DC0E091360381E08E0F80933603FD
:101A90008091BB00F0E0E95CFC4F808380915C03A7
:101AA00081116CC081E080935B0384EA60C083E0B5
:101AB00080935E031092F202CFCF8091F2028032C7
:101AC00008F050C0E091F20281E08E0F8093F202A4
:101AD0008091BB00F0E0ED50FD4F8083BDCF809141
:101AE000F202803230F4E091F202F0E0ED50FD4F6E
:101AF00010820E94940C6091F20270E0E091570312
:101B0000F091580383EF92E009951092F2020E943F
:101B10009E0C36C084E080935E03109214031092F2
:101B20001303E0915903F0915A030995809113032F
:101B3000811105C081E08093130310921503E09199
:101B4000140381E08E0F80931403F0E0EB5EFC4FF2
:101B500080818093BB0090911403809113039817A8
:101B600008F47ACF85E88093BC000AC085EC8093A6
:101B7000BC0010925E0304C01092F1020E94940C0B
:101B8000FF91EF91BF91AF919F918F917F916F9155
:101B90005F914F913F912F910F900FBE0F901F902B
:101BA0001895CF93CFB7F89480916203811127C025
:101BB000E6E3F1E08491E2E2F1E09491E82FF0E0D5
:101BC000EE0FFF1FEC5AFE4FA591B4918C91892323
:101BD00021F461E08AE00E94131461E08AE00E942F
:101BE000DA138CB580618CBD8CB580648CBD61E0EE
:101BF0008DE00E94DA1361E08BE00E94DA1380919D
:101C000062038F5F80936203CFBFCF91089580916D
:101C1000970390E020919803821B910908952091E9
:101C2000980380919703281750F4E22FF0E0E756CD
:101C3000FC4F808190E02F5F2093980308958FEFF1
:101C40009FEF0895E091980380919703E81730F48F
:101C5000F0E0E756FC4F808190E008958FEF9FEF12
:101C600008950895E0916F03F09170033097E1F0CB
:101C700030919803209197033217B0F040E0242F61
:101C800030E02617370754F4DC01A20FB31F5C9134
:101C9000D901A756BC4F5C934F5FF1CF10929803C8
:101CA00060939703CB0109940895E0917103F0913B
:101CB0007203309729F010927503109274030994FF
:101CC0000895CF92DF92EF92FF920F931F93CF93DD
:101CD000DF937C01CB018A0120917303222389F0D9
:101CE000EB016B01C40ED51ECC15DD0569F06991C1
:101CF000D701ED91FC910190F081E02DC70109958C
:101D0000F3CF642F0E94710CC801DF91CF911F9116
:101D10000F91FF90EF90DF90CF900895CF93DF93D6
:101D20001F92CDB7DEB76983209173032223D1F0D0
:101D300020917403203240F021E030E0FC01338335
:101D4000228380E090E015C080917503E82FF0E0D9
:101D5000EA58FC4F998190838F5F8093750380933D
:101D6000740305C061E0CE0101960E94710C81E010
:101D700090E00F90DF91CF910895FC0113821282C1
:101D800048EE53E060E070E04483558366837783D8
:101D900087E491E0918380830895109298031092D4
:101DA000970310927503109274030C94B80BCF93A1
:101DB000DF93EC01862F0E94D60B85E59EE00E9402
:101DC0008F0C82E39EE00E948A0CCE01DF91CF91BE
:101DD0000C94CD0E862F413208F040E269E973E0A1
:101DE0000E94DA0B1092980380939703089521E0E4
:101DF0000C94EA0E81E08093730360939603109233
:101E000075031092740308950F93062F21E04091FB
:101E1000740366E773E0809196030E941E0C109293
:101E2000750310927403109273030F91089561E08B
:101E30000C94040F7093700360936F03089583E60E
:101E400093E00C94BD0E8627682F62956827062EB6
:101E5000669566956025062E669560256770082E46
:101E6000892F669507946795902D86270694679528
:101E70009025862708950895FC01A489B5891296B6
:101E80001C92129714961C921E9213978FEF9FEF3D
:101E90001A969C938E931997138A128A108A118A24
:101EA0001786168611A210A28CE090E0938382839D
:101EB000178E168E0895AF92BF92CF92DF92EF9257
:101EC000FF920F931F93CF93DF931F92CDB7DEB78F
:101ED0008C016115710581F4CE010196D80115962A
:101EE0009C938E93149717969C938E93169719969E
:101EF0009C938E93189707C0FC01758364836F5F72
:101F00007F4F77836683D80114962D913C91159766
:101F100016968D919C9117972817390709F057C08D
:101F200071C2608180E090E00E94230FF801938BE2
:101F3000828B0488F589E02D0780F085E02DD8019B
:101F40001E968D919C911F979C012F5F3F4F1F966E
:101F50003C932E931E9714962D913C911597D90181
:101F60002C91E80FF91F2083F80126853785848599
:101F700095852817390709F011C2068CF78DE02DD9
:101F8000CF010197D8015F969C938E935E973A9606
:101F9000EE0FFF1FE00FF11F8081918113969C933C
:101FA0008E931297D8011296ED91FC911397EF3012
:101FB000F10508F454C2F801848195810196958356
:101FC0008483268137818217930709F41BC2D801C5
:101FD0001296ED91FC9113973197EE30F10508F0D0
:101FE000EBC1EC5CFF4F0C94A916D8015496ED910F
:101FF000FC915597F184E12CF286E18614968D913F
:102000009C911597DC018C919701280F311DC90116
:1020100032872187D80152962D913C915397821790
:10202000930749F481E050968C9350971E968D91BA
:102030009C911F9719C081E0F801818B17C0D801CE
:102040001C968D919C911D975496ED91FC915597FE
:10205000258136812817390718F421E051962C93F1
:1020600021E0D80150962C9394838383F8018481D6
:102070009581019695838483268137818217930702
:1020800009F49AC1D8011496ED91FC9115978081BD
:102090008C3721F0F80113821282F4C1D801149612
:1020A0008D919C911597019615969C938E931497FC
:1020B00016962D913C9117978217930709F47FC1CB
:1020C000D8011496ED91FC91159780818C3711F70A
:1020D000F8018481958101969583848326813781D7
:1020E0008217930709F46EC1D8011496ED91FC9103
:1020F000159780818C3771F650961C92F801848177
:102100009581019695838483268137818217930771
:1021100009F460C1D8015496ED91FC915597118254
:10212000108214968D919C911597DC018C9190E012
:1021300091838083F80184819581019695838483BE
:10214000268137818217930709F447C1D801549635
:10215000ED91FC91559714968D919C911597DC010A
:102160008C91B080A12C9501282BC901918380838B
:10217000D80114968D919C911597019615969C9374
:102180008E93149716962D913C911797821793076B
:1021900009F426C1D8011496ED91FC911597808120
:1021A0008436A1F068F4813609F074CFD8015496D2
:1021B000ED91FC915597828381E050968C9356CF98
:1021C0008E3609F493C0833709F064CFD801549652
:1021D000ED91FC9155978283F80184819581019658
:1021E00095838483268137818217930709F4FBC086
:1021F000D80191961C921E9290971D961C921E9249
:102200001C971496ED91FC911597808190E01D9696
:102210009C938E931C97F8018481958101969583F8
:102220008483268137818217930709F4DFC0D801A0
:102230001C96DC901C97C12C1D96DC92CE921C97AC
:102240001496ED91FC9115978081F601E80FF11D30
:10225000CF011D96FC93EE931C975496ED91FC9143
:102260005597258136812817390718F481E0519652
:102270008C93D8015E96ED91FC915F97CF0101960A
:102280005F969C938E935E973B96EE0FFF1FE00F39
:10229000F11F88E090E0918380834FC0D80152966F
:1022A0008D919C9153970E943B0FF801938B828BE9
:1022B0000488F589E02D12861186D80114968D9137
:1022C0009C911597DC018C9190E092878187F801B1
:1022D0008481958101969583848326813781821735
:1022E000930709F082CE89E090E089C0D801549626
:1022F000ED91FC9155978283F80184819581019637
:1023000095838483268137818217930709F471C0EE
:10231000D80114968D919C911597019615969C93D2
:102320008E93149716962D913C91179782179307C9
:1023300009F085CE8BE090E062C0F8018481958140
:10234000019695838483268137818217930709F448
:1023500053C0D8011F961C921E921E9753961C9232
:102360001E9252971C968D919C911D971496ED91FB
:10237000FC911597892B09F0D4CD31971596FC93D4
:10238000EE93149765C0D8011496ED91FC911597C2
:10239000608152968D919C915397C6CDF8018481AE
:1023A00095810196958384832681378182179307CF
:1023B00051F78EE090E023C08CE090E005C081E012
:1023C00090E01DC082E090E0D80113969C938E931C
:1023D000129718C083E090E012C084E090E0F4CF40
:1023E00085E090E00CC086E090E0EECF87E090E0E2
:1023F00006C08AE090E0E8CF8DE090E0E5CFF801FC
:1024000093838283D80114968D919C911597189689
:102410002D913C91199782179307A1F512962D9152
:102420003C9113972D30310569F51F961C921E9231
:102430001E9753961C921E9252971C962D913C917A
:102440001D97232BF9F4019715969C938E9314975F
:102450005E96ED91FC915F97CF01019794CDEE5B75
:10246000FF4F0C94A916F8018481958101969583FC
:102470008483268137818217930709F00FCF88E084
:1024800090E0A2CF0F90DF91CF911F910F91FF901D
:10249000EF90DF90CF90BF90AF9008951F920F9272
:1024A0000FB60F9211242F933F938F939F93AF9367
:1024B000BF938091BA039091BB03A091BC03B091EC
:1024C000BD033091B90323E0230F2D3720F401968B
:1024D000A11DB11D05C026E8230F0296A11DB11D47
:1024E0002093B9038093BA039093BB03A093BC03DA
:1024F000B093BD038091BE039091BF03A091C00330
:10250000B091C1030196A11DB11D8093BE039093AC
:10251000BF03A093C003B093C103BF91AF919F913C
:102520008F913F912F910F900FBE0F901F90189594
:102530002FB7F8946091BA037091BB038091BC03EC
:102540009091BD032FBF08953FB7F8948091BE03CB
:102550009091BF03A091C003B091C10326B5A89B81
:1025600005C02F3F19F00196A11DB11D3FBF662781
:10257000782F892F9A2F620F711D811D911D42E0C6
:10258000660F771F881F991F4A95D1F70895CF923C
:10259000DF92EF92FF92CF93DF936B017C010E9459
:1025A000A412EB01C114D104E104F10489F00E94EA
:1025B00086160E94A4126C1B7D0B683E734090F33C
:1025C00081E0C81AD108E108F108C851DC4FEACF10
:1025D000DF91CF91FF90EF90DF90CF900895823000
:1025E000910538F0880F991F880F991F059701975B
:1025F000F1F70895789484B5826084BD84B58160D4
:1026000084BD85B5826085BD85B5816085BDEEE6FA
:10261000F0E0808181608083E1E8F0E010828081D9
:1026200082608083808181608083E0E8F0E0808147
:1026300081608083E1EBF0E0808184608083E0EB67
:10264000F0E0808181608083EAE7F0E0808184604F
:1026500080838081826080838081816080838081AB
:10266000806880831092C10008958E3008F08E50EB
:1026700087702091060190E4299F90011124822BFC
:1026800080937C0080917A00806480937A008091AE
:102690007A0086FDFCCF809178002091790090E04F
:1026A000922B08951F93CF93DF93182FEB0161E0D6
:1026B0000E94DA13209711F460E004C0CF3FD105E7
:1026C00039F461E0812FDF91CF911F910C941314A5
:1026D000E12FF0E0EC5FFE4FE491E330F9F048F4D5
:1026E000E130B9F0E230A1F584B5806284BDC8BDA7
:1026F00034C0E730E9F0E83019F1E43049F5809171
:102700008000806280938000D0938B00C0938A0009
:1027100024C084B5806884BDC7BD1FC0809180007F
:10272000806880938000D0938900C093880015C092
:102730008091B00080688093B000C093B3000DC05A
:102740008091B00080628093B000C093B40005C057
:10275000C038D1050CF0B5CFAFCFDF91CF911F912D
:102760000895833081F028F4813099F08230A1F00F
:1027700008958730A9F08830B9F08430D1F4809181
:1027800080008F7D03C0809180008F7780938000D0
:10279000089584B58F7702C084B58F7D84BD089578
:1027A0008091B0008F7703C08091B0008F7D8093BF
:1027B000B0000895CF93DF9390E0FC01E85EFE4FF8
:1027C0002491FC01E45DFE4F8491882349F190E05F
:1027D000880F991FFC01EC5AFE4FA591B491865BBE
:1027E0009E4FFC01C591D4919FB7611108C0F89428
:1027F0008C91209582238C93888182230AC0623039
:1028000051F4F8948C91322F309583238C938881E6
:10281000822B888304C0F8948C91822B8C939FBF69
:10282000DF91CF9108950F931F93CF93DF931F9262
:10283000CDB7DEB7282F30E0F901EC5FFE4F849171
:10284000F901E85EFE4F1491F901E45DFE4F049139
:102850000023C9F0882321F069830E94B1136981A4
:10286000E02FF0E0EE0FFF1FE65BFE4FA591B49165
:102870009FB7F8948C91611103C01095812301C01A
:10288000812B8C939FBF0F90DF91CF911F910F9160
:102890000895CF93DF93282F30E0F901EC5FFE4FCE
:1028A0008491F901E85EFE4FD491F901E45DFE4F99
:1028B000C491CC2391F081110E94B113EC2FF0E070
:1028C000EE0FFF1FE05CFE4FA591B4912C912D23DC
:1028D00081E090E021F480E002C080E090E0DF91B0
:1028E000CF9108950E94AF16FC01818D228D90E05A
:1028F000805C9F4F821B91098F7399270895FC017B
:10290000918D828D981731F0828DE80FF11D858DA4
:1029100090E008958FEF9FEF0895FC01918D828DD7
:10292000981761F0828DDF01A80FB11D5D968C9123
:10293000928D9F5F9F73928F90E008958FEF9FEF2E
:10294000089581E196E1892B49F086ED93E0892B8A
:1029500029F00E94111681110C94D6030895FC01F0
:10296000848DDF01A80FB11DA35ABF4F2C91848D18
:1029700090E001968F739927848FA689B7892C934D
:10298000A089B1898C9180648C93938D848D9813E8
:1029900006C00288F389E02D80818F7D80830895B1
:1029A000CF93DF93EC01888D8823C9F0EA89FB89F6
:1029B000808185FD05C0A889B9898C9186FD0FC0ED
:1029C0000FB607FCF5CF808185FFF2CFA889B989C2
:1029D0008C9185FFEDCFCE010E94AF14E7CFDF9140
:1029E000CF910895CF92DF92FF920F931F93CF93D1
:1029F000DF931F92CDB7DEB76C0181E0D601589608
:102A00008C9358975B969C915B975C968C915C97A6
:102A1000981307C05096ED91FC915197808185FDE8
:102A20002EC0F601038D10E00F5F1F4F0F731127AB
:102A3000F02EF601848DF81211C00FB607FCF9CF05
:102A4000D6015096ED91FC915197808185FFF1CF91
:102A5000C60169830E94AF146981EBCF838DE80FB3
:102A6000F11DE35AFF4F6083D6015B960C935B9791
:102A70005296ED91FC915397808180620CC0D601F3
:102A80005696ED91FC91579760835096ED91FC918D
:102A9000519780818064808381E090E00F90DF9186
:102AA000CF911F910F91FF90DF90CF900895BF922B
:102AB000CF92DF92EF92FF92CF93DF93EC016A0106
:102AC0007B01B22EE889F98982E08083411581EE8D
:102AD000580761057105A1F060E079E08DE390E0B1
:102AE000A70196010E948716215031094109510919
:102AF0005695479537952795211580E1380798F029
:102B0000E889F989108260E874E88EE190E0A70115
:102B100096010E94871621503109410951095695A5
:102B2000479537952795EC85FD853083EE85FF85A4
:102B30002083188EEC89FD89B082EA89FB89808127
:102B400080618083EA89FB89808188608083EA894B
:102B5000FB89808180688083EA89FB8980818F7D01
:102B60008083DF91CF91FF90EF90DF90CF90BF9067
:102B700008951F920F920FB60F9211242F938F93E7
:102B80009F93EF93FF93E091D203F091D303808161
:102B9000E091D803F091D90382FD12C09081809119
:102BA000DB038F5F8F732091DC03821751F0E0917C
:102BB000DB03F0E0EE53FC4F958F8093DB0301C005
:102BC0008081FF91EF919F918F912F910F900FBE78
:102BD0000F901F9018951F920F920FB60F9211240D
:102BE0002F933F934F935F936F937F938F939F9315
:102BF000AF93BF93EF93FF9382EC93E00E94AF14E7
:102C0000FF91EF91BF91AF919F918F917F916F91C4
:102C10005F914F913F912F910F900FBE0F901F909A
:102C2000189582EC93E00E94741421E0892B09F43A
:102C300020E0822F08951092C5031092C40388EEFD
:102C400093E0A0E0B0E08093C6039093C703A09305
:102C5000C803B093C90387E591E09093C3038093C1
:102C6000C20385EC90E09093CF038093CE0384EC75
:102C700090E09093D1038093D00380EC90E0909308
:102C8000D3038093D20381EC90E09093D50380939B
:102C9000D40382EC90E09093D7038093D60386EC24
:102CA00090E09093D9038093D8031092DB031092A5
:102CB000DC031092DD031092DE030895CF92DF92C1
:102CC000EF92FF920F931F93CF93DF936C017A01E2
:102CD000EB01E60EF71E00E010E0CE15DF0561F017
:102CE0006991D601ED91FC910190F081E02DC60132
:102CF0000995080F191FF1CFC801DF91CF911F91DE
:102D00000F91FF90EF90DF90CF9008950895A1E28A
:102D10001A2EAA1BBB1BFD010DC0AA1FBB1FEE1F55
:102D2000FF1FA217B307E407F50720F0A21BB30BA0
:102D3000E40BF50B661F771F881F991F1A9469F71C
:102D400060957095809590959B01AC01BD01CF0178
:102D50000895EE0FFF1F0590F491E02D099481E096
:102D600090E0F8940C94F616FB01DC0105900D92AE
:102D70000020E1F70895FC0105900020E9F7809517
:102D800090958E0F9F1F0895DC01CB01FC01F999EE
:102D9000FECF06C0F2BDE1BDF89A319600B40D92A7
:102DA00041505040B8F70895DC01A40FB51F4150C1
:102DB000504048F0CB01840F951F2E910E94E516DC
:102DC00041505040D0F70895262FF999FECF92BD7B
:102DD00081BDF89A019700B4021639F01FBA20BDE0
:102DE0000FB6F894FA9AF99A0FBE0895F894FFCFA7
:102DF0000000630480000100000000721400000065
:102E0000007214000000007214000000000D017236
:102E100014000000000D018C0B000000001201E9FD
:102E20000300000000DC00FEFF0000FC00FCFF00CF
:102E300000FF00000000008E0E610E070E0F0E2234
:102E40000E310E00000000F2145E1674148D147F13
:042E500014D0140086
:00000001FF
