:100000000C9435010C9462010C9462010C94620111
:100010000C9462010C9462010C9462010C946201D4
:100020000C9462010C9462010C9462010C946201C4
:100030000C9462010C9462010C9462010C946201B4
:100040000C9462010C9462010C9462010C946201A4
:100050000C9462010C9462010C9462010C941B10CC
:100060000C9462010C9486130C94CE140C946201CF
:100070000C9462010C9462010C9462010C94620174
:100080000C9462010C9462010C9462010C94620164
:100090000C94C6130C940D150C9462010C94C40AB4
:1000A0000C9462010C9462010C9462010C94620144
:1000B0000C9462010C9462010C9462010C94620134
:1000C0000C9462010C9462010C9462010C9406146D
:1000D0000C944C150C9462010C9446140C948B15E2
:1000E0000C946201302E313200626173652D6E6FA7
:1000F00064652D7270630000576865656C657220D9
:100100004C616200302E313200687474703A2F2FC7
:100110006769746875622E636F6D2F776865656CAB
:1001200065722D6D6963726F666C7569646963735E
:100130002F626173655F6E6F64655F7270632E67B7
:1001400069740000002100240027002A002D0030DF
:1001500000330001010000040107010A0100002230
:1001600000250028002B002E003100340002010081
:1001700000050108010B01000020002300260029D2
:10018000002C002F003200000100000301060109CD
:100190000105050505070508080808020202020A0C
:1001A0000A0808040404040101010101010101031A
:1001B00003030303030303040707070C0C0C0C0CD5
:1001C0000C0C0C0202020206060606060606060BC8
:1001D0000B0B0B0B0B0B0B0102102020080810203F
:1001E00040102040800201020108040201010204C3
:1001F0000810204080804020100804020180040282
:1002000001804020100804020108040201010204D8
:1002100008102040800102040810204080000009DE
:100220000A02080B0C0D0706030401000000000081
:1002300000000000000000000000000000000000BE
:1002400000000000000000000011100F000000007E
:10025000000000000000000000000000000000009E
:1002600000000000AD013E09FB1611241FBECFEFB8
:10027000D1E2DEBFCDBF00E00CBF12E0A0E0B2E0F3
:10028000ECE0F1E300E00BBF02C007900D92A23654
:10029000B107D9F71BBE18E0A2E6B2E001C01D927B
:1002A000A83CB107E1F712E0CAE6D2E004C0229709
:1002B000FE010E948018C436D107C9F70E94BF080A
:1002C0000C9484180C940000FB01DC0105900D9245
:1002D0000020E1F70895FC0105900020E9F78095E2
:1002E00090958E0F9F1F089504970E947C0108959A
:1002F00002970E947C010895AC0145595D4F20E8AA
:1003000030E0B901CA010895BC01E091C804F09140
:10031000C9040280F381E02D88EC94E019950895DA
:10032000DC01ED91FC910280F381E02D41E050E091
:1003300019950895FC01828193810E94920C089581
:100340000F931F938C01FC01828193810E94920C78
:10035000F80114821F910F9108958F929F92AF928E
:10036000BF92CF92DF92EF92FF920F931F938BE198
:1003700092E0909363028093620281E292E0909314
:1003800065028093640287E292E090936702809313
:100390006602109269031092680310926A03109229
:1003A0006C0310926B0388248A94982C90927203A9
:1003B00080927103A12C21E0B22EB0926E03A09224
:1003C0006D0398E6E92E92E0F92EF0927003E09228
:1003D0006F038AEF9FEFE80EF91E03E713E0109218
:1003E0007303109274031092800310927F03109293
:1003F000820310928103109286031092850310925B
:1004000094031092930388E693E09093880380937B
:100410008703C8010E94920C85E3C82E82E0D82E83
:10042000D0929603C092950310939803009397037C
:10043000C8010E94920C8DE292E090939603809303
:1004400095038CE398E090939A038093990310921C
:100450009C0410929B0410929D0410929F04109291
:100460009E049092A5048092A404B092A104A0924C
:10047000A0048BE993E09093A3048093A20406EA7E
:1004800014E01092A6041092A7041092B3041092E4
:10049000B2041092B5041092B4041092B9041092F0
:1004A000B8041092C7041092C6048BE994E09093AC
:1004B000BB048093BA04C8010E94920CD092C90474
:1004C000C092C8041093CB040093CA04C8010E94D0
:1004D000920C8DE392E09093C9048093C80410922B
:1004E000CC0488EC94E00E94A00189E092E0909313
:1004F0006302809362020696909365028093640281
:1005000006969093670280936602F0924E05E09201
:100510004D051F910F91FF90EF90DF90CF90BF900E
:10052000AF909F908F900895AF92BF92CF92DF923D
:10053000EF92FF920F931F93DF93CF930F92CDB75C
:10054000DEB76C017B0100E010E05E010894A11CA5
:10055000B11C0DC08CE398E00E9482168983F601DD
:1005600082819381B5010E94B10C0F5F1F4F0E1560
:100570001F0584F30F90CF91DF911F910F91FF9092
:10058000EF90DF90CF90BF90AF9008958F929F92A1
:10059000BF92CF92DF92EF92FF920F931F93DF9360
:1005A000CF930F92CDB7DEB77C016B0189E995E05F
:1005B0000E94E108B82E0894C108D108F70184818F
:1005C000882309F4B48200E010E04E010894811CF5
:1005D000911C10C089E995E00E94E1088983F70128
:1005E0008481B81629F482819381B4010E94B10CF0
:1005F0000F5F1F4F0C151D056CF30F90CF91DF910E
:100600001F910F91FF90EF90DF90CF90BF909F9040
:100610008F900895EF92FF920F931F938C01F62E07
:10062000E72ECB01B8010E946401C8010E946B0152
:10063000BC018F2D9E2D1F910F91FF90EF9008957B
:100640000F931F93CF93DF93EC011A86198600E076
:1006500010E00CC0EF81F885E00FF11FC901608147
:100660000E94770C9A8789870F5F1F4F8B819C812F
:1006700029853A850817190768F3C9010E94910C6A
:1006800089879A87DF91CF911F910F910895CF921B
:10069000DF92EF92FF920F931F93DF93CF93CDB72B
:1006A000DEB763970FB6F894DEBF0FBECDBF6C0107
:1006B0002B8B198618868FEF9FEF9A8B898B2A8751
:1006C0005E874D87788B6F875C874B8738E0E32E9A
:1006D000F12CEC0EFD1EC7010E9420038091000248
:1006E00090910102A0910202B09103028C839D833C
:1006F000AE83BF838091BA008695898389E995E0AE
:10070000F60160810E94CE0889E995E08E010F5FB5
:100710001F4FB8010E94900189E995E0BE016C5F0E
:100720007F4F43E050E00E94550989E995E0BE0102
:10073000675F7F4F41E050E00E94550989E995E0ED
:10074000B70141E050E00E94550989E995E0BE01FA
:100750006D5E7F4F0E9490018B859C859B838A8371
:1007600089E995E0BE016D5F7F4F41E050E00E9456
:10077000550989E995E0BE016E5F7F4F41E050E089
:100780000E94550989E995E00E94C909F02EE12EE1
:1007900029C08A014032510510F00FE110E089E9CB
:1007A00095E0F60160810E94CE0889E995E06F2D01
:1007B0007E2D0E9490016F85788989E995E0A801D6
:1007C0000E94550989E995E00E94C9098F85988999
:1007D000800F911F988B8F878B859C85801B910B39
:1007E0009C878B874B855C854115510591F689E97E
:1007F00095E0F60160810E94CE0889E995E0BE018E
:100800006F5F7F4F0E94900189E995E0BE016E5EA7
:100810007F4F41E050E00E94550989E995E0BE0113
:100820006F5E7F4F41E050E00E94550989E995E0F5
:100830000E94C90963960FB6F894DEBF0FBECDBF04
:10084000CF91DF911F910F91FF90EF90DF90CF90AC
:1008500008958F929F92AF92BF92CF92DF92EF92C4
:10086000FF920F931F93CF93DF93DC01580169012F
:10087000EB0186018881803209F46EC2813208F072
:1008800043C0893009F4F6C08A30F8F4843009F4A2
:10089000C2C0853068F4813009F48AC0813008F420
:1008A00079C0823009F492C0833009F06EC09CC0D8
:1008B000863009F4CCC0863008F4BBC0873009F418
:1008C000C9C0883009F061C0CDC08E3009F408C1BC
:1008D0008F3068F48B3009F4F4C08B3008F4D6C044
:1008E0008C3009F4F4C08D3009F04FC0F4C0803171
:1008F00009F400C1803108F4F7C0813109F408C15E
:10090000823109F042C018C1863609F4C7C1873662
:10091000F8F4813609F478C1823670F4813409F430
:100920003FC1823418F4803481F515C1823409F452
:1009300060C1803651F562C1833609F472C18336D5
:1009400008F466C1843609F49CC18536F1F49EC171
:10095000803809F401C2813860F4883609F4D6C1C0
:10096000883608F4A7C1893609F4EAC18A3669F4E1
:10097000EDC1823809F43CC2823808F4FAC1803AE9
:1009800009F43DC2813A09F448C2EE24FF24CFEFB6
:10099000DFEF51C2ED91FC91A081B1812D913C918D
:1009A000CF01F9011995AB01BC0184EE90E029C09B
:1009B000ED91FC91A081B1812D913C91CF01F90184
:1009C0001995AB01BC0189EE90E01BC0ED91FC9143
:1009D000A081B1812D913C91CF01F9011995AB0115
:1009E000BC0187EF90E00DC0ED91FC91A081B18139
:1009F0002D913C91CF01F9011995AB01BC0188EF14
:100A000090E00E940A03562F282F392FC9017C013C
:100A1000252F372F3FC2ED91FC91A081B1812D91FF
:100A20003C91CF01F9011995AB01BC0184E091E043
:100A3000E8CFED91FC91A081B1812D913C91CF0146
:100A4000F9011995AB01BC0189E091E0DACF0E9470
:100A5000711002C00E946310F80160837183828369
:100A6000938383C189819A81009709F4E1C10E942F
:100A7000F010DEC149815A814115510509F4D8C1F0
:100A8000BA0180E090E00E9497101FC08091C408D6
:100A90009091C508009729F42DB73EB7285C3840DF
:100AA00004C02DB73EB7281B390BC901AA2797FDF3
:100AB000A095BA2FF80180839183A283B383780134
:100AC00055C189816A810E9470127601B2C1898103
:100AD0000E945613E9C089816A810E942313A8C12C
:100AE00089810E945C1196C06A81898170E00E94B0
:100AF0009011EBCFFB013196828193818E0F9F1F66
:100B00009383828389819181F6018083918385C05B
:100B1000FB013196228133812E0F3F1F33832283C5
:100B200089819181A22FB3819C01220F331F220F53
:100B3000331F7D01E9017FC1FB01319682819381E1
:100B40008E0F9F1F93838283718153816981482F08
:100B5000952F842F5FC1FB013196848195818E0F83
:100B60009F1F9583848349815A8122813381F89420
:100B7000FC0111C08081F999FECF1FBA52BD41BD61
:100B800080BD0FB6F894FA9AF99A0FBE4F5F5F4F87
:100B90003196215030402115310561F7789448C1D4
:100BA000FB0131960D90BC91A02D19810181C2816C
:100BB000D3811296ED91FC9113970190F081E02D75
:100BC000CD01029619957C01412F502F9A01FC010D
:100BD000AE010BC0F999FECF32BD21BDF89A80B5A8
:100BE00081932F5F3F4F415050404115510591F780
:100BF00022C18FEF9FE0A0E0B0E0B2C089E995E0AC
:100C000069810E94E90914C18091BA0086954CC09F
:100C100080E290E0F801918380837601C2E0D0E029
:100C20000AC10D90BC91A02D1496ED91FC911597E1
:100C30000190F081E02DCD01049619957C016B01A6
:100C4000C0E0D0E018E0CC15DD0508F0F4C089E97B
:100C500095E0612F0E94CE0889E995E00E94C909BC
:100C6000882359F4F701EC0FFD1F1083219661E0F2
:100C700070E080E090E00E9497101F5F183719F72E
:100C8000DAC089E995E00E94D808C4CF89E995E0E7
:100C90000E94E108F6018083760109C089E995E0A8
:100CA00069814A810E94DA09F80180837601C1E0F6
:100CB000D0E0C1C00D90BC91A02DD980CA801496FF
:100CC000ED91FC9115970190F081E02DCD010496F6
:100CD00019957B018C01780189E995E06D2D4C2DEA
:100CE0000E94DA09E80110E008C089E995E00E9455
:100CF000E1081C1540F489931F5F89E995E00E9483
:100D0000D808892B91F7C12FD0E095C0FB0131960F
:100D1000038114810E0F1F1F14830383E180F2806F
:100D200089E995E069810E94CE0889E995E0B801DA
:100D3000A7010E94550989E995E00E94C909C5CE1D
:100D40008091BA0081608093BA00BFCE8091BA00D2
:100D50008E7F8093BA006CC089EF90E0A0E0B0E095
:100D6000F80180839183A283B3837601C4E0D0E04D
:100D700062C0FB013196038114810E0F1F1F148383
:100D80000383AD90BC90F980E180D280C48046E6B8
:100D9000842E42E0942E8A0C9B1CC4010E94A00168
:100DA000F501E659FD4FF082CF014E2D5D2D602FEC
:100DB0007C2D24E60E9447030E9463107B018C0176
:100DC000E501C859DD4F0E9463106E197F09800B41
:100DD000910B685873418040904008F03FC0E88113
:100DE000F98181898823B1F1C4010E94A001EBCF70
:100DF0008D919C918A599D4F0E94A00166CE0D90C5
:100E0000BC91A02DED91FC9111970190F081E02D06
:100E1000CD0119957C01262FFCCD8CE398E040E0B4
:100E200052EC61E070E00E94CA158CE08093B8003B
:100E30007801C0E0D0E0BE01C701DF91CF911F91E2
:100E40000F91FF90EF90DF90CF90BF90AF909F9069
:100E50008F9008958089882309F4B5CF20E432E08B
:100E6000A20EB31EF501808191812CEF3FEFA20EFF
:100E7000B31EF501408151818C019A01E901283F9F
:100E8000310510F0C7EFD0E0C4010E94A001780145
:100E90002C2F3D2FE901CFCFEF92FF920F931F939D
:100EA000DF93CF93CDB7DEB762970FB6F894DEBF6E
:100EB0000FBECDBFE0919703F091980381898823FD
:100EC00009F422C1CF01E5C020916B0330916C037E
:100ED00080916A038436C1F421153105A9F080910F
:100EE0006F0390917003BC01A9019C0100916D03F7
:100EF00010916E038DE495E00E942904AC01892BCA
:100F000039F460E070E004C060E070E040E050E080
:100F100024E629838FEF9FEF9A8B898B1986188699
:100F20002A877E876D87588B4F877C876B8768E021
:100F3000E62EF12CEC0EFD1EC7010E9420038091CD
:100F4000000290910102A0910202B09103028C83F1
:100F50009D83AE83BF83E0919903F0919A03A081B2
:100F6000B18112962D913C911397CF01BE016C5F18
:100F70007F4F43E050E0F9011995009199031091DA
:100F80009A03D801ED91FC910280F381E02DC80114
:100F9000BE01675F7F4F41E050E01995D801ED91A8
:100FA000FC910280F381E02DC801B70141E050E0DF
:100FB0001995E0919903F0919A03A081B18112965D
:100FC0002D913C911397CF01BE016F5F7F4F41E0A0
:100FD00050E0F90119958A85843619F0833709F0B4
:100FE00054C00091990310919A038B859C859B8333
:100FF0008A83D801ED91FC910280F381E02DC80134
:10100000BE016D5F7F4F41E050E01995D801ED9131
:10101000FC910280F381E02DC801BE016E5F7F4F1D
:1010200041E050E019954B855C854115510579F0FB
:10103000E0919903F0919A03A081B1816F8578893D
:1010400012962D913C911397CF01F90119950091BA
:10105000990310919A03D801ED91FC910280F381DC
:10106000E02DC801BE016E5E7F4F41E050E0199552
:10107000D801ED91FC910280F381E02DC801BE0101
:101080006F5E7F4F41E050E01995809197039091FA
:1010900098030E94920CE091CA04F091CB048189DC
:1010A0008823B9F12CC020919E0430919F04809137
:1010B0009D048436C9F421153105B1F08091A20454
:1010C0009091A304BC01A9019C010091A00410917E
:1010D000A1048DE495E00E942904FC019B01892B69
:1010E00039F420E030E004C020E030E0E0E0F0E05F
:1010F000BF01A9018CEC94E024E60E94470388EC30
:1011000094E00E94A00108C08089882309F0DCCE09
:10111000C2CF8089882339F662960FB6F894DEBF75
:101120000FBECDBFCF91DF911F910F91FF90EF9038
:1011300008958CE398E040E052EC61E070E00E949A
:10114000CA158CE08093B80089E995E064E871E005
:101150000E94390908950F931F93E0919503F09130
:101160009603028113818CE398E00E945116BC0122
:1011700085E993E0F80119951F910F910895CF9398
:10118000DF930E94FA100E949908C5E8D4E10E94FA
:101190004C072097E1F30E948514F9CF81E08093FA
:1011A000940560937105109292051092930508952D
:1011B0002091700530E080916F05281B3109C9012D
:1011C000089540916F0580917005481718F02FEF32
:1011D0003FEF0AC0E42FF0E0E15BFA4F8081282F57
:1011E00030E04F5F40936F05C9010895E0916F05AE
:1011F00080917005E81718F0EFEFFFEF06C0F0E000
:10120000E15BFA4F8081E82FF0E0CF010895089567
:10121000AC01209197053091980521153105E1F039
:1012200090916F05809170059817B0F090E008C01C
:10123000FA01EA0FFB1F8081A15BBA4F8C939F5F7D
:10124000A92FB0E0A617B7079CF310926F05609323
:101250007005CB01F90119950895E0919505F0917C
:101260009605309729F010929205109293051995E2
:1012700008957093980560939705089510929C05C2
:1012800010929B0588EE93E0A0E0B0E080939D056E
:1012900090939E05A0939F05B093A00585E492E0EE
:1012A00090939A05809399050895CF92DF92EF92DB
:1012B000FF920F931F93CF93DF937C016B018A0101
:1012C000809194058823A1F0C0E0D0E00DC0D70143
:1012D000ED91FC91D601AC0FBD1F0190F081E02D86
:1012E000C7016C9119952196C017D10780F304C0EE
:1012F000CB01642F0E949F0AC801DF91CF911F91FB
:101300000F91FF90EF90DF90CF900895DF93CF93F0
:101310000F92CDB7DEB7FC016983809194058823D5
:10132000C9F080919305803238F081E090E093839A
:10133000828320E030E015C080919205E82FF0E034
:10134000EE58FA4F998190838F5F80939205809336
:10135000930505C0CE01019661E00E949F0A21E03D
:1013600030E0C9010F90CF91DF9108950F93062FC0
:101370008091710562E775E04091930521E00E943C
:101380004A0A1092920510929305109294050F91BB
:10139000089561E00E94B6090895413208F040E2E4
:1013A000862F6FE475E00E94010A10926F0580930A
:1013B0007005089521E00E94CD09089510926F05EF
:1013C0001092700510929205109293050E94590C8C
:1013D00008950F931F938C01862F0E94FD098DE2C3
:1013E00099E00E94BF0A88E099E00E94BA0AC80109
:1013F0000E94DE091F910F910895880F8093BA0013
:101400000895382F413210F040E042C08091A50588
:101410008823E1F791E09093A5052093A7058FEF2E
:10142000809312061092CD0541504093CE054F5F38
:101430009093A6058091A605330F832B8093A60574
:101440008091A805813041F41092A8058091A605ED
:101450008093BB0085EC01C085EE8093BC00809139
:10146000A5058130E1F38091CD05841710F44091FA
:10147000CD0520E030E00AC0FB01E20FF31FD901E7
:10148000A355BA4F8C9180832F5F3F4F2417A0F351
:10149000842F08950F931F93582F122F413210F06D
:1014A00081E04AC08091A5058823E1F782E080931E
:1014B000A5050093A7058FEF809312061092CD0526
:1014C0004093CE05ADEAB5E0FB0102C081918D935A
:1014D0008E2F861B8417D0F31092A6058091A60547
:1014E000550F852B8093A6058091A805813041F486
:1014F0001092A8058091A6058093BB0085EC01C0E1
:1015000085EE8093BC00112321F08091A5058230E7
:10151000E1F3809112068F3F11F480E00DC08091BD
:101520001206803211F482E007C0809112068033E7
:1015300011F084E001C083E01F910F910895482FBE
:10154000613210F081E008958091A505843011F09A
:1015500082E008956093F005AFECB5E0842F9C0124
:10156000F90102C081918D938E2F841B8617D0F3D1
:1015700080E008959093AC058093AB050895909317
:10158000AA058093A90508951F920F920FB60F9296
:101590000BB60F9211242F933F934F935F936F934A
:1015A0007F938F939F93AF93BF93EF93FF9380911C
:1015B000B90090E0887F90708036910509F4F2C000
:1015C00081369105CCF58832910509F47BC08932CA
:1015D0009105B4F48031910509F46FC08131910512
:1015E0003CF4009709F447C1089709F04FC165C062
:1015F0008831910509F466C0809709F047C182C01F
:101600008034910509F4A4C08134910544F48033F9
:10161000910509F482C0C89709F038C189C08035A6
:10162000910509F489C08835910509F496C088347C
:10163000910509F02BC1AEC08839910509F413C199
:1016400089399105ECF48837910509F4ABC08937E5
:1016500091054CF48836910509F4A4C080379105B2
:1016600009F014C19FC08838910509F4FCC0803985
:10167000910509F49DC08038910509F007C198C013
:10168000803B910509F4C6C0813B91054CF4803A3A
:10169000910509F49FC0883A910509F0F7C0BAC0D6
:1016A000803C910509F4E3C0883C910509F4DFC052
:1016B000883B910509F0EAC0C2C08091A6058093DD
:1016C000BB00CFC09091CD058091CE05981768F4EE
:1016D0009091CD05E92FF0E0E355FA4F808180939A
:1016E000BB009F5F9093CD05BCC08091A705882368
:1016F00009F44BC085ED8093BC008091BC0084FD53
:10170000FCCFC2C080E28093120685ED8093BC00BE
:101710008091BC0084FDFCCFB7C080E380931206AB
:1017200085ED8093BC008091BC0084FDFCCFACC0F3
:1017300088E3809312069BC08091CD059091BB00F9
:10174000E82FF0E0E355FA4F90838F5F8093CD054B
:101750009091CD058091CE0582C08091CD0590916C
:10176000BB00E82FF0E0E355FA4F90838F5F809342
:10177000CD058091A705882341F085ED8093BC00BD
:101780008091BC0084FDFCCF7FC081E08093A805E0
:1017900084EA6EC085ED8093BC008091BC0084FD1E
:1017A000FCCF72C083E08093A5051092110659C04A
:1017B00080911106803208F056C0809111069091F8
:1017C000BB00E82FF0E0EF50FA4F90838F5F8093DB
:1017D000110647C080911106803230F4E091110665
:1017E000F0E0EF50FA4F108285ED8093BC008091BD
:1017F000BC0084FDFCCF1092A50560911106E0911C
:10180000AB05F091AC0581EF95E070E01995109271
:1018100011062DC084E08093A5051092EF0510926B
:10182000F005E091A905F091AA0519958091F005C0
:10183000882329F481E08093F0051092CF059091E0
:10184000EF05E92FF0E0E153FA4F80818093BB0070
:101850009F5F9093EF059091EF058091F0059817A9
:1018600010F485EC01C085E88093BC000FC085ECC6
:101870008093BC0009C01092120685ED8093BC00D5
:101880008091BC0084FDFCCF1092A505FF91EF91E3
:10189000BF91AF919F918F917F916F915F914F9188
:1018A0003F912F910F900BBE0F900FBE0F901F9086
:1018B00018951092A50581E08093A7051092A805C0
:1018C00084E161E00E94231385E161E00E9423131B
:1018D000E9EBF0E080818E7F808380818D7F808343
:1018E00088E48093B80085E48093BC0008959C014F
:1018F0002627822F82958227082E86958695802519
:10190000082E869580258770022E232F86950794B2
:101910008795302D28270694879530252827C901DB
:1019200008950895FC01A489B58912961C92129716
:1019300014961C921E9213978FEF9FEF1A969C930A
:101940008E931997138A128A108A118A178616861F
:1019500011A210A28CE090E093838283178E168EE2
:101960000895AF92BF92CF92DF92EF92FF920F93C2
:101970001F93DF93CF930F92CDB7DEB78C01611524
:10198000710581F4CE010196D80115969C938E9332
:10199000149717969C938E93169719969C938E93F3
:1019A000189707C0FC01758364836F5F7F4F77834F
:1019B0006683D80114962D913C91159716968D91BA
:1019C0009C9117972817390709F04BC0EDC2883052
:1019D0009105DCF48330910509F41CC18430910534
:1019E00064F48130910509F4E5C0823091050CF072
:1019F000FBC0892B09F4DAC022C08530910509F4B7
:101A000046C106970CF06FC122C18B30910509F4D5
:101A100022C28C30910544F48930910509F4F6C155
:101A20000A970CF00CC2BFC18D30910509F426C293
:101A30008D3091050CF4A6C00E9709F478C2D80138
:101A400014968D919C911597019615969C938E9363
:101A5000149716962D913C9117978217930709F4C6
:101A6000A3C2F801828193818730910509F466C190
:101A700088309105BCF48330910509F4D7C08430D7
:101A8000910544F48130910509F4A6C0029709F04C
:101A90005AC2B6C08530910509F40BC106970CF007
:101AA0002EC1E7C08B30910509F44EC08C309105F2
:101AB0003CF489309105D1F00A970CF0CCC17FC17C
:101AC0008D30910509F4E6C18D3091050CF466C0A6
:101AD0000E9709F038C2FFC1D8015496ED91FC91E0
:101AE0005597828381E050968C934CC0F801A4896D
:101AF000B58919968C91199719961C9219971A966F
:101B00008C931A9784819581FC01208119968D917F
:101B10009C911A97820F911D1A969C938E931997F8
:101B2000F801228933898217930749F481E0808B79
:101B30008685978514969C938E93139723C081E096
:101B4000D80151968C931EC0D8015496ED91FC910A
:101B500055971C962D913C911D97858196818217F2
:101B6000930718F481E051968C9381E0F801808B03
:101B70000488F589E02DD8011C968D919C911D97C4
:101B800094838383F801848195810196958384836E
:101B9000268137818217930709F4D5C1D80114969D
:101BA000ED91FC91159780818C3721F0F80113821B
:101BB000128235C2D80114968D919C911597019689
:101BC00015969C938E93149716962D913C9117978A
:101BD0008217930709F4BAC1D8011496ED91FC91CC
:101BE000159780818C3711F7F801848195810196D2
:101BF00095838483268137818217930709F4A9C1CD
:101C0000D8011496ED91FC91159780818C3771F66F
:101C100050961C92F8018481958101969583848366
:101C2000268137818217930709F49BC1F801A489A3
:101C3000B58911961C921E9284819581FC01808148
:101C400090E0DC90CC248C299D298D939C93D80125
:101C500014968D919C911597019615969C938E9351
:101C6000149716962D913C9117978217930709F4B4
:101C70007BC1F801A489B58984819581FC018081AB
:101C800090E0BC90AA248A299B298D939C93D8012B
:101C900014968D919C911597019615969C938E9311
:101CA000149716962D913C9117978217930709F474
:101CB0005EC1D8011496ED91FC9115978081843610
:101CC00061F0853620F4813609F070CF05CF8E366D
:101CD00009F4AFC0833709F069CFD8015496ED916C
:101CE000FC9155978283F8018481958101969583B3
:101CF0008483268137818217930709F43BC1D80179
:101D000091961C921E9290971D961C921E921C9763
:101D10001496ED91FC91159780811C968C931C97DD
:101D20001D961C92F8018481958101969583848388
:101D3000268137818217930709F41FC1D8011C96A9
:101D4000FC901C97EE241D96FC92EE921C97149624
:101D5000ED91FC91159780819701280F311D1D96FB
:101D60003C932E931C975496ED91FC915597858149
:101D700096818217930718F481E051968C93F801AD
:101D8000868D978D0B96FC01EE0FFF1FE00FF11F64
:101D900028E030E0318320830A97D8015F969C9336
:101DA0008E935E976BC0F80184819581019695832F
:101DB0008483268137818217930709F4E1C0D80113
:101DC00052968D919C9153970E94910CF801938BA0
:101DD000828BA489B5891A961C921E92199719961E
:101DE0008C91199719961C9219971A968C931A9799
:101DF00084819581FC01208119968D919C911A977F
:101E0000820F911D1A969C938E931997D801149660
:101E10008D919C911597019615969C938E9314978E
:101E200016962D913C9117978217930709F05ECE75
:101E3000AAC0D8015496ED91FC9155978283F80180
:101E400084819581019695838483268137818217C9
:101E5000930709F49BC0D80114968D919C91159716
:101E6000019615969C938E93149716962D913C91FE
:101E700017978217930709F067CE8BC0F80184810A
:101E800095810196958384832681378182179307F4
:101E900009F482C0D8011F961C921E921E97539679
:101EA0001C921E9252971C968D919C911D97149690
:101EB000ED91FC911597892B59F431971596FC9368
:101EC000EE9314975E96ED91FC915F97319790C0D9
:101ED00080E090E009C0D8011496ED91FC9115972F
:101EE00052968D919C91539760810E94770CF801D6
:101EF000938B828B268537850488F589E02D0780B2
:101F0000F085E02DE20FF31FD80114968D919C917E
:101F10001597DC018C9180832F5F3F4FF801378745
:101F20002687848595852817390709F45CC0F80150
:101F300084819581019695838483268137818217D8
:101F4000930749F62CC08CE090E005C081E090E05A
:101F500028C082E090E0D80113969C938E9312974C
:101F600023C083E090E01DC084E090E0F4CF85E0E2
:101F700090E017C086E090E0EECF87E090E011C0DF
:101F800088E090E0E8CF89E090E00BC08AE090E044
:101F9000E2CF8BE090E005C08DE090E0DCCF8EE0FA
:101FA00090E0F80193838283D80114962D913C919F
:101FB000159718968D919C9119972817390779F5DF
:101FC00012968D919C9113970D9749F5F8011786FC
:101FD0001686138A128A84859585892B01F52150EE
:101FE000304035832483068CF78DE02D3197D8015E
:101FF0005F96FC93EE935E973B96EE0FFF1FE00F0C
:10200000F11F8081918113969C938E931297F80112
:10201000828193818730910509F0D9CC83CE0F90CE
:10202000CF91DF911F910F91FF90EF90DF90CF90B4
:10203000BF90AF9008951F920F920FB60F92112488
:102040002F933F938F939F93AF93BF9380911706E6
:1020500090911806A0911906B0911A0630911B06AE
:102060000196A11DB11D232F2D5F2D3720F02D5777
:102070000196A11DB11D20931B0680931706909316
:102080001806A0931906B0931A0680911306909132
:102090001406A0911506B09116060196A11DB11D5A
:1020A0008093130690931406A0931506B09316061A
:1020B000BF91AF919F918F913F912F910F900FBE44
:1020C0000F901F9018958FB7F894209117063091B4
:1020D00018064091190650911A068FBFB901CA011E
:1020E00008959FB7F89420911306309114064091FB
:1020F00015065091160686B5A89B06C08F3F21F0A5
:102100002F5F3F4F4F4F5F4F9FBF542F432F322FB3
:102110002227280F311D411D511D82E0220F331F40
:10212000441F551F8A95D1F7B901CA0108959B0133
:10213000AC017FB7F8948091130690911406A0919A
:102140001506B091160666B5A89B05C06F3F19F03D
:102150000196A11DB11D7FBFBA2FA92F982F8827E7
:10216000860F911DA11DB11D62E0880F991FAA1F46
:10217000BB1F6A95D1F7BC012DC0FFB7F8948091C1
:10218000130690911406A0911506B0911606E6B5B7
:10219000A89B05C0EF3F19F00196A11DB11DFFBF1F
:1021A000BA2FA92F982F88278E0F911DA11DB11D21
:1021B000E2E0880F991FAA1FBB1FEA95D1F7861B83
:1021C000970B885E9340C8F2215030404040504009
:1021D00068517C4F211531054105510571F608956F
:1021E000019739F0880F991F880F991F029701975F
:1021F000F1F70895789484B5826084BD84B58160D8
:1022000084BD85B5826085BD85B5816085BDEEE6FE
:10221000F0E0808181608083E1E8F0E010828081DD
:1022200082608083808181608083E0E8F0E080814B
:1022300081608083E1EBF0E0808184608083E0EB6B
:10224000F0E0808181608083E1E9F0E0808182605C
:102250008083808181608083E0E9F0E0808181601B
:102260008083E1EAF0E08081826080838081816008
:102270008083E0EAF0E0808181608083E1E2F1E048
:10228000808182608083808181608083E0E2F1E0F0
:10229000808181608083EAE7F0E0808184608083D0
:1022A000808182608083808181608083808180687A
:1022B00080831092C1000895382F863308F036537A
:1022C00020917B00832F86958695869590E081707E
:1022D000907043E0880F991F4A95E1F7277F282BDC
:1022E00020937B003770809104028295880F880FBD
:1022F000807C832B80937C0080917A008064809323
:102300007A0080917A0086FDFCCF20917800409180
:102310007900942F80E030E0282B392BC9010895F3
:102320001F93CF93DF93182FEB0161E00E9470128F
:10233000209709F4CAC0CF3FD10509F4C9C0E12FE5
:10234000F0E0E35EFD4F8491893009F466C08A3085
:10235000B0F48430F1F1853040F4823059F18330AB
:1023600070F5813009F0AEC020C0873009F443C059
:10237000883008F048C0863009F0A4C034C08D30E1
:1023800009F478C08E3038F48B3009F45AC08C30A0
:1023900008F066C04CC0803109F480C0813109F476
:1023A00087C08F3009F08EC06FC084B5806884BD4F
:1023B000C7BD92C084B5806284BDC8BD8DC0809108
:1023C0008000806880938000D0938900C09388004B
:1023D00083C080918000806280938000D0938B00C6
:1023E000C0938A0079C08091B00080688093B0006B
:1023F000C093B30071C08091B00080628093B00040
:10240000C093B40069C08091900080688093900070
:10241000D0939900C09398005FC080919000806233
:1024200080939000D0939B00C0939A0055C08091F8
:102430009000886080939000D0939D00C0939C0092
:102440004BC08091A00080688093A0008091A00084
:102450008F7B8093A000D093A900C093A8003CC0BC
:102460008091A00080628093A000D093AB00C093C5
:10247000AA0032C08091A00088608093A000D09311
:10248000AD00C093AC0028C080912001806880938B
:102490002001D0932901C09328011EC08091200102
:1024A000806280932001D0932B01C0932A0114C035
:1024B00080912001886080932001D0932D01C093EA
:1024C0002C010AC0C038D1051CF4812F60E002C085
:1024D000812F61E00E942313DF91CF911F91089516
:1024E000CF93DF93482F50E0CA0189529E4FFC01E1
:1024F00034914F565E4FFA018491882369F190E040
:10250000880F991FFC01ED5BFE4FA591B491FC0172
:10251000E35AFE4FC591D491662351F42FB7F89436
:102520008C91932F909589238C93888189230BC05C
:10253000623061F42FB7F8948C91932F9095892392
:102540008C938881832B88832FBF06C09FB7F89414
:102550008C91832B8C939FBFDF91CF91089589300D
:1025600009F449C08A30A0F4843051F1853040F438
:10257000823079F1833000F5813009F063C026C0E4
:10258000873079F1883098F5863009F05BC025C036
:102590008D3009F442C08E3028F48B30B1F18C308C
:1025A000C0F52DC0803109F442C0813109F445C025
:1025B0008F3009F047C037C0809180008F7703C00B
:1025C000809180008F7D80938000089584B58F77FF
:1025D00002C084B58F7D84BD08958091B0008F774F
:1025E00003C08091B0008F7D8093B00008958091EA
:1025F00090008F7707C0809190008F7D03C08091FD
:102600009000877F8093900008958091A0008F773D
:1026100007C08091A0008F7D03C08091A000877FBC
:102620008093A0000895809120018F7703C080914E
:1026300020018F7D80932001089580912001877F64
:10264000809320010895FF920F931F93F62E482F39
:1026500050E0CA01835E9D4FFC012491CA0189525A
:102660009E4FFC0114914F565E4FFA0104910023D6
:10267000C9F0222319F0822F0E94AF12E02FF0E060
:10268000EE0FFF1FE35AFE4FA591B4919FB7F89448
:10269000FF2021F48C911095812302C08C91812B15
:1026A0008C939FBF1F910F91FF9008950F931F93DD
:1026B000482F50E0CA01835E9D4FFC012491CA015E
:1026C00089529E4FFC0104914F565E4FFA011491BE
:1026D000112319F420E030E015C0222319F0822FD5
:1026E0000E94AF12812F90E0880F991F89589E4F4A
:1026F000FC01A591B4918C9120E030E0802311F091
:1027000021E030E0C9011F910F9108951F920F92AF
:102710000FB60F920BB60F9211242F933F934F9346
:102720008F939F93EF93FF938091C00082FD1DC014
:102730004091C60020915C0630915D062F5F3F4FAF
:102740002F73307080915E0690915F0628173907CD
:1027500071F0E0915C06F0915D06E45EF94F408314
:1027600030935D0620935C0602C08091C600FF9105
:10277000EF919F918F914F913F912F910F900BBEB1
:102780000F900FBE0F901F90189508951F920F92F3
:102790000FB60F920BB60F9211242F933F934F93C6
:1027A0008F939F93EF93FF938091C80082FD1DC08C
:1027B0004091CE002091E4063091E5062F5F3F4F17
:1027C0002F7330708091E6069091E706281739073D
:1027D00071F0E091E406F091E506EC55F94F408385
:1027E0003093E5062093E40602C08091CE00FF916D
:1027F000EF919F918F914F913F912F910F900BBE31
:102800000F900FBE0F901F90189508951F920F9272
:102810000FB60F920BB60F9211242F933F934F9345
:102820008F939F93EF93FF938091D00082FD1DC003
:102830004091D60020916C0730916D072F5F3F4F7C
:102840002F73307080916E0790916F0728173907AA
:1028500071F0E0916C07F0916D07E45DF84F4083F3
:1028600030936D0720936C0702C08091D600FF91D2
:10287000EF919F918F914F913F912F910F900BBEB0
:102880000F900FBE0F901F90189508951F920F92F2
:102890000FB60F920BB60F9211242F933F934F93C5
:1028A0008F939F93EF93FF938091300182FD1DC022
:1028B000409136012091F4073091F5072F5F3F4F8B
:1028C0002F7330708091F6079091F707281739071A
:1028D00071F0E091F407F091F507EC54F84F408364
:1028E0003093F5072093F40702C080913601FF91E1
:1028F000EF919F918F914F913F912F910F900BBE30
:102900000F900FBE0F901F901895E0914808F0911E
:102910004908E05CFF4F8191919120813181821BB8
:10292000930B8F739070892B11F00E94AB08E0918C
:102930006A08F0916B08E05CFF4F819191912081D2
:102940003181821B930B8F739070892B11F00E9441
:10295000C513E0918C08F0918D08E05CFF4F8191E8
:10296000919120813181821B930B8F739070892B01
:1029700011F00E940514E091AE08F091AF08E05C00
:10298000FF4F8191919120813181821B930B8F7335
:102990009070892B11F00E94451408951F920F9298
:1029A0000FB60F920BB60F9211242F933F938F9374
:1029B0009F93EF93FF932091A0063091A106809101
:1029C000A2069091A3062817390731F48091C1001F
:1029D0008F7D8093C10014C0E091A206F091A30600
:1029E000E05AF94F20818091A2069091A3060196AA
:1029F0008F7390709093A3068093A2062093C600D5
:102A0000FF91EF919F918F913F912F910F900BBE6E
:102A10000F900FBE0F901F9018951F920F920FB638
:102A20000F920BB60F9211242F933F938F939F9386
:102A3000EF93FF93209128073091290780912A076F
:102A400090912B072817390731F48091C9008F7DA9
:102A50008093C90014C0E0912A07F0912B07E85138
:102A6000F94F208180912A0790912B0701968F734F
:102A7000907090932B0780932A072093CE00FF91AC
:102A8000EF919F918F913F912F910F900BBE0F90DF
:102A90000FBE0F901F9018951F920F920FB60F92B6
:102AA0000BB60F9211242F933F938F939F93EF9325
:102AB000FF932091B0073091B1078091B2079091B8
:102AC000B3072817390731F48091D1008F7D8093A7
:102AD000D10014C0E091B207F091B307E059F84F6C
:102AE00020818091B2079091B30701968F73907007
:102AF0009093B3078093B2072093D600FF91EF9194
:102B00009F918F913F912F910F900BBE0F900FBE11
:102B10000F901F9018951F920F920FB60F920BB641
:102B20000F9211242F933F938F939F93EF93FF93D3
:102B3000209138083091390880913A0890913B08EB
:102B40002817390731F4809131018F7D809331014D
:102B500014C0E0913A08F0913B08E850F84F20810A
:102B600080913A0890913B0801968F7390709093F2
:102B70003B0880933A0820933601FF91EF919F9193
:102B80008F913F912F910F900BBE0F900FBE0F9022
:102B90001F901895AF92BF92DF92EF92FF920F9322
:102BA0001F93CF93DF93EC017A018B01DD2440303A
:102BB00081EE580780E0680780E0780711F0DD2497
:102BC000D39491E0A92EB12CEC89FD89DD2069F028
:102BD000C50108A002C0880F991F0A94E2F78083FC
:102BE00060E079E08DE390E005C0108260E874E871
:102BF0008EE190E0A80197010E945C1821503040BE
:102C000040405040569547953795279580E12030B4
:102C1000380720F0DD2011F0DD24D6CFE889F989CE
:102C20003083EA89FB89208319A2EE89FF894081DC
:102C300021E030E0C9010C8C02C0880F991F0A9472
:102C4000E2F7482B4083EE89FF894081C9010D8C52
:102C500002C0880F991F0A94E2F7482B4083EE893F
:102C6000FF894081C9010E8C02C0880F991F0A9408
:102C7000E2F7482B4083EE89FF8980810F8C02C0E8
:102C8000220F331F0A94E2F7209528232083DF9137
:102C9000CF911F910F91FF90EF90DF90BF90AF9079
:102CA0000895DC011C96ED91FC911D97E05CFF4FAF
:102CB0002191319180819181281B390B2F733070C4
:102CC000C9010895DC011C96ED91FC911D97E05C13
:102CD000FF4F20813181E054F040DF01AE5BBF4FF8
:102CE0008D919C9111972817390719F42FEF3FEF19
:102CF00007C08D919C91E80FF91F8081282F30E04B
:102D0000C9010895DC011C96ED91FC911D97E05CD2
:102D1000FF4F20813181E054F040DF01AE5BBF4FB7
:102D20008D919C9111972817390719F42FEF3FEFD8
:102D300010C08D919C911197E80FF91F20818D9102
:102D40009C91119701968F73907011969C938E931E
:102D500030E0C9010895DC0191968C919197882308
:102D600039F05496ED91FC915597808186FFF9CF0B
:102D700091961C920895CF93DF93EC01EE85FF8529
:102D8000E05CFF4F20813181E054F0402F5F3F4FE6
:102D90002F733070DF01AE5BBF4F8D919C91119707
:102DA00028173907D1F3E05CFF4F80819181E0540F
:102DB000F040E80FF91F6083EE85FF85E05CFF4F70
:102DC00031832083EE89FF89208181E090E00F8CA0
:102DD00002C0880F991F0A94E2F7282B208381E014
:102DE00089A3EC89FD8980818064808381E090E003
:102DF000DF91CF9108951F9310923F0810923E08E3
:102E000028EE33E040E050E0209340083093410842
:102E1000409342085093430865E572E070933D0883
:102E200060933C088CE196E09093490880934808B1
:102E300080E696E090934B0880934A0885EC90E0FA
:102E400090934D0880934C0884EC90E090934F0849
:102E500080934E0880EC90E0909351088093500846
:102E600081EC90E0909353088093520882EC90E0BC
:102E7000909355088093540886EC90E090935708FF
:102E80008093560814E010935808B3E0B0935908A3
:102E9000A7E0A0935A08F5E0F0935B08E1E0E09327
:102EA0005C081092610810926008209362083093C9
:102EB0006308409364085093650870935F086093BB
:102EC0005E0884EA96E090936B0880936A0888EE27
:102ED00096E090936D0880936C088DEC90E0909351
:102EE0006F0880936E088CEC90E09093710880934B
:102EF000700888EC90E0909373088093720889ECD6
:102F000090E090937508809374088AEC90E0909319
:102F10007708809376088EEC90E090937908809300
:102F2000780810937A08B0937B08A0937C08F093FC
:102F30007D08E0937E081092830810928208209307
:102F400084083093850840938608509387087093CF
:102F50008108609380088CE297E090938D088093BD
:102F60008C0880E797E090938F0880938E0885ED1A
:102F700090E0909391088093900884ED90E0909376
:102F800093088093920880ED90E090939508809349
:102F9000940881ED90E0909397088093960882EDD5
:102FA00090E0909399088093980886ED90E0909334
:102FB0009B0880939A0810939C08B0939D08A09357
:102FC0009E08F0939F08E093A0081092A508109225
:102FD000A4082093A6083093A7084093A80850930C
:102FE000A9087093A3086093A20884EB97E09093DC
:102FF000AF088093AE0888EF97E09093B108809374
:10300000B00885E391E09093B3088093B20884E31D
:1030100091E09093B5088093B40880E391E0909399
:10302000B7088093B60881E391E09093B908809344
:10303000B80882E391E09093BB088093BA0886E3D6
:1030400091E09093BD088093BC081093BE08B093A4
:10305000BF08A093C008F093C108E093C2081F9175
:1030600008950895CF92DF92EF92FF920F931F93EE
:10307000CF93DF937C016B018A01C0E0D0E00FC0E9
:10308000D6016D916D01D701ED91FC910190F08118
:10309000E02DC7011995C80FD91F01501040011527
:1030A000110571F7CE01DF91CF911F910F91FF9024
:1030B000EF90DF90CF900895A1E21A2EAA1BBB1BC0
:1030C000FD010DC0AA1FBB1FEE1FFF1FA217B307F4
:1030D000E407F50720F0A21BB30BE40BF50B661F0A
:1030E000771F881F991F1A9469F7609570958095CE
:1030F00090959B01AC01BD01CF010895EE0FFF1F1C
:0C3100000590F491E02D1994F894FFCF95
:10310C007C7C7C0001000000007C01FEFF0000784C
:10311C0001FCFF00007401000000003118000000E9
:10312C00003118000000003118000000009A0194D2
:10313C0002000000009A01311800000000A001C636
:10314C00020000000086095509D808E108F60807B6
:10315C000900000000BB163218511682166216AB1D
:02316C0016004B
:00000001FF
