:100000000C9485010C94B6010C94B6010C94B601C5
:100010000C94B6010C94B6010C94B6010C94B60184
:100020000C94B6010C94B6010C94B6010C94B60174
:100030000C94B6010C94B6010C94B6010C94B60164
:100040000C94B6010C94B6010C94B6010C94B60154
:100050000C94B6010C94B6010C94B6010C94520A9F
:100060000C94B6010C94AD0E0C94E30E0C94B601F6
:100070000C94B6010C94B6010C94B6010C94B60124
:100080000C94B6010C94B6010C94B6010C94B60114
:100090000C94B6010C94B6010C94B6010C94ED05C9
:1000A0000C94B6010C94B6010C94B6010C94B601F4
:1000B0000C94B6010C94B6010C94B6010C94B601E4
:1000C0000C94B6010C94B6010C94B6010C94B601D4
:1000D0000C94B6010C94B6010C94B6010C94B601C4
:1000E0000C94B601640878088E08AA08CE08FC08AB
:1000F0001B095209F9078C0923084608AD09C709ED
:100100004E0852086C0882089E08BC08F0080F09C7
:10011000370A6B0980098C093A08A109D209AB0B8F
:10012000B00BB50BBF0BC90B420CD30BDB0BE30BB6
:10013000ED0BF70B010C100C1A0C420C240C2E0CBE
:10014000380C640C670C560C5A0C600C9E0C6B0C33
:100150006F0C750C790C7D0C830C870C8B0C9E0C32
:10016000910C950C990C687474703A2F2F67697410
:100170006875622E636F6D2F776865656C65722D8B
:100180006D6963726F666C7569646963732F7465FA
:10019000656E73792D6D696E696D616C2D7270631A
:1001A0002E67697400302E312E706F7374313400F5
:1001B000576865656C6572204C6162007465656E98
:1001C00073792D6D696E696D616C2D727063007449
:1001D00065656E73792D6D696E696D616C2D7270D8
:1001E00063000000000A0B02090C0D0E080703044F
:1001F00001000000000000000000000000000000FE
:1002000000000000000000000000000000000012DC
:1002100011100000000000000000000000000000BD
:10022000000000000000000000010210202008086B
:100230001020401020408002010201080402010148
:100240000204081020408080402010080402018031
:100250000402018040201008040201080402010188
:10026000020408102040800102040810204080058C
:10027000050505070508080808020202020A0A081F
:100280000804040404010101010101010103030345
:100290000303030303040707070C0C0C0C0C0C0CE2
:1002A0000C0202020206060606060606060B0B0BE9
:1002B0000B0B0B0B0B000020002300260029002C49
:1002C000002F0032000001000003010601090100B7
:1002D000002200250028002B002E003100340002EF
:1002E000010000050108010B010000210024002786
:1002F000002A002D00300033000101000004010736
:10030000010A01007B04C005170F11241FBECFEFA7
:10031000D1E2DEBFCDBF00E00CBF12E0A0E0B2E052
:10032000ECE8FFE100E00BBF02C007900D92A4349F
:10033000B107D9F725E0A4E4B2E001C01D92A436CC
:10034000B207E1F713E0CAE0D3E000E006C022976D
:100350000109FE010BBF0E94AB0FC430D10780E042
:100360000807A9F70E946C040C94C40F0C940000B9
:1003700040E850E060E070E0BC016B5C7E4FCB0178
:10038000BA010895FC01828193810C9440070F9378
:100390001F93CF93DF938C01EB01BC01CE010E9430
:1003A000B40FC8010E94BB0FAC01BE01CB01BA0162
:1003B000DF91CF911F910F910895089586E492E007
:1003C0000C941E07FC01E15DFE4F0190F081E02DD1
:1003D0002189222359F0835D9E4FDC01ED91FC9130
:1003E0000190F081E02D199580E0089580890895AD
:1003F0000F931F93CF93DF93FC01DB01E9018D91F4
:100400009C9111978A30910509F4F3C0B0F58430BE
:10041000910509F4B6C0D0F48130910509F493C078
:1004200008F484C08230910509F49EC0039709F056
:100430004DC180819181DC01ED91FC910190F081B1
:10044000E02D1995BC0180EB91E089C087309105C2
:1004500009F4B1C050F48530910509F49FC00697A6
:1004600009F034C10E94A80AA8C08830910509F497
:10047000A9C0099709F4B0C029C18031910509F4D8
:10048000E0C020F58D30910509F4CEC078F48B30B2
:10049000910509F4C1C00C9709F018C112968C910E
:1004A0000E940E0D888321E030E017C18E30910547
:1004B00009F4C2C00F9709F009C113966C91139704
:1004C00070E012968C910E94850B05C18F3F9105BB
:1004D00009F4E7C0E8F48131910509F4C8C04297F6
:1004E00009F0F4C09B012E5F3F4F14968D919C91B3
:1004F0001597820F931F15969C938E9314971296BF
:100500008D919D910D90BC91A02D9C01ED01E5C0B8
:100510008E3F21E0920709F4CFC08F3F914009F050
:10052000D5C0808191810E941E07D5C080819181B4
:10053000DC01ED91FC910190F081E02D1995BC0159
:1005400082EE91E00CC080819181DC01ED91FC9103
:100550000190F081E02D1995BC018FEC91E00E9493
:10056000C7019B01EC01B9C080819181DC01ED9153
:10057000FC910190F081E02D1995BC018CEB91E08C
:10058000EECF80819181DC01ED91FC910190F081B1
:10059000E02D1995BC0185EA91E0E1CF8081918140
:1005A000DC01ED91FC910190F081E02D1995BC01E9
:1005B00086E691E0D4CF0E949C0A688379838A837F
:1005C0009B8377C012968D919C911397009709F4A5
:1005D00082C00E94F30A7FC012966D917C9113979E
:1005E0006115710509F477C080E090E00E94CB0AA4
:1005F00072C020916005309161058DB79EB72115BD
:10060000310519F48456954002C0821B930BAA272A
:1006100097FDA095BA2F49C013966C911397129627
:100620008C910E949F0C57C013966C911397129651
:100630008C910E94D80C4FC012968C910E94600B36
:1006400011C09B012E5F3F4F14968D919C91159781
:10065000820F931F15969C938E93149712968D91EB
:100660009C9113979983888322E030E036C09B01E8
:100670002E5F3F4F14968D919C911597820F931F7B
:1006800015969C938E93149712968D919D910D9033
:10069000BC91A02DED019C01220F331F220F331FAF
:1006A0001CC089EF90E0A0E0B0E088839983AA8322
:1006B000BB8324E030E011C080819181DC01ED91A9
:1006C000FC910190F081E02D19954BCFC0E0D0E076
:1006D0002FEF3FEF02C020E030E0B901CE01DF9103
:1006E000CF911F910F9108950F931F93CF93DF9395
:1006F000EC018B01E881F9816F5F7F4F0280F3810C
:10070000E02D41E050E01995E881F9810280F38104
:10071000E02D41E050E0B801CE01DF91CF911F9173
:100720000F911994EF92FF920F931F93CF93DF9342
:10073000CDB7DEB762970FB6F894DEBF0FBECDBF60
:100740007C012A8B1A8309832B835F834E837987ED
:1007500068875D834C831B861A8600E010E02C813D
:100760003D818A859B850217130760F4E885F9852A
:10077000E00FF11F60810E9427079B878A870F5F28
:100780001F4FEDCF0E943F079B878A878CE79CE72E
:10079000ACE7B0E08C879D87AE87BF87D7018D918E
:1007A0009C91DC01ED91FC910280F381E02D43E00E
:1007B00050E0BE01645F7F4F1995BE016F5F7F4FB0
:1007C000F701808191810E947403D7018D919C91E2
:1007D000DC01ED91FC910280F381E02D41E050E0DD
:1007E000BE016E5E7F4F19958B81843611F0833781
:1007F00029F58C819D81998B888BBE01605F7F4F2D
:10080000D7018D919C910E9474034C815D814115AB
:10081000510561F0F70180819181DC01ED91FC913E
:10082000688579850280F381E02D1995BE01665FA8
:100830007F4FF701808191810E94740362960FB609
:10084000F894DEBF0FBECDBFDF91CF911F910F9106
:10085000FF90EF9008950F931F9388E492E00E9419
:10086000E2018823B1F188E492E00E94E20188234A
:1008700081F1E0914B03F0914C0380914A0384365F
:1008800011F4309799F480E090E020E030E0A90185
:10089000BC0100E010E024E689E793E00E949203A7
:1008A00085E793E01F910F910C94C20180914F0353
:1008B000909150039C0100914D0310914E03AF01A4
:1008C000BC0184E492E00E94F8019B010097F9F6D4
:1008D000DCCF1F910F9108950E94FE0A0E94DD0156
:1008E0000E94DE01C6E6DDE00E942B042097E1F3C2
:1008F0000E94660DF9CFEF92FF920F931F93CF9353
:10090000DF93C6E4D2E08BE092E099838883E8E449
:10091000F3E01182108210924A0310924C0310925D
:100920004B038FEF9FEF909352038093510380E02E
:1009300091E090934E0380934D0388E492E090936E
:10094000500380934F0393E5E92E93E0F92ED701EE
:100950001C92109254031092600310925F03109245
:100960006203109261031092660310926503109265
:10097000740310927303F0936803E0936703C70155
:100980000E94400705E713E081E192E0F8019183BE
:100990008083F0927803E0927703C8010E94C2013D
:1009A00089E192E0D8018D939C9383EC94E090933D
:1009B0007A038093790381E292E099838883D093CC
:1009C0004502C0934402DF91CF911F910F91FF9098
:1009D000EF900895CF93DF93E0917503F091760344
:1009E000C281D38183EC94E00E94390DBC0185E77C
:1009F00093E0FE01DF91CF911994CF92DF92EF92B5
:100A0000FF920F931F93CF93DF931F92CDB7DEB763
:100A10007C016B0100E010E00C151D0584F483ECF3
:100A200094E00E94520D8983BE016F5F7F4FF701F2
:100A3000828193810E945F070F5F1F4FEDCF0F9060
:100A4000DF91CF911F910F91FF90EF90DF90CF90AA
:100A5000089580912A0490E020912B04821B910933
:100A6000089520912B0480912A04281750F4E22F36
:100A7000F0E0E45DFB4F808190E02F5F20932B043A
:100A800008958FEF9FEF0895E0912B0480912A0441
:100A9000E81730F4F0E0E45DFB4F808190E00895CA
:100AA0008FEF9FEF08950895CF92DF92EF92FF921C
:100AB0000F931F93CF93DF937C01CB018A01209189
:100AC0000704222389F0EB016B01C40ED51ECC155F
:100AD000DD0569F06991D701ED91FC910190F081FC
:100AE000E02DC7011995F3CF642F0E94C405C801FA
:100AF000DF91CF911F910F91FF90EF90DF90CF90FA
:100B00000895CF93DF931F92CDB7DEB7698320910D
:100B100007042223D1F020910804203240F021E084
:100B200030E0FC013383228380E090E015C08091A7
:100B30000904E82FF0E0E65FFB4F998190838F5F17
:100B4000809309048093080405C061E0CE010196FA
:100B50000E94C40581E090E00F90DF91CF9108954D
:100B6000FC011382128248EE53E060E070E044839F
:100B700055836683778387E292E09183808308952B
:100B80008BEF93E00C94B005613298F42091B90496
:100B9000243089F460936E04FC0180E794E0DC016A
:100BA0002A2F281B261718F421912D93F9CF80E0C6
:100BB000089581E0089582E0089585ED8093BC005A
:100BC0008091BC0084FDFCCF1092B904089585EC9F
:100BD0008093BC001092B90408951F920F920FB633
:100BE0000F9211240BB60F922F933F934F935F9365
:100BF0006F937F938F939F93AF93BF93EF93FF93E5
:100C00008091B900887F803609F49CC068F58832ED
:100C100009F45BC090F4803109F454C038F488239F
:100C200009F4F5C0883009F44DC0F5C0883109F4E5
:100C30004CC0803209F45DC0EEC0803409F468C055
:100C400048F4803309F455C0883309F0E4C0809338
:100C50004C04A8C0803509F44FC0883509F45DC044
:100C6000883409F0D8C0D5C0883909F4C6C0A8F4C2
:100C7000883709F467C038F4883609F463C08037D0
:100C800009F460C0C8C0883809F4B7C0803909F4D5
:100C90005FC0803809F0BFC05BC0803B09F485C0ED
:100CA00038F4803A09F466C0883A09F47EC0B3C0CB
:100CB000803C09F4A6C0883C09F4A3C0883B09F431
:100CC00089C0A9C08091B80410C09091910480910E
:100CD0009004981770F5E091910481E08E0F809355
:100CE0009104F0E0EE56FB4F80818093BB0085ECD1
:100CF00085C080934C048DC0E091910481E08E0FFB
:100D0000809391048091BB00F0E0EE56FB4F80830E
:100D100090919104809190046DC0E091910481E0E4
:100D20008E0F809391048091BB00F0E0EE56FB4F54
:100D300080838091B70481116CC081E08093B604F8
:100D400084EA60C083E08093B90410924D04CFCF51
:100D500080914D04803208F050C0E0914D0481E054
:100D60008E0F80934D048091BB00F0E0E25BFB4F5F
:100D70008083BDCF80914D04803230F4E0914D04EA
:100D8000F0E0E25BFB4F10820E94DD0560914D04B4
:100D900070E0E091B204F091B3048EE494E0199510
:100DA00010924D040E94E70536C084E08093B90498
:100DB00010926F0410926E04E091B404F091B504A7
:100DC000199580916E04811105C081E080936E04B5
:100DD00010927004E0916F0481E08E0F80936F0495
:100DE000F0E0E059FB4F80818093BB0090916F044D
:100DF00080916E04981708F47ACF85E88093BC0040
:100E00000AC085EC8093BC001092B90404C0109213
:100E10004C040E94DD05FF91EF91BF91AF919F912E
:100E20008F917F916F915F914F913F912F910F9093
:100E30000BBE0F900FBE0F901F90189526E040E05C
:100E400052EC61E070E083EC94E00C944B0E86274A
:100E5000682F62956827062E669566956025062E92
:100E6000669560256770082E892F669507946795AB
:100E7000902D8627069467959025862708950895D6
:100E8000FC01A489B58912961C92129714961C92A3
:100E90001E9213978FEF9FEF1A969C938E9319973C
:100EA000138A128A108A118A1786168611A210A236
:100EB0008CE090E093838283178E168E0895AF9214
:100EC000BF92CF92DF92EF92FF920F931F93CF9337
:100ED000DF931F92CDB7DEB78C016115710581F4E8
:100EE000CE010196D80115969C938E931497179670
:100EF0009C938E93169719969C938E93189707C080
:100F0000FC01758364836F5F7F4F77836683D801AD
:100F100014962D913C91159716968D919C9117974B
:100F20002817390709F057C071C2608180E090E04E
:100F30000E942707F801938B828B0488F589E02DA6
:100F40000780F085E02DD8011E968D919C911F970A
:100F50009C012F5F3F4F1F963C932E931E97149634
:100F60002D913C911597D9012C91E80FF91F208301
:100F7000F80126853785848595852817390709F076
:100F800011C2068CF78DE02DCF010197D8015F9635
:100F90009C938E935E973A96EE0FFF1FE00FF11F22
:100FA0008081918113969C938E931297D80112960B
:100FB000ED91FC911397EF30F10508F454C2F8015C
:100FC0008481958101969583848326813781821758
:100FD000930709F41BC2D8011296ED91FC91139767
:100FE0003197EE30F10508F0EBC1EE58FF4F0C944D
:100FF000A50FD8015496ED91FC915597F184E12C01
:10100000F286E18614968D919C911597DC018C9166
:101010009701280F311DC90132872187D8015296C7
:101020002D913C9153978217930749F481E0509694
:101030008C9350971E968D919C911F9719C081E0BB
:10104000F801818B17C0D8011C968D919C911D973A
:101050005496ED91FC9155972581368128173907D3
:1010600018F421E051962C9321E0D80150962C934E
:1010700094838383F8018481958101969583848389
:10108000268137818217930709F49AC1D8011496F3
:10109000ED91FC91159780818C3721F0F801138236
:1010A0001282F4C1D80114968D919C9115970196E6
:1010B00015969C938E93149716962D913C911797A5
:1010C0008217930709F47FC1D8011496ED91FC9122
:1010D000159780818C3711F7F801848195810196ED
:1010E00095838483268137818217930709F46EC123
:1010F000D8011496ED91FC91159780818C3771F68B
:1011000050961C92F8018481958101969583848381
:10111000268137818217930709F460C1D80154965C
:10112000ED91FC9155971182108214968D919C91AE
:101130001597DC018C9190E091838083F801848184
:101140009581019695838483268137818217930741
:1011500009F447C1D8015496ED91FC915597149626
:101160008D919C911597DC018C91B080A12C9501FB
:10117000282BC90191838083D80114968D919C916D
:101180001597019615969C938E93149716962D910C
:101190003C9117978217930709F426C1D80114963A
:1011A000ED91FC91159780818436A1F068F4813629
:1011B00009F074CFD8015496ED91FC915597828334
:1011C00081E050968C9356CF8E3609F493C08337C6
:1011D00009F064CFD8015496ED91FC915597828324
:1011E000F8018481958101969583848326813781D6
:1011F0008217930709F4FBC0D80191961C921E92A6
:1012000090971D961C921E921C971496ED91FC913E
:101210001597808190E01D969C938E931C97F80102
:1012200084819581019695838483268137818217F5
:10123000930709F4DFC0D8011C96DC901C97C12CE1
:101240001D96DC92CE921C971496ED91FC91159709
:101250008081F601E80FF11DCF011D96FC93EE93FE
:101260001C975496ED91FC9155972581368128174E
:10127000390718F481E051968C93D8015E96ED9170
:10128000FC915F97CF0101965F969C938E935E973A
:101290003B96EE0FFF1FE00FF11F88E090E0918377
:1012A00080834FC0D80152968D919C9153970E9494
:1012B0003F07F801938B828B0488F589E02D128615
:1012C0001186D80114968D919C911597DC018C9113
:1012D00090E092878187F8018481958101969583BA
:1012E0008483268137818217930709F082CE89E0B3
:1012F00090E089C0D8015496ED91FC915597828376
:10130000F8018481958101969583848326813781B4
:101310008217930709F471C0D80114968D919C919E
:101320001597019615969C938E93149716962D916A
:101330003C9117978217930709F085CE8BE090E0D8
:1013400062C0F8018481958101969583848326810A
:1013500037818217930709F453C0D8011F961C9256
:101360001E921E9753961C921E9252971C968D9118
:101370009C911D971496ED91FC911597892B09F07E
:10138000D4CD31971596FC93EE93149765C0D80190
:101390001496ED91FC911597608152968D919C91D8
:1013A0005397C6CDF80184819581019695838483F6
:1013B000268137818217930751F78EE090E023C092
:1013C0008CE090E005C081E090E01DC082E090E0FC
:1013D000D80113969C938E93129718C083E090E0E7
:1013E00012C084E090E0F4CF85E090E00CC086E08D
:1013F00090E0EECF87E090E006C08AE090E0E8CF92
:101400008DE090E0E5CFF80193838283D8011496B4
:101410008D919C91159718962D913C911997821753
:101420009307A1F512962D913C9113972D3031051C
:1014300069F51F961C921E921E9753961C921E923F
:1014400052971C962D913C911D97232BF9F40197EF
:1014500015969C938E9314975E96ED91FC915F97F1
:10146000CF01019794CDE058FF4F0C94A50FF801E0
:1014700084819581019695838483268137818217A3
:10148000930709F00FCF88E090E0A2CF0F90DF9193
:10149000CF911F910F91FF90EF90DF90CF90BF9071
:1014A000AF9008951F920F920FB60F9211242F93B1
:1014B0003F938F939F93AF93BF938091BB04909181
:1014C000BC04A091BD04B091BE043091BA0423E0E5
:1014D000230F2D3720F40196A11DB11D05C026E86C
:1014E000230F0296A11DB11D2093BA048093BB0463
:1014F0009093BC04A093BD04B093BE048091BF043C
:101500009091C004A091C104B091C2040196A11DA4
:10151000B11D8093BF049093C004A093C104B09305
:10152000C204BF91AF919F918F913F912F910F90E6
:101530000FBE0F901F9018952FB7F8946091BB04C1
:101540007091BC048091BD049091BE042FBF08959A
:101550003FB7F8948091BF049091C004A091C1045A
:10156000B091C20426B5A89B05C02F3F19F0019683
:10157000A11DB11D3FBF6627782F892F9A2F620FBB
:10158000711D811D911D42E0660F771F881F991FF5
:101590004A95D1F70895CF92DF92EF92FF92CF93C1
:1015A000DF936B017C010E94A80AEB01C114D104F6
:1015B000E104F10489F00E94820F0E94A80A6C1BCA
:1015C0007D0B683E734090F381E0C81AD108E108B2
:1015D000F108C851DC4FEACFDF91CF91FF90EF9037
:1015E000DF90CF9008958230910538F0880F991FD1
:1015F000880F991F05970197F1F70895789484B59E
:10160000826084BD84B5816084BD85B5826085BDFE
:1016100085B5816085BDEEE6F0E0808181608083E4
:10162000E1E8F0E0108280818260808380818160C7
:101630008083E0E8F0E0808181608083E1EBF0E08E
:10164000808184608083E0EBF0E080818160808332
:10165000E1E9F0E080818260808380818160808325
:10166000E0E9F0E0808181608083E1EAF0E0808160
:1016700082608083808181608083E0EAF0E0808105
:1016800081608083E1E2F1E08081826080838081FB
:1016900081608083E0E2F1E0808181608083EAE71D
:1016A000F0E080818460808380818260808380819B
:1016B000816080838081806880831092C10008955A
:1016C000863308F0865320917B00982F9870277FEF
:1016D000922B90937B0087702091060290E4299FC3
:1016E00090011124822B80937C0080917A00806489
:1016F00080937A0080917A0086FDFCCF80917800FB
:101700002091790090E0922B08951F93CF93DF935F
:10171000182FEB0161E00E949F0C209711F460E00C
:1017200004C0CF3FD10539F461E0812FDF91CF9123
:101730001F910C94D80CE12FF0E0ED51FE4F449135
:1017400050E0FA013197E231F10508F09BC0E15712
:10175000FF4F0C94A50F84B5806884BDC7BD97C0AA
:1017600084B5806284BDC8BD92C0809180008068CD
:1017700080938000D0938900C093880088C08091B6
:101780008000806280938000D0938B00C0938A0099
:101790007EC080918000886080938000D0938D000F
:1017A000C0938C0074C08091B00080688093B000BA
:1017B000C093B3006CC08091B00080628093B00091
:1017C000C093B40064C080919000806880939000C2
:1017D000D0939900C09398005AC080919000806285
:1017E00080939000D0939B00C0939A0050C080914A
:1017F0009000886080939000D0939D00C0939C00DF
:1018000046C08091A00080688093A0008091A000D5
:101810008F7B8093A000D093A900C093A80037C00D
:101820008091A00080628093A000D093AB00C09311
:10183000AA002DC08091A00088608093A000D09362
:10184000AD00C093AC0023C08091200180688093DC
:101850002001D0932901C093280119C08091200153
:10186000806280932001D0932B01C0932A010FC086
:1018700080912001886080932001D0932D01C09336
:101880002C0105C0C038D1050CF04ECF48CFDF91F8
:10189000CF911F91089590E0FC013197E231F1055D
:1018A00008F04CC0EF55FF4F0C94A50F80918000BD
:1018B0008F7703C0809180008F7D80938000089592
:1018C00080918000877FF9CF84B58F7702C084B57F
:1018D0008F7D84BD08958091B0008F7703C0809183
:1018E000B0008F7D8093B0000895809190008F7735
:1018F00007C0809190008F7D03C080919000877F0A
:101900008093900008958091A0008F7707C0809108
:10191000A0008F7D03C08091A000877F8093A000EE
:101920000895809120018F7707C0809120018F7DDD
:1019300003C080912001877F809320010895CF9379
:10194000DF9390E0FC01E75DFD4F2491FC01E1593C
:10195000FD4F8491882349F190E0880F991FFC0185
:10196000E751FD4FA591B49181539D4FFC01C59165
:10197000D4919FB7611108C0F8948C91209582236F
:101980008C93888182230AC0623051F4F8948C9140
:10199000322F309583238C938881822B888304C0D7
:1019A000F8948C91822B8C939FBFDF91CF910895F7
:1019B0000F931F93CF93DF931F92CDB7DEB7282FDE
:1019C00030E0F901ED51FE4F8491F901E75DFD4FE3
:1019D0001491F901E159FD4F04910023C9F08823C6
:1019E00021F069830E944B0C6981E02FF0E0EE0F3B
:1019F000FF1FE153FD4FA591B4919FB7F8948C91CF
:101A0000611103C01095812301C0812B8C939FBF6E
:101A10000F90DF91CF911F910F910895CF93DF9396
:101A2000282F30E0F901ED51FE4F8491F901E75D77
:101A3000FD4FD491F901E159FD4FC491CC2391F0B0
:101A400081110E944B0CEC2FF0E0EE0FFF1FEB54C6
:101A5000FD4FA591B4912C912D2381E090E021F4CC
:101A600080E002C080E090E0DF91CF9108950E9475
:101A7000AF0FFC01818D228D90E0805C9F4F821B17
:101A800091098F7399270895FC01918D828D981784
:101A900031F0828DE80FF11D858D90E008958FEF74
:101AA0009FEF0895FC01918D828D981761F0828DD2
:101AB000DF01A80FB11D5D968C91928D9F5F9F7382
:101AC000928F90E008958FEF9FEF08958DE09FE053
:101AD000892B41F08AEE94E0892B21F00E940D0FB2
:101AE000811125C080E090E0892B41F080E090E0FA
:101AF000892B21F00E94000081111CC080E090E041
:101B0000892B41F080E090E0892B21F00E940000B9
:101B1000811113C080E090E0892BA1F080E090E07B
:101B2000892B81F00E94000081110AC008950E9453
:101B3000EA04D8CF0E940000E1CF0E940000EACF63
:101B40000C9400000895FC01848DDF01A80FB11DE5
:101B5000A35ABF4F2C91848D90E001968F739927E3
:101B6000848FA689B7892C93A089B1898C918064D0
:101B70008C93938D848D981306C00288F389E02D91
:101B800080818F7D80830895CF93DF93EC01888DD2
:101B90008823C9F0EA89FB89808185FD05C0A88971
:101BA000B9898C9186FD0FC00FB607FCF5CF8081F7
:101BB00085FFF2CFA889B9898C9185FFEDCFCE0141
:101BC0000E94A30DE7CFDF91CF910895CF92DF92CE
:101BD000FF920F931F93CF93DF931F92CDB7DEB782
:101BE0006C0181E0D60158968C9358975B969C9136
:101BF0005B975C968C915C97981307C05096ED911B
:101C0000FC915197808185FD2EC0F601038D10E077
:101C10000F5F1F4F0F731127F02EF601848DF812FE
:101C200011C00FB607FCF9CFD6015096ED91FC918B
:101C30005197808185FFF1CFC60169830E94A30D72
:101C40006981EBCF838DE80FF11DE35AFF4F60836D
:101C5000D6015B960C935B975296ED91FC9153974E
:101C6000808180620CC0D6015696ED91FC91579709
:101C700060835096ED91FC915197808180648083C0
:101C800081E090E00F90DF91CF911F910F91FF9035
:101C9000DF90CF900895BF92CF92DF92EF92FF92A4
:101CA000CF93DF93EC016A017B01B22EE889F989B9
:101CB00082E08083411581EE580761057105A1F02E
:101CC00060E079E08DE390E0A70196010E94830F28
:101CD0002150310941095109569547953795279566
:101CE000211580E1380798F0E889F989108260E8C9
:101CF00074E88EE190E0A70196010E94830F2150C5
:101D00003109410951095695479537952795EC8535
:101D1000FD853083EE85FF852083188EEC89FD8953
:101D2000B082EA89FB89808180618083EA89FB89AE
:101D3000808188608083EA89FB89808180688083D4
:101D4000EA89FB8980818F7D8083DF91CF91FF902D
:101D5000EF90DF90CF90BF9008951F920F920FB633
:101D60000F9211240BB60F922F938F939F93EF93A3
:101D7000FF93E091D304F091D4048081E091D904E1
:101D8000F091DA0482FD12C090818091DC048F5FB3
:101D90008F732091DD04821751F0E091DC04F0E0B4
:101DA000ED53FB4F958F8093DC0401C08081FF9140
:101DB000EF919F918F912F910F900BBE0F900FBEBF
:101DC0000F901F9018951F920F920FB60F9211242B
:101DD0000BB60F922F933F934F935F936F937F9325
:101DE0008F939F93AF93BF93EF93FF9383EC94E014
:101DF0000E94A30DFF91EF91BF91AF919F918F91A1
:101E00007F916F915F914F913F912F910F900BBEFA
:101E10000F900FBE0F901F90189583EC94E00E94D6
:101E2000390D21E0892B09F420E0822F08951092CA
:101E3000C6041092C50488EE93E0A0E0B0E0809361
:101E4000C7049093C804A093C904B093CA0487E35D
:101E500092E09093C4048093C30485EC90E0909347
:101E6000D0048093CF0484EC90E09093D2048093CC
:101E7000D10480EC90E09093D4048093D30481EC5F
:101E800090E09093D6048093D50482EC90E09093F8
:101E9000D8048093D70486EC90E09093DA04809382
:101EA000D9041092DC041092DD041092DE0410922A
:101EB000DF040895CF92DF92EF92FF920F931F936A
:101EC000CF93DF936C017A01EB01E60EF71E00E081
:101ED00010E0CE15DF0561F06991D601ED91FC911E
:101EE0000190F081E02DC6011995080F191FF1CF5F
:101EF000C801DF91CF911F910F91FF90EF90DF907C
:101F0000CF9008950895A1E21A2EAA1BBB1BFD01D4
:101F10000DC0AA1FBB1FEE1FFF1FA217B307E407C8
:101F2000F50720F0A21BB30BE40BF50B661F771F20
:101F3000881F991F1A9469F7609570958095909500
:101F40009B01AC01BD01CF010895EE0FFF1F05906D
:101F5000F491E02D19940790F691E02D199481E009
:101F600090E0F8940C94C40FFB01DC0105900D92F5
:101F70000020E1F70895FC0105900020E9F7809525
:0C1F800090958E0F9F1F0895F894FFCFDE
:101F8C000000640580000100000000370D00000017
:101F9C0000C201370D00000000C201FD040000006A
:101FAC0000B80100000000810554052905310544E5
:101FBC0005530500000000E60D5A0F390D520D4473
:041FCC000DC40D0033
:00000001FF
