:100000000C9477010C94A8010C94A8010C94A801FD
:100010000C94A8010C94A8010C94A8010C94A801BC
:100020000C94A8010C94A8010C94A8010C94A801AC
:100030000C94A8010C94A8010C94A8010C94A8019C
:100040000C94A8010C94A8010C94A8010C94A8018C
:100050000C94A8010C94A8010C94A8010C94F20E25
:100060000C94A8010C944D130C9483130C94A801C8
:100070000C94A8010C94A8010C94A8010C94A8015C
:100080000C94A8010C94A8010C94A8010C94A8014C
:100090000C94A8010C94A8010C94A8010C947A0962
:1000A0000C94A8010C94A8010C94A8010C94A8012C
:1000B0000C94A8010C94A8010C94A8010C94A8011C
:1000C0000C94A8010C94A8010C94A8010C94A8010C
:1000D0000C94A8010C94A8010C94A8010C94A801FC
:1000E0000C94A801040D180D2E0D4A0D6E0D9C0DDB
:1000F000BB0DF20D990C2C0EC30CE60C4D0E670EC9
:10010000EE0CF20C0C0D220D3E0D5C0D900DAF0DA2
:10011000D70E0B0E200E2C0EDA0C410E720E4B1069
:10012000501055105F106910E21073107B1083108F
:100130008D109710A110B010BA10E210C410CE109C
:10014000D81004110711F610FA1000113E110B110E
:100150000F11151119111D11231127112B113E110A
:10016000311135113911687474703A2F2F67697421
:100170006875622E636F6D2F776865656C65722D8B
:100180006D6963726F666C7569646963732F626110
:1001900073655F6E6F64655F7270632E676974006C
:1001A000302E31322E706F73743800576865656C6D
:1001B0006572204C61620000626173652D6E6F6430
:1001C000652D727063000000000A0B02090C0D0E11
:1001D0000807030401000000000000000000000008
:1001E000000000000000000000000000000000000F
:1001F00000000012111000000000000000000000CC
:1002000000000000000000000000000000010210DB
:100210002020080810204010204080020102010820
:1002200004020101020408102040808040201008D0
:100230000402018004020180402010080402010829
:100240000402010102040810204080010204081089
:100250002040800505050507050808080802020278
:10026000020A0A0808040404040101010101010151
:10027000010303030303030303040707070C0C0C28
:100280000C0C0C0C0C020202020606060606060600
:10029000060B0B0B0B0B0B0B0B0000200023002697
:1002A0000029002C002F003200000100000301068D
:1002B00001090100002200250028002B002E00313A
:1002C00000340002010000050108010B01000021BB
:1002D00000240027002A002D003000330001010017
:1002E00000040107010A01001203C30BB713112414
:1002F0001FBECFEFD1E2DEBFCDBF00E00CBF12E0EA
:10030000A0E0B2E0E0E3F9E200E00BBF02C007903A
:100310000D92A436B107D9F726E0A4E6B2E001C0F9
:100320001D92AF3BB207E1F712E0CEEED2E000E063
:1003300006C022970109FE010BBF0E944B14C83E64
:10034000D10780E00807A9F70E9455080C9496147D
:100350000C94000040E850E060E070E0BC0165599A
:100360007D4FCB01BA01089502970C94AA0104971E
:100370000C94AA01E091CC04F091CD040280F381A9
:10038000E02DBC018CEC94E01994FC0182819381F6
:100390000C94E00BCF93DF93EC010E94C5011C820B
:1003A000DF91CF9108950F931F93CF93DF938C012B
:1003B000EB01BC01CE010E945414C8010E945B14E1
:1003C000AC01BE01CB01BA01DF91CF911F910F911A
:1003D00008950F931F93CF93DF93EC011A8619862C
:1003E00000E010E02B813C8189859A850217130774
:1003F00060F4EF81F885E00FF11F60810E94C70B68
:100400009A8789870F5F1F4FEDCF0E94DF0B9A8776
:100410008987DF91CF911F910F91089526E040E0E9
:1004200052EC61E070E08EE196E00E94EB128CE00D
:100430008093B8006AEB71E08FEB95E00C94BE0BF3
:10044000DC01ED91FC910280F381E02D41E050E070
:1004500019940F931F93CF93DF93EC018B01E881E5
:10046000F9816F5F7F4F0280F381E02D41E050E022
:100470001995E881F9810280F381E02D41E050E097
:10048000B801CE01DF91CF911F910F911994FC011A
:10049000E15DFE4F0190F081E02D2189222359F08A
:1004A000835D9E4FDC01ED91FC910190F081E02D88
:1004B000199580E0089580890895FC01E15DFE4F63
:1004C0000190F081E02D2189222331F0835D9E4F40
:1004D0000E94CA0180E00895808908950F931F93B8
:1004E000CF93DF93EC018B01E881F9816F5F7F4F40
:1004F0000280F381E02D41E050E01995E881F98117
:100500000280F381E02D41E050E0B801CE01DF919F
:10051000CF911F910F911994EF92FF920F931F9318
:10052000CF93DF93CDB7DEB762970FB6F894DEBFF7
:100530000FBECDBF7C012A8B8FEF9FEF9B878A87F1
:100540001A8309832B835F834E83798768875D8352
:100550004C83CE0101960E94E9018CE79CE7ACE751
:10056000B0E08C879D87AE87BF87D7018D919C9126
:10057000DC01ED91FC910280F381E02D43E050E03D
:10058000BE01645F7F4F1995BE016F5F7F4FF7011A
:10059000808191810E946E02D7018D919C91DC0136
:1005A000ED91FC910280F381E02D41E050E0BE012D
:1005B0006E5E7F4F19958B81843611F0833729F554
:1005C0008C819D81998B888BBE01605F7F4FD701A5
:1005D0008D919C910E946E024C815D814115510567
:1005E00061F0F70180819181DC01ED91FC916885DA
:1005F00079850280F381E02D1995BE01665F7F4FFA
:10060000F701808191810E946E0262960FB6F89484
:10061000DEBF0FBECDBFDF91CF911F910F91FF9035
:10062000EF9008954F925F926F927F928F929F9278
:10063000AF92BF92CF92DF92EF92FF920F931F93F0
:10064000CF93DF93C6E6D2E08BE092E09983888374
:1006500088E6E82E82E0F82E81E192E0D7018D93C2
:100660009C930AE612E087E192E0F801918380838F
:10067000ECE6F3E01182108210926E031092700388
:1006800010926F0344244A94542C50927603409263
:100690007503612C772473947092720360927103D6
:1006A0008CE692E0909374038093730337E7A32E54
:1006B00033E0B32ED5011C9210927803109284037C
:1006C00010928303109286031092850310928A037E
:1006D000109289031092980310929703F0938C0361
:1006E000E0938B03C5010E94E00B49E9C42E43E06F
:1006F000D42E5DE1852E52E0952EF6019182808206
:10070000B0929C03A0929B03C6010E94C50185E2A2
:1007100092E0D6018D939C938EE196E090939E0398
:1007200080939D03EFE9F4E0118210821092A104FE
:100730001092A3041092A2045092A9044092A8041B
:100740007092A5046092A4048FE993E09093A704AB
:100750008093A6046AEAA62E64E0B62ED5011C9208
:100760001092AB041092B7041092B6041092B90420
:100770001092B8041092BD041092BC041092CB04E5
:100780001092CA04F093BF04E093BE04C5010E9416
:10079000E00B7CECC72E74E0D72EF60191828082AC
:1007A000B092CF04A092CE04C6010E94C5018DE292
:1007B00092E0D6018D939C931092D004C6010E94C2
:1007C000CA0185E392E0998388838BE392E0F70185
:1007D0009183808381E492E0D8018D939C93D093A0
:1007E0006502C0936402DF91CF911F910F91FF903A
:1007F000EF90DF90CF90BF90AF909F908F907F90C1
:100800006F905F904F900895CF93DF93E09199039D
:10081000F0919A03C281D3818EE196E00E94D911B2
:10082000BC0189E993E0FE01DF91CF911994BF9259
:10083000CF92DF92EF92FF920F931F93CF93DF93AC
:100840001F92CDB7DEB78C017B018FEB95E00E9444
:10085000B30AB82E81E0E81AF108F8018481811109
:1008600001C0B482C12CD12CCE14DF04A4F48FEBD0
:1008700095E00E94B30A8983F8018481B81207C009
:10088000BE016F5F7F4F828193810E94FF0BFFEF5C
:10089000CF1ADF0AE9CF0F90DF91CF911F910F910F
:1008A000FF90EF90DF90CF90BF900895EF92FF926E
:1008B0000F931F93CF93DF93CDB7DEB763970FB638
:1008C000F894DEBF0FBECDBF8C012B8B1A8219822C
:1008D0008FEF9FEF9B878A872B835F834E83798778
:1008E00068875D834C83CE0101960E94E9018CE705
:1008F0009CE7ACE7B0E08C879D87AE87BF8780918F
:10090000BA0086958A8BF80160818FEB95E00E9492
:100910009E0BBE016E5E7F4F8FEB95E00E94200222
:1009200043E050E0BE01645F7F4F8FEB95E00E9493
:10093000050BBE016F5F7F4F8FEB95E00E94290290
:10094000BE016D5E7F4F8FEB95E00E9420028C818F
:100950009D81998B888BBE01605F7F4F8FEB95E007
:100960000E9429028FEB95E00E94BB0BEC80FD807A
:10097000E114F10461F1F0E2EF16F10418F0EFE197
:10098000EE2EF12CF80160818FEB95E00E949E0B1A
:10099000BE016E5E7F4F8FEB95E00E94200268855E
:1009A0007985A7018FEB95E00E94050B8FEB95E011
:1009B0000E94BB0B888599858E0D9F1D998788871E
:1009C0008C819D818E199F099D838C83CFCFF801E7
:1009D00060818FEB95E00E949E0BBE016E5E7F4FA3
:1009E0008FEB95E00E942002BE01665F7F4F8FEB88
:1009F00095E00E9429028FEB95E00E94BB0B639665
:100A00000FB6F894DEBF0FBECDBFDF91CF911F911F
:100A10000F91FF90EF9008958F929F92AF92BF92A7
:100A2000CF92DF92EF92FF920F931F93CF93DF93BA
:100A300000D01F92CDB7DEB7DC01FB0169018081D8
:100A4000803209F436C208F05BC0893009F420C155
:100A500040F5843009F4E9C0C0F4813009F4C7C01E
:100A600008F4B8C0823009F4D3C0833009F07EC2E4
:100A70008D919C91DC01ED91FC910190F081E02D34
:100A80001995BC018BEA91E0BEC0863009F4E7C03D
:100A900008F4D8C0873009F4EAC0883009F4F0C0FF
:100AA00065C28E3009F41BC180F48B3009F40EC18D
:100AB00008F4F9C08C3009F40EC18D3009F056C22B
:100AC000628181810E94781156C2803109F411C17E
:100AD00008F409C1813109F418C1823109F046C214
:100AE0009B012F5F3F4F83819481820F931F9483DB
:100AF000838381819281A381B4818C016D013DC288
:100B0000863609F47CC1D8F5813609F42FC128F561
:100B1000813409F40DC1A8F4803409F027C29B0187
:100B20002F5F3F4F85819681820F931F9683858328
:100B30006181728143815481F8940E947414789485
:100B40001AC2823409F40DC1803609F00FC26181E6
:100B50008FEB95E00E947B0B0EC2833609F410C127
:100B600008F408C1843609F440C1853609F0FEC195
:100B70008FEB95E00E94B30AF601808348C180386C
:100B800009F497C178F4883609F473C108F442C1B6
:100B9000893609F488C18A3609F0E8C18091BA0023
:100BA0008E7F84C1823809F4D0C108F48EC1803AA6
:100BB00009F4D2C1813A09F0D9C126E040E052ECF3
:100BC00061E070E08EE196E00E94EB128CE0809391
:100BD000B800D1C18D919C91DC01ED91FC91019007
:100BE000F081E02D1995BC0186EC91E00CC08D914F
:100BF0009C91DC01ED91FC910190F081E02D199523
:100C0000BC0188EB91E00E94D3018B016C01B5C15E
:100C10008D919C91DC01ED91FC910190F081E02D92
:100C20001995BC0187EB91E0EECF8D919C91DC0191
:100C3000ED91FC910190F081E02D1995BC0180EAC5
:100C400091E0E1CF8D919C91DC01ED91FC910190BF
:100C5000F081E02D1995BC0186E691E0D4CF0E9489
:100C6000480FF60160837183828393832BC10E94B6
:100C70003C0FD6016D937D938D939C93139722C166
:100C800081819281009709F476C10E94930F73C10C
:100C9000618172816115710509F46DC180E090E098
:100CA0000E946B0F68C12091BB063091BC068DB7C6
:100CB0009EB72115310519F48F5B964002C0821B47
:100CC000930BAA2797FDA095BA2FF7C06281818167
:100CD0000E943F1150C181810E94AE1196C0818156
:100CE0000E94001049C0628170E081810E9425103D
:100CF00042C19B012F5F3F4F83819481820F931FDD
:100D0000948383838181928174C09B012F5F3F4FC5
:100D100083819481820F931F948383830181128145
:100D2000238134816901000F111F000F111F25C19C
:100D300003811481E180F2808D919C91DC011296F7
:100D4000ED91FC9113970190F081E02D0296199599
:100D5000DC01CB016D01A801B701CD010E94641433
:100D60000CC18FEF9FE0A0E0B0E0A7C08091BA0077
:100D700086954BC080E290E0F601918380833CC071
:100D80008D919C91DC011496ED91FC911597019049
:100D9000F081E02D049619957B016C01F8E09F2EFF
:100DA00000E010E00E151F0508F0E7C0692D8FEB7D
:100DB00095E00E949E0B8FEB95E00E94BB0B81118A
:100DC0000FC05801BFEFAB1ABB0AF601E00FF11FCD
:100DD000908261E070E080E090E00E946B0F8501FE
:100DE0009394E8E79E12DECFC8C08FEB95E00E9497
:100DF000AB0AD6018D939C9302E010E0BEC0428105
:100E000061818FEB95E00E949B0BD6018C9301E0F2
:100E100010E0B3C0B280F1808D919C91DC011496FA
:100E2000ED91FC9115970190F081E02D04961995B4
:100E3000182F092FC82ED92E4B2D6F2D8FEB95E033
:100E40000E949B0BA12EE12EF02E0E2D0A198FEB86
:100E500095E00E94AB0A892B31F08FEB95E00E9460
:100E6000B30A0B1510F010E088C0F70181937F01E1
:100E7000ECCFCB01019604811581080F191F158352
:100E80000483E280F38061818FEB95E00E949E0BEA
:100E9000A701B8018FEB95E00E94050B8FEB95E061
:100EA0000E94BB0B68C08091BA0081608093BA0039
:100EB00062C089EF90E0A0E0B0E0F601808391830A
:100EC000A283B38304E010E058C09B012F5F3F4F23
:100ED00084819581820F931F958384831181CD90A6
:100EE000DC9042815381648175817601FAE9EF1AC1
:100EF000FDEFFF0AC70149835A836B837C830E94FD
:100F0000CA01C60186599D4FDC011C9324E6498124
:100F10005A816B817C810E9456040E943C0F4B01D8
:100F20005C018601075C1E4F0E943C0F681979091D
:100F30008A099B09683873418105910588F5C801C4
:100F40000E945D0281112CC0EFCF8D919C918A5936
:100F50009D4F0E94CA010FC08D919C91DC01ED91C3
:100F6000FC910190F081E02D19954FCEC12CD12C30
:100F70000FEF1FEF02C000E010E0B801C6010F90B4
:100F80000F900F900F90DF91CF911F910F91FF90D5
:100F9000EF90DF90CF90BF90AF909F908F9008958B
:100FA000F601E75CFD4FC780D08403811481083FC0
:100FB000110510F007EF10E0C7010E94CA01DDCF54
:100FC0000F931F93CF93DF93FC01CB01C381D48197
:100FD0002281243611F4209759F420E030E04FEFBD
:100FE0005FEFBA01C901DF91CF911F910F91089571
:100FF000A781B0859D0105811681AE01BD010E94CA
:101000000C05AB019C01EDCF0F931F938CE692E092
:101010000E944702882301F18CE692E00E94470279
:101020008823D1F064E672E08CE693E00E94E0074A
:10103000AB01BC01CA016115710511F480E090E0BB
:10104000AC0100E010E024E68DE993E00E948C0200
:1010500089E993E00E94C5018FE993E00E945D0257
:10106000882301F18FE993E00E945D028823D1F08B
:1010700064E672E08FE994E00E94E007AB01BC01F6
:10108000CA016115710511F480E090E0AC0124E61D
:1010900080ED94E00E9456048CEC94E01F910F9137
:1010A0000C94CA011F910F9108950E949E0F0E94F7
:1010B0000E02C6E0D2E10E9404082097E1F30E94EC
:1010C0000612F9CFCF92DF92EF92FF920F931F9308
:1010D000CF93DF931F92CDB7DEB77C016B0100E0A9
:1010E00010E00C151D0584F48EE196E00E94F211CB
:1010F0008983BE016F5F7F4FF701828193810E94D8
:10110000FF0B0F5F1F4FEDCF0F90DF91CF911F911E
:101110000F91FF90EF90DF90CF9008951092BE0551
:1011200081E08093BC051092BB0561E084E10E94E0
:10113000781161E085E10E947811E9EBF0E08081AF
:101140008E7F808380818D7F808388E48093B80048
:1011500085E48093BC000895880F8093BA000895B9
:10116000413208F03FC09091BE059111FCCF91E053
:101170009093BE052093BC052FEF2093510510924C
:101180009605240F209395059093BD059091BD057C
:10119000880F892B8093BD058091BB05813041F478
:1011A0001092BB058091BD058093BB0085EC01C00A
:1011B00085EE8093BC008091BE058130E1F3809183
:1011C0009605841710F44091960527E935E0FB0158
:1011D000D9018A2F821B841718F48D918193F9CF3E
:1011E000842F089580E008950F93413208F046C09F
:1011F0009091BE059111FCCF92E09093BE050093B3
:10120000BC059FEF9093510510929605409395056C
:10121000FB0167E975E0DB019A2F961B941718F420
:1012200091919D93F9CF1092BD059091BD05880FC6
:10123000892B8093BD058091BB05813041F41092CC
:10124000BB058091BD058093BB0085EC01C085EE98
:101250008093BC00222321F08091BE058230E1F30F
:10126000809151058F3F61F080915105803251F09E
:1012700080915105803341F483E007C081E005C0CF
:1012800080E003C082E001C084E00F9108956132E4
:1012900098F42091BE05243089F460937305FC0115
:1012A00085E795E0DC012A2F281B261718F42191E9
:1012B0002D93F9CF80E0089581E0089582E00895AC
:1012C0009093B8058093B70508959093BA058093DD
:1012D000B905089585ED8093BC008091BC0084FD24
:1012E000FCCF1092BE05089585EC8093BC0010924F
:1012F000BE0508951F920F920FB60F9211240BB6E0
:101300000F922F933F934F935F936F937F938F939E
:101310009F93AF93BF93EF93FF938091B900887F22
:10132000803609F49CC068F5883209F45BC090F4FB
:10133000803109F454C038F4882309F4F5C08830AA
:1013400009F44DC0F5C0883109F44CC0803209F46D
:101350005DC0EEC0803409F468C048F4803309F4FD
:1013600055C0883309F0E4C080935105A8C080358A
:1013700009F44FC0883509F45DC0883409F0D8C03D
:10138000D5C0883909F4C6C0A8F4883709F467C005
:1013900038F4883609F463C0803709F460C0C8C0E7
:1013A000883809F4B7C0803909F45FC0803809F083
:1013B000BFC05BC0803B09F485C038F4803A09F4B3
:1013C00066C0883A09F47EC0B3C0803C09F4A6C068
:1013D000883C09F4A3C0883B09F489C0A9C0809166
:1013E000BD0510C09091960580919505981770F5F0
:1013F000E091960581E08E0F80939605F0E0E95626
:10140000FA4F80818093BB0085EC85C080935105A5
:101410008DC0E091960581E08E0F809396058091B6
:10142000BB00F0E0E956FA4F8083909196058091D9
:1014300095056DC0E091960581E08E0F809396052D
:101440008091BB00F0E0E956FA4F80838091BC05A3
:1014500081116CC081E08093BB0584EA60C083E0A9
:101460008093BE0510925205CFCF809152058032F5
:1014700008F050C0E091520581E08E0F8093520534
:101480008091BB00F0E0ED5AFA4F8083BDCF809190
:101490005205803230F4E0915205F0E0ED5AFA4FF7
:1014A00010820E946A096091520570E0E091B705D0
:1014B000F091B80583E595E01995109252050E94C8
:1014C000740936C084E08093BE05109274051092B2
:1014D0007305E091B905F091BA05199580917305EE
:1014E000811105C081E08093730510927505E0912C
:1014F000740581E08E0F80937405F0E0EB58FA4F8D
:1015000080818093BB00909174058091730598173A
:1015100008F47ACF85E88093BC000AC085EC8093FC
:10152000BC001092BE0504C0109251050E946A09C9
:10153000FF91EF91BF91AF919F918F917F916F91AB
:101540005F914F913F912F910F900BBE0F900FBE67
:101550000F901F9018958091F30590E02091F4056D
:10156000821B910908952091F4058091F3052817B5
:1015700050F4E22FF0E0EB50FA4F808190E02F5FC3
:101580002093F40508958FEF9FEF0895E091F405FF
:101590008091F305E81730F4F0E0EB50FA4F8081CA
:1015A00090E008958FEF9FEF08950895E091CB05A7
:1015B000F091CC053097E1F03091F4052091F305DE
:1015C0003217B0F040E0242F30E02617370754F4EC
:1015D000DC01A20FB31F5C91D901AB50BA4F5C93F1
:1015E0004F5FF1CF1092F4056093F305CB0119948E
:1015F0000895E091CD05F091CE05309729F0109235
:10160000D1051092D00519940895CF92DF92EF92F0
:10161000FF920F931F93CF93DF937C01CB018A013D
:101620002091CF05222389F0EB016B01C40ED51E5A
:10163000CC15DD0569F06991D701ED91FC91019020
:10164000F081E02DC7011995F3CF642F0E9447095F
:10165000C801DF91CF911F910F91FF90EF90DF9024
:10166000CF900895CF93DF931F92CDB7DEB76983F4
:101670002091CF052223D1F02091D005203240F0D7
:1016800021E030E0FC013383228380E090E015C04C
:101690008091D105E82FF0E0EE52FA4F99819083C6
:1016A0008F5F8093D1058093D00505C061E0CE01A6
:1016B00001960E94470981E090E00F90DF91CF9161
:1016C0000895FC011382128248EE53E060E070E05E
:1016D000448355836683778387E492E09183808394
:1016E00008951092F4051092F3051092D10510920E
:1016F000D0050C948E08CF93DF93EC01862F0E94C7
:10170000AC0889EF9AE00E94650986ED9AE00E9494
:101710006009CE01DF91CF910C94710B862F41327D
:1017200008F040E265EF75E00E94B0081092F40501
:101730008093F305089521E00C948E0B81E0809353
:10174000CF056093F2051092D1051092D00508954F
:101750000F93062F21E04091D00562ED75E0809156
:10176000F2050E94F4081092D1051092D005109253
:10177000CF050F91089561E00C94A80B7093CC05F0
:101780006093CB0508958FEB95E00C94610B862751
:10179000682F62956827062E669566956025062E49
:1017A000669560256770082E892F66950794679562
:1017B000902D86270694679590258627089508958D
:1017C000FC01A489B58912961C92129714961C925A
:1017D0001E9213978FEF9FEF1A969C938E931997F3
:1017E000138A128A108A118A1786168611A210A2ED
:1017F0008CE090E093838283178E168E0895AF92CB
:10180000BF92CF92DF92EF92FF920F931F93CF93ED
:10181000DF931F92CDB7DEB78C016115710581F49E
:10182000CE010196D80115969C938E931497179626
:101830009C938E93169719969C938E93189707C036
:10184000FC01758364836F5F7F4F77836683D80164
:1018500014962D913C91159716968D919C91179702
:101860002817390709F057C071C2608180E090E005
:101870000E94C70BF801938B828B0488F589E02DB9
:101880000780F085E02DD8011E968D919C911F97C1
:101890009C012F5F3F4F1F963C932E931E971496EB
:1018A0002D913C911597D9012C91E80FF91F2083B8
:1018B000F80126853785848595852817390709F02D
:1018C00011C2068CF78DE02DCF010197D8015F96EC
:1018D0009C938E935E973A96EE0FFF1FE00FF11FD9
:1018E0008081918113969C938E931297D8011296C2
:1018F000ED91FC911397EF30F10508F454C2F80113
:10190000848195810196958384832681378182170E
:10191000930709F41BC2D8011296ED91FC9113971D
:101920003197EE30F10508F0EBC1EE58FF4F0C9403
:101930004514D8015496ED91FC915597F184E12C12
:10194000F286E18614968D919C911597DC018C911D
:101950009701280F311DC90132872187D80152967E
:101960002D913C9153978217930749F481E050964B
:101970008C9350971E968D919C911F9719C081E072
:10198000F801818B17C0D8011C968D919C911D97F1
:101990005496ED91FC91559725813681281739078A
:1019A00018F421E051962C9321E0D80150962C9305
:1019B00094838383F8018481958101969583848340
:1019C000268137818217930709F49AC1D8011496AA
:1019D000ED91FC91159780818C3721F0F8011382ED
:1019E0001282F4C1D80114968D919C91159701969D
:1019F00015969C938E93149716962D913C9117975C
:101A00008217930709F47FC1D8011496ED91FC91D8
:101A1000159780818C3711F7F801848195810196A3
:101A200095838483268137818217930709F46EC1D9
:101A3000D8011496ED91FC91159780818C3771F641
:101A400050961C92F8018481958101969583848338
:101A5000268137818217930709F460C1D801549613
:101A6000ED91FC9155971182108214968D919C9165
:101A70001597DC018C9190E091838083F80184813B
:101A800095810196958384832681378182179307F8
:101A900009F447C1D8015496ED91FC9155971496DD
:101AA0008D919C911597DC018C91B080A12C9501B2
:101AB000282BC90191838083D80114968D919C9124
:101AC0001597019615969C938E93149716962D91C3
:101AD0003C9117978217930709F426C1D8011496F1
:101AE000ED91FC91159780818436A1F068F48136E0
:101AF00009F074CFD8015496ED91FC9155978283EB
:101B000081E050968C9356CF8E3609F493C083377C
:101B100009F064CFD8015496ED91FC9155978283DA
:101B2000F80184819581019695838483268137818C
:101B30008217930709F4FBC0D80191961C921E925C
:101B400090971D961C921E921C971496ED91FC91F5
:101B50001597808190E01D969C938E931C97F801B9
:101B600084819581019695838483268137818217AC
:101B7000930709F4DFC0D8011C96DC901C97C12C98
:101B80001D96DC92CE921C971496ED91FC911597C0
:101B90008081F601E80FF11DCF011D96FC93EE93B5
:101BA0001C975496ED91FC91559725813681281705
:101BB000390718F481E051968C93D8015E96ED9127
:101BC000FC915F97CF0101965F969C938E935E97F1
:101BD0003B96EE0FFF1FE00FF11F88E090E091832E
:101BE00080834FC0D80152968D919C9153970E944B
:101BF000DF0BF801938B828B0488F589E02D128628
:101C00001186D80114968D919C911597DC018C91C9
:101C100090E092878187F801848195810196958370
:101C20008483268137818217930709F082CE89E069
:101C300090E089C0D8015496ED91FC91559782832C
:101C4000F80184819581019695838483268137816B
:101C50008217930709F471C0D80114968D919C9155
:101C60001597019615969C938E93149716962D9121
:101C70003C9117978217930709F085CE8BE090E08F
:101C800062C0F801848195810196958384832681C1
:101C900037818217930709F453C0D8011F961C920D
:101CA0001E921E9753961C921E9252971C968D91CF
:101CB0009C911D971496ED91FC911597892B09F035
:101CC000D4CD31971596FC93EE93149765C0D80147
:101CD0001496ED91FC911597608152968D919C918F
:101CE0005397C6CDF80184819581019695838483AD
:101CF000268137818217930751F78EE090E023C049
:101D00008CE090E005C081E090E01DC082E090E0B2
:101D1000D80113969C938E93129718C083E090E09D
:101D200012C084E090E0F4CF85E090E00CC086E043
:101D300090E0EECF87E090E006C08AE090E0E8CF48
:101D40008DE090E0E5CFF80193838283D80114966B
:101D50008D919C91159718962D913C91199782170A
:101D60009307A1F512962D913C9113972D303105D3
:101D700069F51F961C921E921E9753961C921E92F6
:101D800052971C962D913C911D97232BF9F40197A6
:101D900015969C938E9314975E96ED91FC915F97A8
:101DA000CF01019794CDE058FF4F0C944514F801F2
:101DB000848195810196958384832681378182175A
:101DC000930709F00FCF88E090E0A2CF0F90DF914A
:101DD000CF911F910F91FF90EF90DF90CF90BF9028
:101DE000AF9008951F920F920FB60F9211242F9368
:101DF0003F938F939F93AF93BF93809116069091DB
:101E00001706A0911806B09119063091150623E027
:101E1000230F2D3720F40196A11DB11D05C026E822
:101E2000230F0296A11DB11D20931506809316065F
:101E300090931706A0931806B093190680911A067E
:101E400090911B06A0911C06B0911D060196A11D44
:101E5000B11D80931A0690931B06A0931C06B093A5
:101E60001D06BF91AF919F918F913F912F910F9040
:101E70000FBE0F901F9018952FB7F894609116061B
:101E80007091170680911806909119062FBF08953A
:101E90003FB7F89480911A0690911B06A0911C06FA
:101EA000B0911D0626B5A89B05C02F3F19F00196DD
:101EB000A11DB11D3FBF6627782F892F9A2F620F72
:101EC000711D811D911D42E0660F771F881F991FAC
:101ED0004A95D1F70895CF92DF92EF92FF92CF9378
:101EE000DF936B017C010E94480FEB01C114D10408
:101EF000E104F10489F00E9422140E94480F6C1B37
:101F00007D0B683E734090F381E0C81AD108E10868
:101F1000F108C851DC4FEACFDF91CF91FF90EF90ED
:101F2000DF90CF9008958230910538F0880F991F87
:101F3000880F991F05970197F1F70895789484B554
:101F4000826084BD84B5816084BD85B5826085BDB5
:101F500085B5816085BDEEE6F0E08081816080839B
:101F6000E1E8F0E01082808182608083808181607E
:101F70008083E0E8F0E0808181608083E1EBF0E045
:101F8000808184608083E0EBF0E0808181608083E9
:101F9000E1E9F0E0808182608083808181608083DC
:101FA000E0E9F0E0808181608083E1EAF0E0808117
:101FB00082608083808181608083E0EAF0E08081BC
:101FC00081608083E1E2F1E08081826080838081B2
:101FD00081608083E0E2F1E0808181608083EAE7D4
:101FE000F0E0808184608083808182608083808152
:101FF000816080838081806880831092C100089511
:10200000863308F0865320917B00982F9870277FA5
:10201000922B90937B0087702091060290E4299F79
:1020200090011124822B80937C0080917A0080643F
:1020300080937A0080917A0086FDFCCF80917800B1
:102040002091790090E0922B08951F93CF93DF9316
:10205000182FEB0161E00E943F11209711F460E01E
:1020600004C0CF3FD10539F461E0812FDF91CF91DA
:102070001F910C947811E12FF0E0E953FE4F449149
:1020800050E0FA013197E231F10508F09BC0E157C9
:10209000FF4F0C94451484B5806884BDC7BD97C0BC
:1020A00084B5806284BDC8BD92C080918000806884
:1020B00080938000D0938900C093880088C080916D
:1020C0008000806280938000D0938B00C0938A0050
:1020D0007EC080918000886080938000D0938D00C6
:1020E000C0938C0074C08091B00080688093B00071
:1020F000C093B3006CC08091B00080628093B00048
:10210000C093B40064C08091900080688093900078
:10211000D0939900C09398005AC08091900080623B
:1021200080939000D0939B00C0939A0050C0809100
:102130009000886080939000D0939D00C0939C0095
:1021400046C08091A00080688093A0008091A0008C
:102150008F7B8093A000D093A900C093A80037C0C4
:102160008091A00080628093A000D093AB00C093C8
:10217000AA002DC08091A00088608093A000D09319
:10218000AD00C093AC0023C0809120018068809393
:102190002001D0932901C093280119C0809120010A
:1021A000806280932001D0932B01C0932A010FC03D
:1021B00080912001886080932001D0932D01C093ED
:1021C0002C0105C0C038D1050CF04ECF48CFDF91AF
:1021D000CF911F91089590E0FC013197E231F10514
:1021E00008F04CC0EF55FF4F0C94451480918000CF
:1021F0008F7703C0809180008F7D80938000089549
:1022000080918000877FF9CF84B58F7702C084B535
:102210008F7D84BD08958091B0008F7703C0809139
:10222000B0008F7D8093B0000895809190008F77EB
:1022300007C0809190008F7D03C080919000877FC0
:102240008093900008958091A0008F7707C08091BF
:10225000A0008F7D03C08091A000877F8093A000A5
:102260000895809120018F7707C0809120018F7D94
:1022700003C080912001877F809320010895CF9330
:10228000DF9390E0FC01E35FFD4F2491FC01ED5AE8
:10229000FD4F8491882349F190E0880F991FFC013C
:1022A000E353FD4FA591B4918D549D4FFC01C59111
:1022B000D4919FB7611108C0F8948C912095822326
:1022C0008C93888182230AC0623051F4F8948C91F7
:1022D000322F309583238C938881822B888304C08E
:1022E000F8948C91822B8C939FBFDF91CF910895AE
:1022F0000F931F93CF93DF931F92CDB7DEB7282F95
:1023000030E0F901E953FE4F8491F901E35FFD4F9D
:102310001491F901ED5AFD4F04910023C9F088236F
:1023200021F069830E94EB106981E02FF0E0EE0F4D
:10233000FF1FED54FD4FA591B4919FB7F8948C9178
:10234000611103C01095812301C0812B8C939FBF25
:102350000F90DF91CF911F910F910895CF93DF934D
:10236000282F30E0F901E953FE4F8491F901E35F32
:10237000FD4FD491F901ED5AFD4FC491CC2391F05A
:1023800081110E94EB10EC2FF0E0EE0FFF1FE756DB
:10239000FD4FA591B4912C912D2381E090E021F483
:1023A00080E002C080E090E0DF91CF9108950E942C
:1023B0004F14FC01818D228D90E0805C9F4F821B29
:1023C00091098F7399270895FC01918D828D98173B
:1023D00031F0828DE80FF11D858D90E008958FEF2B
:1023E0009FEF0895FC01918D828D981761F0828D89
:1023F000DF01A80FB11D5D968C91928D9F5F9F7339
:10240000928F90E008958FEF9FEF08958DEA93E10A
:10241000892B41F084E094E0892B21F00E94AD13D8
:10242000811125C080E090E0892B41F080E090E0B0
:10243000892B21F00E94000081111CC080E090E0F7
:10244000892B41F080E090E0892B21F00E94000070
:10245000811113C080E090E0892BA1F080E090E032
:10246000892B81F00E94000081110AC008950E940A
:102470000404D8CF0E940000E1CF0E940000EACF00
:102480000C9400000895FC01848DDF01A80FB11D9C
:10249000A35ABF4F2C91848D90E001968F7399279A
:1024A000848FA689B7892C93A089B1898C91806487
:1024B0008C93938D848D981306C00288F389E02D48
:1024C00080818F7D80830895CF93DF93EC01888D89
:1024D0008823C9F0EA89FB89808185FD05C0A88928
:1024E000B9898C9186FD0FC00FB607FCF5CF8081AE
:1024F00085FFF2CFA889B9898C9185FFEDCFCE01F8
:102500000E944312E7CFDF91CF910895CF92DF92DF
:10251000FF920F931F93CF93DF931F92CDB7DEB738
:102520006C0181E0D60158968C9358975B969C91EC
:102530005B975C968C915C97981307C05096ED91D1
:10254000FC915197808185FD2EC0F601038D10E02E
:102550000F5F1F4F0F731127F02EF601848DF812B5
:1025600011C00FB607FCF9CFD6015096ED91FC9142
:102570005197808185FFF1CFC60169830E94431284
:102580006981EBCF838DE80FF11DE35AFF4F608324
:10259000D6015B960C935B975296ED91FC91539705
:1025A000808180620CC0D6015696ED91FC915797C0
:1025B00060835096ED91FC91519780818064808377
:1025C00081E090E00F90DF91CF911F910F91FF90EC
:1025D000DF90CF900895BF92CF92DF92EF92FF925B
:1025E000CF93DF93EC016A017B01B22EE889F98970
:1025F00082E08083411581EE580761057105A1F0E5
:1026000060E079E08DE390E0A70196010E94231439
:10261000215031094109510956954795379527951C
:10262000211580E1380798F0E889F989108260E87F
:1026300074E88EE190E0A70196010E9423142150D6
:102640003109410951095695479537952795EC85EC
:10265000FD853083EE85FF852083188EEC89FD890A
:10266000B082EA89FB89808180618083EA89FB8965
:10267000808188608083EA89FB898081806880838B
:10268000EA89FB8980818F7D8083DF91CF91FF90E4
:10269000EF90DF90CF90BF9008951F920F920FB6EA
:1026A0000F9211240BB60F922F938F939F93EF935A
:1026B000FF93E0912E06F0912F068081E091340681
:1026C000F091350682FD12C09081809137068F5FB0
:1026D0008F7320913806821751F0E0913706F0E0B1
:1026E000E25EF94F958F8093370601C08081FF919C
:1026F000EF919F918F912F910F900BBE0F900FBE76
:102700000F901F9018951F920F920FB60F921124E1
:102710000BB60F922F933F934F935F936F937F93DB
:102720008F939F93AF93BF93EF93FF938EE196E0C8
:102730000E944312FF91EF91BF91AF919F918F91B2
:102740007F916F915F914F913F912F910F900BBEB1
:102750000F900FBE0F901F9018958EE196E00E948B
:10276000D91121E0892B09F420E0822F08951092DD
:1027700021061092200688EE93E0A0E0B0E080935E
:10278000220690932306A0932406B093250687E59E
:1027900092E090931F0680931E0685EC90E0909344
:1027A0002B0680932A0684EC90E090932D0680936C
:1027B0002C0680EC90E090932F0680932E0681ECFF
:1027C00090E0909331068093300682EC90E09093F5
:1027D00033068093320686EC90E090933506809322
:1027E000340610923706109238061092390610926D
:1027F0003A060895CF92DF92EF92FF920F931F93C4
:10280000CF93DF936C017A01EB01E60EF71E00E037
:1028100010E0CE15DF0561F06991D601ED91FC91D4
:102820000190F081E02DC6011995080F191FF1CF15
:10283000C801DF91CF911F910F91FF90EF90DF9032
:10284000CF9008950895A1E21A2EAA1BBB1BFD018B
:102850000DC0AA1FBB1FEE1FFF1FA217B307E4077F
:10286000F50720F0A21BB30BE40BF50B661F771FD7
:10287000881F991F1A9469F76095709580959095B7
:102880009B01AC01BD01CF010895EE0FFF1F059024
:10289000F491E02D19940790F691E02D199481E0C0
:1028A00090E0F8940C949614FB01DC0105900D92D5
:1028B0000020E1F70895FC0105900020E9F78095DC
:1028C00090958E0F9F1F0895DC01CB01FC01F999B3
:1028D000FECF06C0F2BDE1BDF89A319600B40D926C
:1028E00041505040B8F70895DC01A40FB51F415086
:1028F000504048F0CB01840F951F2E910E94851403
:1029000041505040D0F70895262FF999FECF92BD3F
:1029100081BDF89A019700B4021639F01FBA20BDA4
:102920000FB6F894FA9AF99A0FBE0895F894FFCF6B
:102930000000BF0680000100000000D71100000069
:1029400000D71100000000D71100000000C501D71A
:102950001100000000C501620800000000CA011754
:102960000400000000AA01FEFF0000B401FCFF000B
:1029700000B70100000000320B050BAB0AB30AC61A
:102980000AD50A000000008612FA13D911F211E4E8
:0429900011641200BC
:00000001FF
