:100000000C94B4000C94DC000C94DC000C94DC0028
:100010000C94DC000C94DC000C94DC000C94DC00F0
:100020000C94DC000C94DC000C94DC000C94A12BF0
:100030000C94DC000C94DC000C94DC000C94DC00D0
:100040000C941B2E0C94DC000C9486310C94B8316B
:100050000C94DC000C94DC000C94DC000C94DC00B0
:100060000C9478130C94DC00D318E718FD181919B8
:100070003D196B198A19C1196818FB199218B5181E
:100080001C1A361ABD18C118DB18F1180D192B19D6
:100090005F197E19A61ADA19EF19FB19A918101A97
:1000A000411A687474703A2F2F6769746875622EEC
:1000B000636F6D2F776865656C65722D6D6963720E
:1000C0006F666C7569646963732F64726F70626FB9
:1000D000742D64782E67697400302E322E706F7321
:1000E00074313500576865656C6572204C6162003B
:1000F00064726F70626F745F64780064726F7062B4
:100100006F742D64780000000000080002010000F8
:1001100003040700000000000000000102040810B2
:10012000204080010204081020010204081020046D
:10013000040404040404040202020202020303038E
:100140000303030000000023002600290000000034
:1001500000250028002B0000000000240027002AB2
:100160000000C808BD15E83111241FBECFEFD8E04C
:10017000DEBFCDBF13E0A0E0B1E0EAE7F7E602C0E2
:1001800005900D92A83DB107D9F727E0A8EDB3E09F
:1001900001C01D92AA39B207E1F711E0C8E6D1E02B
:1001A00004C02297FE010E94FA32C236D107C9F775
:1001B0000E9451120C94BB330C940000CF93DF9338
:1001C00000D000D000D0CDB7DEB720E829831A8256
:1001D0001B821C828F559E4F9E838D8330E040E0B2
:1001E00050E0682F7E8180E090E026960FB6F8946C
:1001F000DEBF0FBECDBFDF91CF91089502970C9463
:10020000DE0004970C94DE00E0917605F09177050E
:100210000280F381E02DBC0186E795E00994FC01A2
:100220008789908D892B39F0818D928D892B79F476
:1002300081E090E002C080E090E0DC01AA0FBB1FEB
:10024000AE0FBF1F58967C936E93579708958FEF0C
:100250000895FC0120E030E04789508D452B49F49A
:10026000F901EE0FFF1FE80FF91F708F678B822FC8
:1002700008952F5F3F4F32962430310569F78FEF95
:1002800008957F928F929F92AF92BF92CF92DF920A
:10029000EF92FF920F931F93CF93DF937C01EB01BB
:1002A000942E8C016C0184E0C80ED11C712C812C21
:1002B0005701A2E0AA0EB11C9920A1F0F80187898C
:1002C000908D009779F0DC01ED91FC91D701569665
:1002D0004C9150E00480F581E02D9E01B501099517
:1002E000811113C00E5F1F4F0C151D0529F77110EA
:1002F00023C0EA81FB8181818F708730E9F08824F7
:100300008394911019C0812C17C0F8018789908DB2
:10031000DC01ED91FC91AA81BB8114962C9130E017
:100320004C895D89688579850280F381E02D099586
:10033000882E77247394D6CF882DDF91CF911F918B
:100340000F91FF90EF90DF90CF90BF90AF909F9074
:100350008F907F900895623030F4FC01E60FF11D1C
:10036000428380E008958FEF08957F928F929F924D
:10037000AF92BF92CF92DF92EF92FF920F931F93B3
:10038000CF93DF937C01EB01942E8C016C0188E00C
:10039000C80ED11C712C812C5701A2E0AA0EB11CF1
:1003A0009920A1F0F8018789908D009779F0DC0100
:1003B000ED91FC91D70156964C9150E00480F58167
:1003C000E02D9E01B5010995811113C00E5F1F4FED
:1003D0000C151D0529F7711023C0EA81FB8181816D
:1003E0008F708730E9F088248394911019C0812C94
:1003F00017C0F8018789908DDC01ED91FC91AA81ED
:10040000BB8114962C9130E04C895D896885798593
:100410000280F381E02D0995882E77247394D6CF3E
:10042000882DDF91CF911F910F91FF90EF90DF907A
:10043000CF90BF90AF909F908F907F900895623043
:1004400030F4FC01E60FF11D428380E008958FEF48
:100450000895FC0183819481892B51F081E0FB0197
:100460004081518162817381452B462B472B09F4D2
:1004700080E00895FB01DC0113968D919C91149707
:10048000892B31F061E080810E94A72F81E00895DF
:1004900080E00895FC01828193810C94AF17CF9383
:1004A000DF93EC010E944A021C82DF91CF910895F4
:1004B0002130310549F4DC01ED91FC910680F78192
:1004C000E02DDA014C91099480E00895CF93DF93F9
:1004D000FC01452B39F4E901AA81BB8181E022812D
:1004E0009C91291380E0DF91CF910895243031054C
:1004F00061F4DC01ED91FC91DA012D913D914D917A
:100500005C910680F781E02D099480E00895CF93F7
:10051000DF93FC01452B39F4E901AA81BB8181E01D
:1005200022819C91291380E0DF91CF910895EF9271
:10053000FF920F931F93CF93DF9300D000D000D092
:10054000CDB7DEB78C01F62EE72EBC018F2D9E2D88
:100550000E946933C8010E947033AC0160E070E012
:1005600049835A836B837C83FD82EE82282F3A81F4
:100570008B815C816F2D7E2D482F80E090E0269648
:100580000FB6F894DEBF0FBECDBFDF91CF911F91A4
:100590000F91FF90EF900895603428E37207810572
:1005A000910509F44CC030F5603B24E072078105E9
:1005B000910509F444C060F46C3221E072078105B2
:1005C0009105E9F16835724081059105D1F537C093
:1005D000603C22E172078105910589F1603825E2CE
:1005E00072078105910559F16036794081059105C1
:1005F00041F525C062312AE7720781059105F9F0BE
:1006000060F461152BE4720781059105C1F0603833
:10061000704781059105A9F412C0611521EE72079A
:100620008105910561F0611522EC720721E08207D6
:10063000910529F0611576498105910511F481E054
:10064000089580E00895FC0183819481892B39F01D
:10065000FB0160817181828193810C94CC0280E0E6
:1006600008950F931F93FC0183819481892BB1F02E
:10067000FB0160817181828193818B019C01085013
:10068000110921093109003711052105310530F41F
:1006900084E796E00E94751581E001C080E01F911B
:1006A0000F910895CF93DC011396ED91FC9114976F
:1006B000309791F0DB01CC91CF01875D9D4FCC232A
:1006C00029F0668977890E943E2D07C0638D748D5D
:1006D0000E943E2DC1E001C0C0E08C2FCF91089553
:1006E000CF93DC011396ED91FC911497309779F03C
:1006F000DB01CC91CC2329F061E080A10E94E02FA6
:1007000007C060E080A10E94E02FC1E001C0C0E00E
:100710008C2FCF91089508950F931F93CF93DF935C
:10072000EC011A86198600E010E02B813C81898556
:100730009A850217130760F4EF81F885E00FF11F27
:1007400060810E9496179A8789870F5F1F4FEDCFB0
:100750000E94AE179A878987DF91CF911F910F91E1
:100760000895CF93DF93EC0160E08AA50E94A72F44
:100770008FA5882349F08AA50E94163021E0892B95
:1007800009F420E0822F01C080E0DF91CF9108952D
:100790008F929F92AF92BF92EF92FF920F931F930F
:1007A000CF93DF93EC018C0104591F4FF801808136
:1007B0008823B1F07E01F7EDEF1AFDEFFF0AC701C4
:1007C0000E94C02D4C016E897F89888D998DAA2445
:1007D00097FCA094BA2C86169706A806B90679F558
:1007E000F8018081811116C07E0187EDE81A8DEF36
:1007F000F80AC7010E94C02D8C01222717FD209501
:10080000322F4E895F89688D798D04171507260769
:10081000370799F08E0102591F4FF8018081882314
:1008200091F0CE010E94B10381110DC088A10E94F8
:100830001630892B41F461E015C06B8D7C8DC701AA
:100840000E943E2DE7CFF8018081882329F0CE0158
:100850000E94B103882399F088A10E941630892B49
:1008600071F060E088A1DF91CF911F910F91FF900F
:10087000EF90BF90AF909F908F900C94E02FDF91FE
:10088000CF911F910F91FF90EF90BF90AF909F90ED
:100890008F9008958AED93E00E94CD1664E071E098
:1008A00084E796E00C94B815DC01ED91FC91028090
:1008B000F381E02D41E050E009940F931F93CF9313
:1008C000DF93EC018B01E881F9816F5F7F4F02803C
:1008D000F381E02D41E050E00995E881F981028043
:1008E000F381E02D41E050E0B801CE01DF91CF91DE
:1008F0001F910F910994FC01E158FF4F0190F08185
:10090000E02D2189222359F083589F4FDC01ED917E
:10091000FC910190F081E02D099580E00895808997
:100920000895FC01E158FF4F0190F081E02D2189ED
:10093000222331F083589F4F0E944F0280E0089598
:10094000808908950F931F93CF93DF93EC018B0160
:10095000E881F9816F5F7F4F0280F381E02D41E0F4
:1009600050E00995E881F9810280F381E02D41E0B2
:1009700050E0B801CE01DF91CF911F910F91099402
:10098000CF92DF92EF92FF920F93CF93DF93CDB789
:10099000DEB768970FB6F894DEBF0FBECDBF6C010F
:1009A0002A8B3B8B4C8B5D8B6E8B7F8B088F4A89A0
:1009B0005B896C897D898FEF9FEF9B878A87FA829D
:1009C000E9820B838E899F895F834E83998788870D
:1009D0005D834C83CE0101960E948C038CE79CE7DB
:1009E000ACE7B0E08C879D87AE87BF87D6018D913D
:1009F0009C91DC01ED91FC910280F381E02D43E0BC
:100A000050E0BE01645F7F4F0995BE016F5F7F4F6D
:100A1000F601808191810E94A204D6018D919C9162
:100A2000DC01ED91FC910280F381E02D41E050E08A
:100A3000BE01685E7F4F09958B81843611F0833744
:100A400029F58C819D81998B888BBE01605F7F4FDA
:100A5000D6018D919C910E94A2044C815D8141152B
:100A6000510561F0F60180819181DC01ED91FC91ED
:100A7000688579850280F381E02D0995BE01665F66
:100A80007F4FF601808191810E94A20468960FB683
:100A9000F894DEBF0FBECDBFDF91CF910F91FF90D5
:100AA000EF90DF90CF900895CF93DF93EC011E8AF3
:100AB000188E1F8A1A8E198E1C8E1B8E1E8E1D8EEE
:100AC00081E691E09983888381E391E098A38F8FF9
:100AD0001BA21AA282E089A38DE391E09DA38CA3BF
:100AE00018A61FA283E08EA389E491E09AA789A7A4
:100AF0001DA61CA684E38BA785E591E09FA78EA782
:100B00001AAA19AA81E088ABBE01615E7F4FCE01AF
:100B10000E942901E881F981BE016C5D7F4F02804E
:100B2000F381E02DCE010995E881F981BE01675D71
:100B30007F4F0280F381E02DCE010995E881F98194
:100B4000BE01625D7F4F0280F381E02DCE01DF9117
:100B5000CF9109948F929F92AF92BF92CF92DF92E2
:100B6000EF92FF920F931F93CF93DF93EC018FE0EF
:100B700091E09983888385E191E09B838A838BE16F
:100B800091E09D838C83CE01C0960E945405FE01A6
:100B9000E759FF4F87EC91E0918380838E010159E3
:100BA0001F4F7C961082D80158961C921E92579720
:100BB0005A961C921E92599781E891E08D939C93CE
:100BC000359689E691E0918380831482138282E0D6
:100BD0008283359685E791E0918380831482138226
:100BE00081E08283B801655E7F4FC8010E940F01DA
:100BF000D801ED91FC91B801605E7F4F0280F381D6
:100C0000E02DC8010995FE01E559FF4F8FEA91E0FB
:100C100090AB87A7EF57FF4F118210821282148288
:100C2000138288248A94982C9286818650E5A52E7A
:100C3000B12CB682A582CE0184569F4F90878783C0
:100C400008571F4FD8011C9211961C9211971D96A0
:100C50001C921E921C971F961C921E921E975396D2
:100C60001C921E92529791961C921E9290975596A6
:100C7000FC93EE935497C8010E94AF177E01B7EE24
:100C8000EB1ABEEFFB0A61E2C62E61E0D62EF70139
:100C9000D182C08213830283C7010E944A0289E283
:100CA00091E0D7018D939C93FE01E35EFE4F89EFA7
:100CB00096E091838083EE5AFF4F11821082128258
:100CC0001482138292868186B682A582CE01815ECD
:100CD0009E4F908787830D571F4FD8011C92119606
:100CE0001C9211971D961C921E921C971F961C9287
:100CF0001E921E9753961C921E92529791961C928A
:100D00001E9290975596FC93EE935497C8010E94BB
:100D1000AF177E01B4E6EB1ABEEFFB0AF701D182F2
:100D2000C08213830283C7010E944A0289E891E0CE
:100D3000D7018D939C93FE01E056FE4F1082C701B0
:100D40000E944F0281E991E09983888387E991E0CD
:100D50009B838A838DE991E09D838C83CE01875D9F
:100D60009D4FDF91CF911F910F91FF90EF90DF90FA
:100D7000CF90BF90AF909F908F900C945D2CEF928E
:100D8000FF920F931F93CF93DF93CDB7DEB7E89712
:100D90000FB6F894DEBF0FBECDBF8C01FC01ED593C
:100DA000FF4FE080F18060E070E08FA998AD0E9475
:100DB000321E2BA73CA74DA75EA76FA778AB89ABC8
:100DC0009AABAE014F5F5F4FB701CE018B960E9489
:100DD00042248AE2FE013196D80101900D928A9553
:100DE000E1F7E8960FB6F894DEBF0FBECDBFDF91F6
:100DF000CF911F910F91FF90EF900895EF92FF9286
:100E00000F931F93CF93DF93CDB7DEB72A970FB61B
:100E1000F894DEBF0FBECDBF8C01FC01EF59FF4F30
:100E2000F080E1803497408151816F2D7E2DCE017D
:100E300001960E942126F801ED59FF4F60817181D2
:100E4000A801CE0101960E940B2A882329F08F81E8
:100E50009885A0E0B0E005C0F12CE12C80E090E0A6
:100E6000DC0189839A83AB83BC83FD82EE82282FC9
:100E70003A814B815C816F2D7E2D80E090E02A9637
:100E80000FB6F894DEBF0FBECDBFDF91CF911F919B
:100E90000F91FF90EF900895CF92DF92EF92FF9223
:100EA0000F931F93CF93DF93CDB7DEB769970FB63C
:100EB000F894DEBF0FBECDBF8C017B016901CE016E
:100EC00001960E94C11A882309F4ADC0A601B7019A
:100ED000CE010D960E94C11A882309F4A4C0EB81AB
:100EE000FC812181822F807C09F092C02073203107
:100EF00031F4EB85FC858081882339F00CC02032E9
:100F000021F4EB85FC85C08008C0CC24C394222347
:100F100021F0C12C02C0CC24C394D801ED91FC91E6
:100F20000190F081E02D4C2DBE016F5F7F4FC80115
:100F3000298F09958823D9F0EB81FC81448150E009
:100F400069857A858D899E890E947933298D203122
:100F500031F4EB85FC858081EF89F88D07C0203264
:100F600031F4EF89F88DAB85BC858C918083CC20E2
:100F700009F44EC0AB81BC8111968C9111978F7092
:100F8000873009F045C0EB85FC858081EF89F88DBD
:100F90008083F8012689822F90E0FC013196EE0FC4
:100FA000FF1FEE0FFF1FE00FF11FB183A083FC01B5
:100FB000EE0FFF1FEE0FFF1FE00FF11F89819A81D7
:100FC000938382832F5FD80156962C93E12CF12CCA
:100FD000D12CEC14FD04C4F4EB81FC8184818E9D42
:100FE000802D112490E02D893E89280F391F4985D5
:100FF0005A85480F591F66817781C8010E944C07A6
:10100000BFEFEB1AFB0AE5CFF80186898150868B8A
:10101000CE0101960E94E11A882329F0CE010D9697
:101020000E94E11A59CF69960FB6F894DEBF0FBE41
:10103000CDBFDF91CF911F910F91FF90EF90DF9087
:10104000CF9008958F929F92AF92BF92EF92FF92AE
:101050000F931F93CF93DF93CDB7DEB7EE970FB605
:10106000F894DEBF0FBECDBF8C01FC01E35AFF4FE9
:1010700086E0DE01D99601900D928A95E1F789AC60
:101080009AACABACBCACEDACFEAC42E050E060E086
:1010900070E0CE0101960E94893349815A81CA01CC
:1010A000A0E0B0E088169906AA06BB0640F062E010
:1010B00070E0C7010E94893369817A8105C0E12C03
:1010C000F12C60E070E0CB0198012D593F4F5901A0
:1010D000E114F10421F4C8010E94BF0615C0C70144
:1010E0000E94321E29833A834B835C836D837E8307
:1010F0008F839887F50160817181A801CE010196E7
:101100000E94BE22882339F3F801EF59FF4FE08097
:10111000F180F5018080918060E070E08FA998AD4A
:101120000E94321E2BA73CA74DA75EA76FA778ABE6
:1011300089AB9AABAE014F5F5F4FB401CE018B9686
:101140000E9442248AE2FE013196D70101900D925D
:101150008A95E1F7F50160817181F801E05CFF4F4C
:1011600010829701A801C8018A960E944C07EE964A
:101170000FB6F894DEBF0FBECDBFDF91CF911F91A8
:101180000F91FF90EF90BF90AF909F908F90089538
:101190008AED93E00E94AA058AED93E09093D9032B
:1011A0008093D8030895CF93DF93E091F304F091F7
:1011B000F404C281D38189EF96E00E944130BC01E2
:1011C00083EF94E0FE01DF91CF910994BF92CF921B
:1011D000DF92EF92FF920F931F93CF93DF931F92B3
:1011E000CDB7DEB78C017B0184E796E00E94AD1499
:1011F000B82E81E0E81AF108F8018481811101C05C
:10120000B482C12CD12CCE14DF04A4F484E796E080
:101210000E94AD148983F8018481B81207C0BE0111
:101220006F5F7F4F828193810E94CE17FFEFCF1AAD
:10123000DF0AE9CF0F90DF91CF911F910F91FF90BF
:10124000EF90DF90CF90BF900895EF92FF920F93B1
:101250001F93CF93DF93CDB7DEB769970FB6F8949E
:10126000DEBF0FBECDBF7C012B8B3C8B4D8B5E8BCD
:101270006F8B788F098F4B895C896D897E891A8283
:1012800019828FEF9FEF9B878A870B838F89988DB9
:101290005F834E83998788875D834C83CE01019657
:1012A0000E948C038CE79CE7ACE7B0E08C879D87BD
:1012B000AE87BF878091BA0086958A8BF7016081DF
:1012C00084E796E00E949815BE016E5E7F4F84E72A
:1012D00096E00E94540443E050E0BE01645F7F4FFB
:1012E00084E796E00E94FF14BE016F5F7F4F84E7A2
:1012F00096E00E945D04BE01675E7F4F84E796E042
:101300000E9454048C819D81998B888BBE01605F03
:101310007F4F84E796E00E945D0484E796E00E9498
:10132000B5150C811D810115110551F10032110512
:1013300010F00FE110E0F701608184E796E00E9471
:101340009815BE016E5E7F4F84E796E00E945404BC
:1013500068857985A80184E796E00E94FF1484E7F8
:1013600096E00E94B51588859985800F911F998711
:1013700088878C819D81801B910B9D838C83D1CF2D
:10138000F701608184E796E00E949815BE016E5EC9
:101390007F4F84E796E00E945404BE01665F7F4F52
:1013A00084E796E00E945D0484E796E00E94B5150C
:1013B00069960FB6F894DEBF0FBECDBFDF91CF9117
:1013C0001F910F91FF90EF9008954F925F926F924F
:1013D0007F92AF92BF92CF92DF92EF92FF920F93E4
:1013E0001F93CF93DF93CDB7DEB7CE5BD1090FB696
:1013F000F894DEBF0FBECDBFFC01CD54DF4F288374
:10140000C35BD040CC54DF4F3883C45BD040CB5457
:10141000DF4F4883C55BD040CA54DF4F5883C65B5B
:10142000D040C954DF4F6883C75BD040C854DF4FFA
:101430007883C85BD040C754DF4FC882C95BD040B7
:10144000C654DF4FD882CA5BD040C554DF4FE88214
:10145000CB5BD040C454DF4FF882CC5BD040C35448
:10146000DF4F0883CD5BD040C254DF4F1883CE5B83
:10147000D040C954DF4FA881B981C75BD040C35465
:10148000DF4F08811981CD5BD0402D913C911197A0
:101490002C3F83E0380709F451C408F00CC1203117
:1014A000310509F4F5C208F0A2C02730310509F46E
:1014B0009FC208F079C02330310509F43BC2D0F552
:1014C000808191812130310509F4D0C108F000C23A
:1014D000DC01ED91FC910190F081E02D0995EC96F5
:1014E0006FAFEC97ED967FAFED97ED966EAD7FAD5C
:1014F000ED9786E091E00E949702E2962FAFE29787
:10150000E3963FAFE397E4964FAFE497E5965FAF7E
:10151000E597E6966FAFE697E7967FAFE797E59694
:10152000CCACDDACEEACFFACE597E7960EAD1FADF5
:10153000E79783C62530310509F430C208F050C260
:1015400080819181DC01ED91FC910190F081E02D91
:1015500009952C966FAF2C972D967FAF2D972D96D2
:101560006EAD7FAD2D9789ED90E00E949702229697
:101570002FAF229723963FAF239724964FAF249700
:1015800025965FAF259726966FAF269727967FAF54
:1015900027972596CCACDDACEEACFFAC2597279613
:1015A0000EAD1FAD279749C62B30310509F458C23F
:1015B00038F42930310509F433C208F427C23DC29A
:1015C0002D30310509F459C208F452C22E303105CC
:1015D00009F459C22F30310509F00DC613966C91EC
:1015E000139770E012968C910E941F2F0BC62F3F0D
:1015F00082E0380709F4FEC200F52E3F81E038078B
:1016000009F4BBC258F42231310509F488C208F448
:1016100051C22F3F310509F491C3EDC5211582E078
:10162000380709F4E2C208F4C2C22E3F324009F082
:10163000E2C58091BA008695ACC5233083E03807B7
:1016400009F418C320F52130A3E03A0709F400C3D8
:1016500008F00BC380819181DC011496ED91FC911F
:1016600015970190F081E02D0496099529A73AA7D6
:101670004BA75CA76DA77EA749A45AA46BA47CA422
:101680000DA51EA538E0B32EC12CD12CD8C2253013
:1016900083E0380709F429C308F4F6C22630A3E032
:1016A0003A0709F445C32730334009F0A4C58091B7
:1016B000BA008E7F40C32C3F86E0380709F40FC57F
:1016C00008F07FC0211585E0380709F445C428F5E6
:1016D0002C3F84E0380709F497C388F42E3F83E059
:1016E000380709F48AC308F433C32B3F344009F0A8
:1016F00082C58081918106960E94220883C5E08080
:10170000F1802E3FE4E03E0709F4AAC308F0D9C3F4
:10171000C70106960E94BF0675C52B3F85E03807B6
:1017200009F44BC498F5223085E0380709F42CC43D
:1017300008F421C42A3F354009F05DC5E080F180FE
:10174000BBE6EB0EF11CF701C7A4D0A860E070E087
:101750008D899E890E94321E29833A834B835C8344
:101760006D837E838F839887AE01455F5F4FB6019F
:10177000CE0101960E9442248B859C85AD85BE8555
:10178000F70180839183A283B3833CC5293F86E020
:10179000380709F489C428F42C3F354009F432C4D1
:1017A0002AC52A3F86E0380709F494C42B3F364007
:1017B00009F021C512966C91808191810E94C1151A
:1017C00021C5243087E0380709F4C1C420F5A08082
:1017D000B1802115E7E03E0709F498C460F42E3F7C
:1017E00086E0380709F482C408F08AC412966C9126
:1017F00070E0C501F3C42230F7E03F0709F48CC460
:1018000008F0A1C412966C9170E0C501875D9D4FF0
:101810000E94F72CF7C4283087E0380709F4BCC4CD
:1018200080F4263087E0380709F49EC40190F081E7
:10183000E02D2730374008F09DC4CF010E94C80337
:10184000E1C42A30A7E03A0709F4C3C408F4B9C4D4
:101850002B3087E0380709F4C6C42C30374009F034
:10186000CAC40190F081E02D60E0C1C4DC01ED91BB
:10187000FC910190F081E02D0995E0966FAFE09723
:10188000E1967FAFE197E1966EAD7FADE1978BEF8B
:1018900090E00E949702A6962FAFA697A7963FAF1B
:1018A000A797A8964FAFA897A9965FAFA997AA96B2
:1018B0006FAFAA97AB967FAFAB97A996CCACDDACD8
:1018C000EEACFFACA997AB960EAD1FADAB97B5C410
:1018D000DC01ED91FC910190F081E02D0995A49639
:1018E0006FAFA497A5967FAFA597A5966EAD7FAD78
:1018F000A59780EF90E00E9497026A962FAF6A97B3
:101900006B963FAF6B976C964FAF6C976D965FAFD2
:101910006D976E966FAF6E976F967FAF6F976D9660
:10192000CCACDDACEEACFFAC6D976F960EAD1FADE1
:101930006F9783C480819181DC01ED91FC910190CE
:10194000F081E02D099568966FAF689769967FAF33
:10195000699769966EAD7FAD699784EE90E00E94BD
:1019600097022E962FAF2E972F963FAF2F97609608
:101970004FAF609761965FAF619762966FAF629766
:1019800063967FAF63976196CCACDDACEEACFFACF9
:10199000619763960EAD1FAD63974FC480819181AF
:1019A000DC01ED91FC910190F081E02D09956FAF84
:1019B00021967FAF219721966EAD7FAD219782EA68
:1019C00090E00E9497022DAB3EAB4FAB58AF69AF92
:1019D0007AAFCDA8DEA8EFA8F8AC09AD1AAD2DC43A
:1019E0000E94712EF801608371838283938308C003
:1019F0000E94652ED8016D937D938D939C931397D0
:101A000054E0C52ED12CE12CF12C17C412968D91E7
:101A10009C911397009709F4F5C30E94BC2EF2C362
:101A200012966D917C9113976115710509F4EAC3C3
:101A300080E090E00E94942EE5C3209196073091BB
:101A400097078DB79EB72115310519F48A5997402C
:101A500002C0821B930BAA2797FDA095BA2F72C1D3
:101A600013966C91139712968C910E94A72FCAC35C
:101A700012968C910E9416308CC313966C9113971A
:101A800012968C91B5C312968C910E94022FB4C00D
:101A90009D012E5F3F4F16968D919C911797820F57
:101AA000931F17969C938E93169712968D919C91E7
:101AB0001397D2C0FD01329616968D919C9117977F
:101AC0008E0F9F1F17969C938E93169786E0DE01CC
:101AD000A955BF4F01900D928A95E1F786E0FE016E
:101AE000E955FF4FDE01AF55BF4F01900D928A952A
:101AF000E1F7CB55DF4F08811981C55AD040CF554A
:101B0000DF4FC880D980EA80FB80C15AD04042E0D4
:101B1000CC0CDD1CEE1CFF1C4A95D1F78EC3FD01D9
:101B2000329616968D919C9117978E0F9F1F179640
:101B30009C938E93169786E0DE01A556BF4F0190C9
:101B40000D928A95E1F786E0FE01E556FF4FDE0132
:101B5000AB56BF4F01900D928A95E1F7CB56DF4F00
:101B6000C880D980EA80FB80C559D040C756DF4F76
:101B700008811981C959D04060C39D012E5F3F4F34
:101B800018968D919C911997820F931F19969C938B
:101B90008E93189712962D913C91139714964D9110
:101BA0005D916D917C911797F894B90155C1149688
:101BB000CD90DC9015971296ED90FC901397808154
:101BC0009181DC011296ED91FC9113970190F081C7
:101BD000E02D029609956BAB7CAB0BA91CA9A60165
:101BE000B701C8010E94893307C28FEF93E0A0E0DC
:101BF000B0E0A8C080E290E0F801918380832FC01C
:101C00006B2D84E796E00E94981584E796E00E9489
:101C1000B51581110FC07601BFEFEB1AFB0AF80171
:101C2000EC0DFD1DB08261E070E080E090E00E946C
:101C3000942E6701B394E8E7BE1609F4DDC1C6012E
:101C4000A0E0B0E084159505A605B705C8F2D4C19B
:101C500084E796E00E94A514D8018D939C9322E01E
:101C6000C22ED12CE12CF12CE8C284E796E00E9430
:101C7000AD14A0C213964C91139712966C9184E701
:101C800096E00E94951585C21396DC9013971296E4
:101C9000FC9080819181DC011496ED91FC91159767
:101CA0000190F081E02D049609956FA378A70FA10C
:101CB00018A54D2D6F2D84E796E00E949515B02E46
:101CC0007801CE2CCB1884E796E00E94A514892BCE
:101CD00031F084E796E00E94AD14CD1410F0D12CC1
:101CE0008BC1F70181937F01ECCFCD01029617964E
:101CF000AD90BC901897A80EB91E1896BC92AE92E3
:101D000017971396CD90DD90ED90FC901697129654
:101D10006C9184E796E00E949815A601B50184E7CE
:101D200096E00E94FF1484E796E00E94B5156AC20F
:101D30008091BA0081608093BA0064C289E490E027
:101D4000A0E0B0E0F80180839183A283B38358CEF2
:101D50009D012E5F3F4F17968D919C911897820F92
:101D6000931F18969C938E93179712961C91129717
:101D7000E080F18086E0FD013396DE01A157BF4F80
:101D800001900D928A95E1F786E0FE01E157FF4F41
:101D9000DE015D9601900D928A95E1F75701F4E618
:101DA000AF1AFEEFBF0AC5010E944F02C70180565D
:101DB0009E4FDC011C9304E62D8D3E8D4F8D58A166
:101DC00069A17AA10E9425090E94652E2B013C0180
:101DD0008701015E1E4F0E94652E641975098609F0
:101DE0009709683873418105910508F00FC2C80151
:101DF0000E94910481110AC2EECF808191818456A4
:101E00009E4F0E944F02FEC18081918106960E94E2
:101E1000FE062B873C874D875E876F87788B8F8583
:101E20009889892B09F4EEC186E0FE013B96DE011C
:101E3000119601900D928A95E1F7F89442E050E0F6
:101E400060E070E0CE0101960E94993349815A8189
:101E500062E070E08D819E810E9499337894D2C1B6
:101E6000C70106960E94FE06C757DF4F2883C95850
:101E7000D040C657DF4F3883CA58D040C557DF4FD0
:101E80004883CB58D040C457DF4F5883CC58D040FC
:101E9000C357DF4F6883CD58D040C257DF4F788398
:101EA000CE58D040C757DF4FC880D980EA80FB802A
:101EB000C958D040C357DF4F08811981CD58D04051
:101EC000BCC1FD01329616968D919C9117978E0F8D
:101ED0009F1F17969C938E93169726E0DE01AD57B1
:101EE000BF4F01900D922A95E1F726E0FE01ED57D4
:101EF000FF4FDE01579601900D922A95E1F7F70109
:101F0000E959FF4FC080D1806F89788D0E94321EC1
:101F100029833A834B835C836D837E838F83988789
:101F20005701E9E6AE0EB11CD5016D917C91A60179
:101F3000CE0101960E944224782E882309F4B1C074
:101F4000F50160817181B397108297012A5F3F4F3D
:101F5000A601C701C096A3C021E012968D919D9164
:101F60000D90BC91A02D892B8A2B8B2B09F420E09E
:101F7000F801208321C112966D917D918D919C91E4
:101F800015970E94CC0205C112966D917D918D919D
:101F90009C9115976B017C01B8E0CB1AD108E10840
:101FA000F108E0E7CE16D104E104F10408F0C9C05D
:101FB00084E796E00E947515EBC0E080F180F701A0
:101FC000E856FF4F00811181349740815181B8015B
:101FD000CE0101960E942126A70145595F4FF701C6
:101FE000E656FF4F60817181CE0101960E940B2A57
:101FF000882329F0CF80D884E12CF12C1EC100E089
:1020000010E000C19D012E5F3F4F16968D919C916F
:102010001797820F931F17969C938E931697C080E5
:10202000D18046E0F901DE01A358BF4F01900D9227
:102030004A95E1F726E0FE01E358FF4FDE011B96CB
:1020400001900D922A95E1F77601FBE6EF0EF11C67
:10205000D7019D96AD90BC909E976B857C850E9424
:10206000321E29833A834B835C836D837E838F8307
:102070009887F601E656FF4F60817181A501CE0178
:1020800001960E944224782E882359F0F70167A513
:1020900070A97A9610829701A501C70104960E9443
:1020A0004C07D8017C9288C080819181DC01ED9140
:1020B000FC910190F081E02D099529833A834B83AF
:1020C0005C836D837E83C980DA80EB80FC800D8128
:1020D0001E81B3C0808191810E94CD1693C0808102
:1020E0009181875D9D4F0E94C02D64C012966D91B5
:1020F0007C911397C501875D9D4F0E940B2D82C077
:10210000C501875D9D4F0E940C2E43C0C501875DB0
:102110009D4F0E94FD2C76C0C501875D9D4F0E949A
:10212000C02D6C01EE24D7FCE094FE2C81E0F5017B
:1021300046895789608D718DC416D506E606F70667
:1021400041F180E026C0C5010E94B10333C0019077
:10215000F081E02D80A10E94163021E0892B09F446
:1021600020E0D8012C9328C061E012968C910E9447
:10217000A72F1FC012962C91CF01875D9D4F222360
:1021800019F06689778902C0638D748D0E943E2D97
:1021900081E0D8018C9310C00190F081E02D12965F
:1021A0008C91882311F061E001C060E080A10E9461
:1021B000E02F81E0F8018083C12CD12C7601C394FB
:1021C0003CC080819181DC0156966D917C9157973E
:1021D00005C080819181FC01638D748D875D9D4F69
:1021E0000E943E2D0FC00190F081E02D61E080A1A2
:1021F0000E94E02F07C000E010E0CC24CA94DC2C41
:1022000076011BC0C12CD12C760117C0F701E15912
:10221000FE4F07811085C380D480E12CF12CF8E4B7
:10222000CF16D104E104F10428F0B7E4CB2ED12C71
:10223000E12CF12CC5010E944F02C355DF4FC8822B
:10224000D982EA82FB82CD5AD040CF54DF4F198326
:102250000883C15BD0402C2DC255DF4F3881CE5A48
:10226000D040C155DF4F4881CF5AD040C055DF4FD5
:102270005881C05BD040602FCE54DF4F7881C25B65
:10228000D04080E090E0C254DF4F0FB6F894DEBF3C
:102290000FBECDBFDF91CF911F910F91FF90EF90B7
:1022A000DF90CF90BF90AF907F906F905F904F90F6
:1022B00008958F929F92AF92BF92CF92DF92EF924A
:1022C000FF920F931F93CF93DF93CDB7DEB7629743
:1022D0000FB6F894DEBF0FBECDBFFC01CB0143812A
:1022E00054812281243619F44115510539F460E0F6
:1022F00080E02FEF4FEF30E090E02CC03781A085D9
:10230000032F3D83AE8385809680A12CB12CC82CF1
:1023100089829A82AB82BC8260E070E0242F4F8376
:10232000588769877A87632F3B87AC87DA80EB8091
:10233000FC801A2F388549855A857A2F0E94E50935
:102340002D873E874F87588B698B7A8B432F3F852C
:10235000952F872F29834A833B839C836D838E83AC
:10236000342F4B81592F782F80E090E062960FB682
:10237000F894DEBF0FBECDBFDF91CF911F910F91BB
:10238000FF90EF90DF90CF90BF90AF909F908F9095
:102390000895EF92FF920F93CF93DF93CDB7DEB7FF
:1023A0002C970FB6F894DEBF0FBECDBF86E794E042
:1023B0000E947B04882389F186E794E00E947B04D5
:1023C000882359F168ED73E086EC94E00E9459117E
:1023D00038875A876B877C87322F6885542F4A85C8
:1023E0008B859C85892B21F430E060E050E040E053
:1023F000232F3F83688759874A87E12CF12C04E615
:10240000362F452F5A856B857C8587EF94E00E9497
:10241000C00483EF94E00E944A0289EF94E00E9496
:102420009104882379F189EF94E00E949104882334
:1024300049F168ED73E089E495E00E9459113A830F
:102440005C836D837E83322F6A81542F4C818D8112
:102450009E81892B21F430E060E050E040E0232FA2
:1024600039836A835B834C8304E6362F452F5C8176
:102470006D817E818AE795E00E94250986E795E0D7
:102480000E944F028AED93E02C960FB6F894DEBFBF
:102490000FBECDBFDF91CF910F91FF90EF900C94C5
:1024A000C8030E94C72E0E948B030E944A04CEE6F6
:1024B000D0E30E94C9112097E1F30E946E30F9CF5A
:1024C000CF92DF92EF92FF920F931F93CF93DF9300
:1024D0001F92CDB7DEB77C016B0100E010E00C1558
:1024E0001D0584F489EF96E00E945A308983BE016D
:1024F0006F5F7F4FF701828193810E94CE170F5F3C
:102500001F4FEDCF0F90DF91CF911F910F91FF9053
:10251000EF90DF90CF9008951092730681E0809342
:1025200071061092700661E082E10E94E02F61E086
:1025300083E10E94E02FE9EBF0E080818E7F8083D1
:1025400080818D7F808388E48093B80085E48093C8
:10255000BC000895880F8093BA000895413208F0B6
:102560003FC0909173069111FCCF91E09093730658
:10257000209371062FEF2093060610924B06240F2E
:1025800020934A069093720690917206880F892BC9
:102590008093720680917006813041F4109270062B
:1025A000809172068093BB0085EC01C085EE80931C
:1025B000BC00809173068130E1F380914B06841753
:1025C00010F440914B062CE436E0FB01D9018A2F30
:1025D000821B841718F48D918193F9CF842F08956D
:1025E00080E008950F93413208F046C09091730641
:1025F0009111FCCF92E090937306009371069FEFC8
:102600009093060610924B0640934A06FB016CE439
:1026100076E0DB019A2F961B941718F491919D9305
:10262000F9CF1092720690917206880F892B8093D1
:10263000720680917006813041F41092700680918C
:1026400072068093BB0085EC01C085EE8093BC00D0
:10265000222321F0809173068230E1F380910606F7
:102660008F3F61F080910606803251F0809106061E
:10267000803341F483E007C081E005C080E003C0FF
:1026800082E001C084E00F910895613298F42091B6
:102690007306243089F460932806FC018AE296E0F0
:1026A000DC012A2F281B261718F421912D93F9CF2E
:1026B00080E0089581E0089582E0089590936D068A
:1026C00080936C06089590936F0680936E0608952C
:1026D00085ED8093BC008091BC0084FDFCCF1092FE
:1026E0007306089585EC8093BC00109273060895DC
:1026F0001F920F920FB60F9211242F933F934F9377
:102700005F936F937F938F939F93AF93BF93EF9359
:10271000FF938091B900887F803609F49CC068F5EA
:10272000883209F45BC090F4803109F454C038F465
:10273000882309F4F5C0883009F44DC0F5C088310C
:1027400009F44CC0803209F45DC0EEC0803409F455
:1027500068C048F4803309F455C0883309F0E4C0F8
:1027600080930606A8C0803509F44FC0883509F467
:102770005DC0883409F0D8C0D5C0883909F4C6C016
:10278000A8F4883709F467C038F4883609F463C0C0
:10279000803709F460C0C8C0883809F4B7C08039F0
:1027A00009F45FC0803809F0BFC05BC0803B09F40A
:1027B00085C038F4803A09F466C0883A09F47EC0CE
:1027C000B3C0803C09F4A6C0883C09F4A3C0883B90
:1027D00009F489C0A9C08091720610C090914B067F
:1027E00080914A06981770F5E0914B0681E08E0FB4
:1027F00080934B06F0E0E45BF94F80818093BB004F
:1028000085EC85C0809306068DC0E0914B0681E083
:102810008E0F80934B068091BB00F0E0E45BF94F94
:10282000808390914B0680914A066DC0E0914B06E3
:1028300081E08E0F80934B068091BB00F0E0E45B5B
:10284000F94F80838091710681116CC081E0809383
:10285000700684EA60C083E08093730610920706D6
:10286000CFCF80910706803208F050C0E091070674
:1028700081E08E0F809307068091BB00F0E0E85F57
:10288000F94F8083BDCF80910706803230F4E0910C
:102890000706F0E0E85FF94F10820E94681360912C
:1028A000070670E0E0916C06F0916D0688E096E016
:1028B0000995109207060E94721336C084E0809337
:1028C00073061092290610922806E0916E06F09188
:1028D0006F06099580912806811105C081E08093DB
:1028E000280610922A06E091290681E08E0F809337
:1028F0002906F0E0E65DF94F80818093BB0090915E
:10290000290680912806981708F47ACF85E88093E5
:10291000BC000AC085EC8093BC001092730604C012
:10292000109206060E946813FF91EF91BF91AF913C
:102930009F918F917F916F915F914F913F912F91D7
:102940000F900FBE0F901F9018958091A80690E0F1
:102950002091A906821B910908952091A9068091D2
:10296000A806281750F4E22FF0E0E655F94F8081D1
:1029700090E02F5F2093A90608958FEF9FEF0895B1
:10298000E091A9068091A806E81730F4F0E0E6553A
:10299000F94F808190E008958FEF9FEF089508959B
:1029A000E0918006F09181063097E1F03091A90620
:1029B0002091A8063217B0F040E0242F30E026170F
:1029C000370754F4DC01A20FB31F5C91D901A6555F
:1029D000B94F5C934F5FF1CF1092A9066093A806A0
:1029E000CB0109940895E0918206F0918306309717
:1029F00029F0109286061092850609940895CF92C8
:102A0000DF92EF92FF920F931F93CF93DF937C019E
:102A1000CB018A0120918406222389F0EB016B010E
:102A2000C40ED51ECC15DD0569F06991D701ED9175
:102A3000FC910190F081E02DC7010995F3CF642F3F
:102A40000E944513C801DF91CF911F910F91FF9014
:102A5000EF90DF90CF900895CF93DF931F92CDB783
:102A6000DEB76983209184062223D1F02091850668
:102A7000203240F021E030E0FC013383228380E00B
:102A800090E015C080918606E82FF0E0E957F94FF5
:102A9000998190838F5F809386068093850605C019
:102AA00061E0CE0101960E94451381E090E00F9015
:102AB000DF91CF910895FC011382128248EE53E01A
:102AC00060E070E0448355836683778383EA91E016
:102AD0009183808308951092A9061092A8061092FF
:102AE0008606109285060C948C12CF93DF93EC012E
:102AF000862F0E94AA1283EF94E10E94631380ED57
:102B000094E10E945E13CE01DF91CF910C946B157E
:102B1000862F413208F040E26AEA76E00E94AE1267
:102B20001092A9068093A806089521E00C948815B8
:102B300081E0809384066093A70610928606109227
:102B4000850608950F93062F21E04091850667E8DA
:102B500076E08091A7060E94F212109286061092EB
:102B60008506109284060F91089561E00C94A215D9
:102B70007093810660938006089584E796E00C9434
:102B80005B15CF92DF92EF92FF92CF93DF93EC0130
:102B9000262FC62ED12CE12CF12CFC01EC5AFF4F34
:102BA00083819481892B81F0B701A6014850510996
:102BB00061097109403751056105710528F4622FDB
:102BC00084E796E00E947515C98ADA8AEB8AFC8A46
:102BD000DF91CF91FF90EF90DF90CF9008950F930A
:102BE0001F93CF93DF93CDB7DEB762970FB6F894FC
:102BF000DEBF0FBECDBF8C0160E070E08D859E858D
:102C00000E94321E29833A834B835C836D837E83CB
:102C10008F839887AE01415F5F4FB801CE01019667
:102C20000E9442246F85788989899A8962960FB6B5
:102C3000F894DEBF0FBECDBFDF91CF911F910F91F2
:102C400008958F929F92AF92BF92CF92DF92EF92B0
:102C5000FF920F931F93CF93DF93CDB7DEB7EE971D
:102C60000FB6F894DEBF0FBECDBF8C01C62ED12C9F
:102C7000FC01E35AFF4F86E0DE01D99601900D92E8
:102C80008A95E1F789AC9AACABACBCACEDACFEACD0
:102C900042E050E0B601CE0101960E94893349819D
:102CA0005A81CA01A0E0B0E088169906AA06BB06C0
:102CB00048F0B6016E5F7F4FC7010E94893369817A
:102CC0007A8105C0E12CF12C60E070E0CB01980125
:102CD0002D593F4F6901E114F10421F4C8010E940C
:102CE000BF0615C0C7010E94321E29833A834B8359
:102CF0005C836D837E838F839887F6016081718109
:102D0000A801CE0101960E94BE22882339F3F80162
:102D1000EF59FF4FE080F180F601A080B18060E0C4
:102D200070E08FA998AD0E94321E2BA73CA74DA73B
:102D30005EA76FA778AB89AB9AABAE014F5F5F4FD1
:102D4000B501CE018B960E9442248AE2FE013196A3
:102D5000D70101900D928A95E1F7F60160817181AA
:102D6000F801E05CFF4F10829701A801C8018A9624
:102D70000E944C07EE960FB6F894DEBF0FBECDBF93
:102D8000DF91CF911F910F91FF90EF90DF90CF9047
:102D9000BF90AF909F908F900895CF92DF92EF9267
:102DA000FF920F931F93CF93DF93CDB7DEB7689752
:102DB0000FB6F894DEBF0FBECDBF8C01DC01ED91E4
:102DC000FC910190F081E02D09952B8B3C8B4D8B74
:102DD0005E8B6F8B788F86E0FE017396DE0117960F
:102DE00001900D928A95E1F7D801AD59BF4F86E069
:102DF000FE01379601900D928A95E1F7F801EE5A9F
:102E0000FF4F11830083359611830083359611831C
:102E100000833596118300837801B6E0EB0EF11C38
:102E2000C7010E94BF0660E0C7010E942116F80199
:102E300065A176A1C801875D9D4F0E94F72CD8013E
:102E4000ED91FC910190F081E02DC80109952D874D
:102E50003E874F87588B698B7A8B86E0FE013D96C3
:102E6000DE01119601900D928A95E1F77801BBE69B
:102E7000EB0EF11C86E0FE013196D7019996019088
:102E80000D928A95E1F7F801E357FF4F1183008314
:102E9000359611830083F70187A590A90E94EF154D
:102EA000D7016D937D938D939C931397F801E3590C
:102EB000FF4F81E080838C939D96CD90DC909E9710
:102EC0009F968D919C91D0970E94EF15F60160839B
:102ED000718382839383D7019F966D917C91D09764
:102EE000F801EB57FF4F10829601A701C701049626
:102EF0000E944C07F801448555856685778526E054
:102F000089EF96E00E9424318CE08093B8006896A7
:102F10000FB6F894DEBF0FBECDBFDF91CF911F91EA
:102F20000F91FF90EF90DF90CF9008958627682F44
:102F300062956827062E669566956025062E66952D
:102F400060256770082E892F669507946795902DE8
:102F50008627069467959025862708950895FC0195
:102F6000A489B58912961C92129714961C921E92EF
:102F700013978FEF9FEF1A969C938E931997138A4E
:102F8000128A108A118A1786168611A210A28CE066
:102F900090E093838283178E168E0895AF92BF922E
:102FA000CF92DF92EF92FF920F931F93CF93DF9315
:102FB0001F92CDB7DEB78C016115710581F4CE018A
:102FC0000196D80115969C938E93149717969C930F
:102FD0008E93169719969C938E93189707C0FC01B1
:102FE000758364836F5F7F4F77836683D801149600
:102FF0002D913C91159716968D919C9117972817B6
:10300000390709F057C071C2608180E090E00E94EA
:103010009617F801938B828B0488F589E02D078041
:10302000F085E02DD8011E968D919C911F979C01F3
:103030002F5F3F4F1F963C932E931E9714962D9112
:103040003C911597D9012C91E80FF91F2083F801C5
:1030500026853785848595852817390709F011C29B
:10306000068CF78DE02DCF010197D8015F969C93D8
:103070008E935E973A96EE0FFF1FE00FF11F80814F
:10308000918113969C938E931297D8011296ED918D
:10309000FC911397EF30F10508F454C2F8018481D4
:1030A00095810196958384832681378182179307C2
:1030B00009F41BC2D8011296ED91FC911397319738
:1030C000EE30F10508F0EBC1EC5CFF4F0C94F832E8
:1030D000D8015496ED91FC915597F184E12CF2863C
:1030E000E18614968D919C911597DC018C91970146
:1030F000280F311DC90132872187D80152962D91A1
:103100003C9153978217930749F481E050968C9332
:1031100050971E968D919C911F9719C081E0F801E0
:10312000818B17C0D8011C968D919C911D97549648
:10313000ED91FC915597258136812817390718F4B0
:1031400021E051962C9321E0D80150962C93948342
:103150008383F801848195810196958384832681F8
:1031600037818217930709F49AC1D8011496ED911B
:10317000FC91159780818C3721F0F801138212821F
:10318000F4C1D80114968D919C91159701961596CE
:103190009C938E93149716962D913C9117978217B6
:1031A000930709F47FC1D8011496ED91FC9115970E
:1031B00080818C3711F7F801848195810196958380
:1031C0008483268137818217930709F46EC1D80161
:1031D0001496ED91FC91159780818C3771F650967D
:1031E0001C92F801848195810196958384832681C0
:1031F00037818217930709F460C1D8015496ED9185
:10320000FC9155971182108214968D919C9115977F
:10321000DC018C9190E091838083F8018481958119
:10322000019695838483268137818217930709F459
:1032300047C1D8015496ED91FC91559714968D9104
:103240009C911597DC018C91B080A12C9501282BC5
:10325000C90191838083D80114968D919C91159713
:10326000019615969C938E93149716962D913C91EA
:1032700017978217930709F426C1D8011496ED9188
:10328000FC91159780818436A1F068F4813609F0AD
:1032900074CFD8015496ED91FC915597828381E0CB
:1032A00050968C9356CF8E3609F493C0833709F02D
:1032B00064CFD8015496ED91FC9155978283F80123
:1032C0008481958101969583848326813781821735
:1032D000930709F4FBC0D80191961C921E92909717
:1032E0001D961C921E921C971496ED91FC911597B9
:1032F000808190E01D969C938E931C97F8018481A9
:10330000958101969583848326813781821793075F
:1033100009F4DFC0D8011C96DC901C97C12C1D96C7
:10332000DC92CE921C971496ED91FC9115978081BA
:10333000F601E80FF11DCF011D96FC93EE931C974B
:103340005496ED91FC9155972581368128173907C0
:1033500018F481E051968C93D8015E96ED91FC9122
:103360005F97CF0101965F969C938E935E973B96F5
:10337000EE0FFF1FE00FF11F88E090E09183808344
:103380004FC0D80152968D919C9153970E94AE17D1
:10339000F801938B828B0488F589E02D12861186C3
:1033A000D80114968D919C911597DC018C9190E039
:1033B00092878187F8018481958101969583848322
:1033C000268137818217930709F082CE89E090E049
:1033D00089C0D8015496ED91FC9155978283F801EC
:1033E0008481958101969583848326813781821714
:1033F000930709F471C0D80114968D919C9115978B
:10340000019615969C938E93149716962D913C9148
:1034100017978217930709F085CE8BE090E062C082
:10342000F801848195810196958384832681378173
:103430008217930709F453C0D8011F961C921E925D
:103440001E9753961C921E9252971C968D919C919A
:103450001D971496ED91FC911597892B09F0D4CD09
:1034600031971596FC93EE93149765C0D801149686
:10347000ED91FC911597608152968D919C91539797
:10348000C6CDF80184819581019695838483268138
:1034900037818217930751F78EE090E023C08CE0CC
:1034A00090E005C081E090E01DC082E090E0D8018E
:1034B00013969C938E93129718C083E090E012C0ED
:1034C00084E090E0F4CF85E090E00CC086E090E0EE
:1034D000EECF87E090E006C08AE090E0E8CF8DE094
:1034E00090E0E5CFF80193838283D80114968D9103
:1034F0009C91159718962D913C91199782179307D7
:10350000A1F512962D913C9113972D30310569F557
:103510001F961C921E921E9753961C921E925297B3
:103520001C962D913C911D97232BF9F4019715962C
:103530009C938E9314975E96ED91FC915F97CF01CB
:10354000019794CDEE5BFF4F0C94F832F801848123
:10355000958101969583848326813781821793070D
:1035600009F00FCF88E090E0A2CF0F90DF91CF91CC
:103570001F910F91FF90EF90DF90CF90BF90AF9091
:103580000895FC01DB01718360837383628315827C
:1035900014825783468312968C911297480F511DBF
:1035A0005187408713968C911397480F511D87FDC3
:1035B0005A955387428781E09C91911101C080E028
:1035C0000895FC01A281B3818C91882309F460C025
:1035D000CD0108969383828318968C911897811158
:1035E00008C04681578160817181CF010E94C11A54
:1035F0004FC014963C911497832F90E011965C91E4
:103600001197452F4073403391F419962C911997D7
:103610002073203361F412962C9112978085918546
:10362000821B91099187808780E090E010C0252F50
:10363000207C49F4403259F415968C911597839F5C
:10364000C001112404C0203811F482E090E01196EA
:103650002C911197207331F4248135812F5F3F4FD6
:10366000358324831A962C911A97AC01420F511D71
:1036700080859185840F951F918780871B962C915B
:10368000820F911D27FD9A959387828781E0089587
:1036900080E00895EF92FF920F931F93CF93DF93F3
:1036A00000D01F92CDB7DEB77C01DC0112960D91E0
:1036B0001C911397D7011296ED91FC91139780817D
:1036C00090E0A0E0B0E084179507A607B70721F4C3
:1036D00081818F70883099F4C70149835A836B8345
:1036E0007C830E94E11AF7018281938149815A818A
:1036F0006B817C8180179107E9F680E001C081E051
:103700000F900F900F900F90DF91CF911F910F911D
:10371000FF90EF900895DC011296ED91FC911397C4
:103720004E0F5F1F13965C934E93129761157105B0
:1037300039F0DB01E417F50719F081918D93FACF89
:1037400081E00895CF93DF93EC018C819D81892BDB
:1037500051F48E819F81009711F482E392E09F8360
:103760008E8380E018C0E881F98141E050E0CE010D
:10377000199581110AC02E813F812115310511F45F
:1037800020E432E03F832E8306C02C813D8121500E
:1037900031093D832C83DF91CF9108957F928F92E1
:1037A0009F92AF92BF92CF92DF92EF92FF920F93D0
:1037B0001F93CF93DF931F92CDB7DEB78C014B01E0
:1037C000BE016F5F7F4F0E94A21B782E8823E9F114
:1037D000898187FD05C0C82ED12CE12CF12C37C082
:1037E0008F77C82ED12CE12CF12C87E0A82EB12C9C
:1037F000BE016F5F7F4FC8010E94A21B882329F181
:103800008981482F4F7750E060E070E00A2C04C0B7
:10381000440F551F661F771F0A94D2F7C42AD52A72
:10382000E62AF72A87FF13C087E0A80EB11CE3E25F
:10383000AE16B104E9F6F80186819781009711F47C
:1038400089E492E0F80197838683712C05C0F40126
:10385000C082D182E282F382872D0F90DF91CF91D7
:103860001F910F91FF90EF90DF90CF90BF90AF909E
:103870009F908F907F900895EF92FF920F931F93E8
:10388000CF93DF93CDB7DEB72C970FB6F894DEBF9A
:103890000FBECDBFFC0162817381DB0111968C915B
:1038A000982F9F709830A9F50084F185E02D008154
:1038B00011810115110509F468C0F8011682019003
:1038C000F081E02DE480F580D80112964D915C9155
:1038D0001397B701CE0101960E94C11AF8018281A7
:1038E00093819A878987C80106969C878B87D70121
:1038F00011968C91807C803821F4C80102969A87B9
:103900008987CE0101960E943C1CF8010481158133
:10391000D0CF982F907C61F4982F9073903129F438
:1039200082859385DC011C9210C085FF0EC008C003
:10393000903859F5A085B1851D921C9285FF25C050
:103940000284F385E02D108220C0DB0111964C919A
:1039500011974F708085918516962D913C91179700
:10396000473029F4BC01C9010E94D21C0EC0FB01E2
:10397000448150E02115310521F0B9010E947933CD
:1039800004C060E070E00E9482332C960FB6F89479
:10399000DEBF0FBECDBFDF91CF911F910F91FF9082
:1039A000EF900895CF93DF93CDB7DEB72C970FB686
:1039B000F894DEBF0FBECDBFAB01BC01CE010196B6
:1039C0000E94C11A882349F0CE0101960E943C1C36
:1039D000CE0101960E94E11AF5CF2C960FB6F8940D
:1039E000DEBF0FBECDBFDF91CF910895EF92FF9262
:1039F0000F931F93CF93DF93CDB7DEB760970FB6CA
:103A0000F894DEBF0FBECDBF8C017A016115710540
:103A100001F5DC018D919C918B589B41D1F0F1E136
:103A2000EF16F10470F040E150E0BE016F5F7F4F90
:103A3000C8010E94F61C8823E9F1E0E1EE1AF108C2
:103A4000EECFA701BE016F5F7F4FC8010E94F61C39
:103A500031C0D80114968D919C9115978E159F05B4
:103A600068F416968D919C911797009711F482E354
:103A700092E0F8019783868380E01CC0D801ED9125
:103A8000FC91A701C8011995F80181110DC026818B
:103A900037812115310511F420E432E0D801179661
:103AA0003C932E93169706C0248135812E193F0929
:103AB0003583248360960FB6F894DEBF0FBECDBF6A
:103AC000DF91CF911F910F91FF90EF900895CF92CA
:103AD000DF92EF92FF920F931F93CF93DF9300D06B
:103AE0001F92CDB7DEB78C016B017A01BE016F5F0B
:103AF0007F4F0E94CE1B882309F43FC049815A8121
:103B00006B817C819A012F5F3F4FC901A0E0B0E03B
:103B100084179507A607B70740F4F80186819781B7
:103B20000097E9F489E592E01AC0F6018181807C72
:103B3000803841F4F80186819781009781F488E606
:103B400092E00DC0F601848190E08217930760F443
:103B5000F80186819781009711F48AE792E0F801D5
:103B60009783868380E009C0B701C8010E94F61CD4
:103B7000E981FA81EE0DFF1D10820F900F900F90DA
:103B80000F90DF91CF911F910F91FF90EF90DF90F9
:103B9000CF900895CF92DF92EF92FF920F931F93F1
:103BA000CF93DF9300D01F92CDB7DEB78C017B019E
:103BB000D42EC52EBE016F5F7F4F0E94CE1B88237F
:103BC00009F443C049815A816B817C814F3F510583
:103BD0006105710509F030F59A012F5F3F4FC9016A
:103BE000A0E0B0E084179507A607B70740F4F801F6
:103BF000868197810097E9F489E592E01AC0F70180
:103C00008181807C803841F4F8018681978100971A
:103C100081F488E692E00DC0F701848190E082177C
:103C2000930760F4F80186819781009711F48AE880
:103C300092E0F8019783868380E007C0ED2DFC2D8C
:103C40004193BF01C8010E94F61C0F900F900F9086
:103C50000F90DF91CF911F910F91FF90EF90DF9028
:103C6000CF900895CF93DF93CDB7DEB728970FB6E7
:103C7000F894DEBF0FBECDBF2BE83BE13A8329832A
:103C80008B839C836D837E8318861F823A81AC016F
:103C900080E0988528960FB6F894DEBF0FBECDBFA2
:103CA000DF91CF9108953F924F925F926F927F92F2
:103CB0008F929F92AF92BF92CF92DF92EF92FF923C
:103CC0000F931F93CF93DF931F92CDB7DEB75C01A5
:103CD0007B01C12CD12C312C412C512C612C712C0D
:103CE000812C912C10E0BE016F5F7F4FC5010E94B7
:103CF000A21BE82F882309F442C0F9812F2F2F77C8
:103D000030E040E050E060E070E080E090E00C2DBA
:103D10000E940933322A432A542A652A762A872A9E
:103D2000982A192BF7FF15C087E0C80ED11CA6E40E
:103D3000CA16D104C1F6F50186819781009711F466
:103D400089E492E0D50117969C938E931697E0E054
:103D500016C0D7013C9211964C92119712965C9224
:103D6000129713966C92139714967C92149715964B
:103D70008C92159716969C92169717961C938E2FD9
:103D80000F90DF91CF911F910F91FF90EF90DF90F7
:103D9000CF90BF90AF909F908F907F906F905F90EB
:103DA0004F903F9008958F929F92AF92BF92CF9283
:103DB000DF92EF92FF920F931F93CF93DF93CDB7D4
:103DC000DEB728970FB6F894DEBF0FBECDBF4C010B
:103DD0007B018A01BE016F5F7F4F0E94531EF82F47
:103DE000882309F46DC0D70114968C91823061F15B
:103DF00040F4813009F044C02981D8012C9330E08F
:103E000029C0843051F18830D9F529813A814B811C
:103E10005C816D817E818F819885D8012C9311966C
:103E20003C93119712964C93129713965C931397A9
:103E300014966C93149715967C93159716968C93FD
:103E4000169717969C9324C029813A81D8012C9308
:103E500011963C9340E050E00EC029813A814B819D
:103E60005C81D8012C9311963C93119712964C9338
:103E7000129713965C9360E070E080E090E008C0D9
:103E8000F401868197810097A9F489E992E012C034
:103E9000A980BA80CB80DC80ED80FE800F81188500
:103EA0000E94403369F0F40186819781009711F4F4
:103EB0008BEA92E0D40117969C938E931697F0E0CC
:103EC0008F2F28960FB6F894DEBF0FBECDBFDF91BF
:103ED000CF911F910F91FF90EF90DF90CF90BF9007
:103EE000AF909F908F9008954F925F926F927F92C4
:103EF0008F929F92AF92BF92CF92DF92EF92FF92FA
:103F00000F931F93CF93DF93CDB7DEB728970FB6EC
:103F1000F894DEBF0FBECDBF4C018B017A01BE010C
:103F20006F5F7F4F0E94531EE82F882309F474C0EF
:103F3000D80114964C9189819A815B81DC8048304C
:103F4000D9F4D7018C9311969C93119712965C9398
:103F500012971396DC9213978D8114968C93149775
:103F60008E8115968C9315978F8116968C93169744
:103F7000888517968C9350C08C01252F3D2D5801B4
:103F8000C52E28013901770C4408542C32014230E7
:103F900089F04430F1F0413019F5D7018C93282F86
:103FA000382F330F330B432F532F632F732F832F50
:103FB000932F1EC0D7018C9311969C93282F392FD5
:103FC000492F440F440B542F642F742F842F942FA8
:103FD0000FC0D7010D931D932D933C9313971CC0D5
:103FE000F40186819781009789F489E992E00EC0F7
:103FF000E42CF42C042D142D0E94403369F0F401BC
:1040000086819781009711F48BEA92E0D40117968C
:104010009C938E931697E0E08E2F28960FB6F89417
:10402000DEBF0FBECDBFDF91CF911F910F91FF90EB
:10403000EF90DF90CF90BF90AF909F908F907F9048
:104040006F905F904F900895AF92BF92CF92DF92A2
:10405000EF92FF920F931F93CF93DF9300D01F92A5
:10406000CDB7DEB78C017B016A015901F9011082DD
:10407000FB011082FA011082118212821382BE01AA
:104080006F5F7F4F0E94CE1B81110AC0F80124810F
:104090003581232BF9F481E0F501808380E01AC09B
:1040A00009811A812B813C810115110521053105FA
:1040B00091F3B901A801E3E0769567955795479587
:1040C000EA95D1F7F60140835183628373830770C9
:1040D000F70100830F900F900F900F90DF91CF9119
:1040E0001F910F91FF90EF90DF90CF90BF90AF9016
:1040F00008950F931F93CF93DF9300D01F92CDB7F6
:10410000DEB78C016130B1F050F06230B1F0653053
:1041100019F544E050E01AC0998197FF28C041E0AA
:1041200050E0BE016F5F7F4FC8010E94F61C8111F5
:10413000F3CF1DC048E050E009C0BE016F5F7F4F64
:104140000E94CE1B882399F049815A8160E070E07B
:10415000C8010E94F61C0BC0FC0186819781009764
:1041600011F48DEB92E0F8019783868380E00F9045
:104170000F900F900F90DF91CF911F910F910895A5
:104180008F929F92AF92BF92EF92FF920F931F93E5
:10419000CF93DF9300D01F92CDB7DEB78C017B01A8
:1041A000BE016F5F7F4F0E94CE1B882359F198E0BC
:1041B000F801D70101900D929A95E1F749815A8152
:1041C0006B817C81F70184809580A12CB12C8416B1
:1041D0009506A606B70660F4F801868197810097D8
:1041E00011F48FEC92E0F8019783868380E00AC097
:1041F000F70155834483F80124813581241B350B55
:10420000358324830F900F900F900F90DF91CF9103
:104210001F910F91FF90EF90BF90AF909F908F9064
:1042200008954F925F926F927F928F929F92AF927A
:10423000BF92CF92DF92EF92FF920F931F93CF9393
:10424000DF93CDB7DEB762970FB6F894DEBF0FBE2F
:10425000CDBF8C017A01FA01A281B38111962C9114
:104260001197822F807C803409F4BDC0803809F416
:10427000AFC081115FC1822F8F7090E0FC01EE0F03
:10428000FF1FE75BFC4FC080D1802073203191F08D
:1042900018F42223A9F091C02032C9F0203309F08C
:1042A0008CC0FA01228533858C91D9018C9340858D
:1042B000518580C0FA012285338581E0F901808330
:1042C000F70140855185BD01C801F60131C1FA01F0
:1042D000A284B384623009F04EC005970CF04BC045
:1042E000BE016F5F7F4FC8010E94C020882309F480
:1042F0002EC18D819E81892B11F1F5018081D7011D
:1043000012966D917C911397FB0195818917B8F4F2
:10431000DB0114969C91F70140855185989F400DD3
:10432000511D1124CE010196F6011995882329F01B
:10433000D5018C918F5F8C93DCCF80E001C081E050
:104340002B813C81D80113963C932E9312972F8199
:10435000388517963C932E9316974D815E81452B99
:1043600009F4F5C02115310511F427EE32E0F8010A
:1043700037832683EBC0F7014085518514969C91C5
:104380001497F501808115962C91821758F0D80169
:1043900016968D919C911797009709F0ADC087EE06
:1043A00092E0AAC021E0280F2083989F400D511D64
:1043B0001124F7016281738187CFD80116968D9100
:1043C0009C911797009709F097C086EF92E094C0F0
:1043D000D80116968D919C911797009709F08CC083
:1043E00088E692E089C0408451845201B2E0AB0E6D
:1043F000B11CF20180819181892B21F4C8010E94B6
:104400007920A5C0623099F5BE016F5F7F4FC8016A
:104410000E94C020882309F49AC0D70112966D919A
:104420007C911397D201ED91FC91A501CE010196EB
:10443000199581110EC0F8012681378121153105AA
:1044400011F429E033E0D80117963C932E93169788
:104450007EC02D813E81232B01F72B813C81F80109
:10446000338322832F8138853783268370C0613060
:1044700071F170F06530B9F544E050E0BE016F5F56
:104480007F4FC8010E94F61CF4E0CF2ED12C38C01B
:10449000CE0101963C01C12CD12C43019FEFC91ADA
:1044A000D90AABE0CA16D10409F450C041E050E08B
:1044B000B301C8010E94F61C882309F447C0BFEF6E
:1044C0006B1A7B0AF401808187FDE7CF1BC048E0AF
:1044D00050E0BE016F5F7F4FC8010E94F61CA8E04C
:1044E000CA2ED12C0DC0D80116968D919C9117978C
:1044F000009711F48DEB92E0F8019783868326C034
:10450000882329F18BE89BE19C878B87CE0101965C
:104510009E878D87D88ACF861A8A198AD7011296E4
:104520006D917C911397D201ED91FC91A5010A96B2
:1045300019950DC0F80186819781009711F486EFD7
:1045400092E0D80117969C938E93169780E062961E
:104550000FB6F894DEBF0FBECDBFDF91CF911F9194
:104560000F91FF90EF90DF90CF90BF90AF909F9012
:104570008F907F906F905F904F9008952F923F9211
:104580004F925F926F927F928F929F92AF92BF9263
:10459000CF92DF92EF92FF920F931F93CF93DF930F
:1045A000CDB7DEB7AB970FB6F894DEBF0FBECDBF69
:1045B0007C015E0129E1A20EB11C88E0D5011D92AB
:1045C0008A95E9F7CE010D960E94C11A412C512C13
:1045D000320122242394312CD70114968D919C9181
:1045E0001597892B09F4E4C09E012B5D3F4FAE0166
:1045F0004F5D5F4FBE016A5D7F4FC7010E9424205F
:10460000811104C08DA18111D3C0D0C049A15AA18C
:104610006BA17CA1CE010D960E944A1B81119FC007
:1046200089A19AA1ABA1BCA184159505A605B705E2
:1046300008F490C0CF84D888EF85F88981818F7085
:10464000883009F401C1CE010D960E94E11A8F85D0
:1046500098898C159D0581F744244A94542C320185
:1046600029A13AA14BA15CA12FA338A749A75AA71A
:10467000241535054605570508F46CC0D701149676
:104680008D909C901597BEA1BBA7ED89FE89C08037
:10469000D180F70184819581C114D10409F456C0F9
:1046A0008816990609F052C0F601A081B181ED91FA
:1046B000FC911197309749F00BA52FA138A549A57A
:1046C0005AA5B601C701199539C014960D911C91D0
:1046D0001597D8018C9190E0A0E0B0E02FA138A50B
:1046E00049A55AA582179307A407B50749F5D6012E
:1046F00012964D915C911397B801CE0101960E94DC
:10470000C11AF601828193819A878987C60106962C
:104710009C878B87D80111968C91807C803821F4FE
:10472000C60102969A87898721E0F6012683AE01A9
:104730004F5F5F4F6BA5C7010E9411218823B1F124
:10474000D6011496CD90DC901597A3CF88169906C4
:1047500009F042CF6EA1C7010E94792025C0EF85E4
:10476000F88981818073C9F489899A898034910597
:10477000A0F4FC0153E0F695E7955A95E1F7EA0DB0
:10478000FB1D87709927910102C0220F331F8A9564
:10479000E2F7C9019081982B9083AE01435F5F4F90
:1047A0006EA1C7010E941121811116CF80E051C076
:1047B000C988DA88EF85F8891181CE010D960E94AB
:1047C000E11A8111F5CF107341F4EF85F8899081DA
:1047D000992319F0BFEFCB1ADB0A960143E0369517
:1047E00027954A95E1F7F501A501420F531FE417FC
:1047F000F50721F091919F3FD1F316C0F501E20F2B
:10480000F31F608170E0B7E0CB22DD2448E050E088
:104810004C195D092FEF30E002C0359527954A9578
:10482000E2F76217730771F0F701268137812115CE
:10483000310511F429E133E0D70117963C932E930B
:10484000169707C081E005C04080512C612C712C67
:1048500007CFAB960FB6F894DEBF0FBECDBFDF918A
:10486000CF911F910F91FF90EF90DF90CF90BF906D
:10487000AF909F908F907F906F905F904F903F9000
:104880002F900895EF92FF920F931F93CF93DF9392
:104890001F921F92CDB7DEB78C017B01BA01C70111
:1048A00049835A830E94D21C49815A81B701C801A9
:1048B0000F900F90DF91CF911F910F91FF90EF908C
:1048C0000C94BE22CF92DF92EF92FF920F931F9330
:1048D000CF93DF93CDB7DEB72A970FB6F894DEBF3C
:1048E0000FBECDBF8C017B01FB01C680D780BE010E
:1048F0006F5F7F4F49875A870E94C02049855A853C
:10490000882349F1F70186819781892B61F4F801A9
:1049100086819781009711F480E393E0F8019783F3
:10492000868380E018C0F70181818073B6018032F0
:1049300029F4CE0101960E94422404C0CE010196C2
:104940000E94BE222B813C81F801338322832F8178
:104950003885378326832A960FB6F894DEBF0FBEBC
:10496000CDBFDF91CF911F910F91FF90EF90DF901E
:10497000CF900895AF92BF92CF92DF92EF92FF92C5
:104980000F931F93CF93DF93CDB7DEB728970FB662
:10499000F894DEBF0FBECDBF7B01BE016F5F7F4FBE
:1049A0000E94531EF82F882309F45EC0E981AA8073
:1049B000BB80CC80DD800E811F81B8852E2F2170B9
:1049C00030E040E050E060E070E080E090E0A0E0A7
:1049D0000E94493341F12E2F3A2D4B2D5C2D6D2D28
:1049E000702F812F9B2F01E00E9424332095D70147
:1049F0002C93309511963C931197409512964C93B9
:104A00001297509513965C931397609514966C9338
:104A10001497709515967C931597809516968C93A0
:104A2000169790951FC02E2F3A2D4B2D5C2D6D2D76
:104A3000702F812F9B2F01E00E942433D7012C93EC
:104A400011963C93119712964C93129713965C9380
:104A5000139714966C93149715967C931597169646
:104A60008C93169717969C938F2F28960FB6F894D1
:104A7000DEBF0FBECDBFDF91CF911F910F91FF9091
:104A8000EF90DF90CF90BF90AF9008957F928F927C
:104A90009F92AF92BF92CF92DF92EF92FF920F93CD
:104AA0001F93CF93DF93CDB7DEB728970FB6F89457
:104AB000DEBF0FBECDBF4C018B017A01BE016F5F1F
:104AC0007F4F0E94BA24F82F882309F484C0D801AC
:104AD00014968C918230B1F188F4813009F058C07D
:104AE0008981D7018C93782EE82FEE0FEE0B4E2F95
:104AF0005E2F6E2F7E2F8E2F9E2F52C0843091F10D
:104B0000883009F045C07980EA814B815C816D81F4
:104B10007E818F819885D7017C921196EC931197B5
:104B200012964C93129713965C93139714966C936A
:104B3000149715967C93159716968C93169717963F
:104B40009C932EC08981EA81D7018C931196EC93B6
:104B5000782E4E2F440F440B542F642F742F842F24
:104B6000942F1EC009811A812B813C81D7010D939E
:104B70001D932D933C931397702EE12FA901330FB2
:104B8000000B102F9801602F702F802F902F08C0DE
:104B9000F401868197810097C1F489E992E015C0FC
:104BA000A980BA80CB80DC80ED80FE80BF81188533
:104BB000272D3E2F0B2F0E94403369F0F401868190
:104BC0009781009711F48BEA92E0D40117969C9399
:104BD0008E931697F0E08F2F28960FB6F894DEBFCD
:104BE0000FBECDBFDF91CF911F910F91FF90EF903E
:104BF000DF90CF90BF90AF909F908F907F9008955F
:104C000044E050E00C94F61CBA010C94002648E0F5
:104C100050E00C94F61CBA010C940726FC01A2810A
:104C2000B3819D01240F351F33832283FB01460F7F
:104C3000571FE417F50719F081918D93FACF81E0A2
:104C40000895FC018EE096E29183808373836283F2
:104C5000558344831782168211861086CF010895EA
:104C60000F931F93CF93DF93EC018A01E881F981C1
:104C7000309709F12E813F81240F351F8C819D8152
:104C80008217930750F488859985009711F48BE576
:104C900093E09987888780E015C0CE01199581112E
:104CA0000AC0288539852115310511F420E432E048
:104CB0003987288707C08E819F81800F911F9F832E
:104CC0008E8381E0DF91CF911F910F9108955F92C4
:104CD0006F927F928F929F92AF92BF92CF92DF920C
:104CE000EF92FF920F931F93CF93DF93CDB7DEB771
:104CF00062970FB6F894DEBF0FBECDBF6C01802F58
:104D00000B87912F1C87522E2D87632E3E87742E82
:104D10004F87852E588B962E698BB72F7A8B8C01F7
:104D20009801452D562D672D782D892D9B2FA0E0BC
:104D30000E94493321F0FE0131967F0106C041E017
:104D400050E0BE01655F7F4F34C05F01AE18BF0801
:104D50009801452D562D672D782D892D9B2FA0E08C
:104D60000E944933A9F0802F806881939801452DD6
:104D7000562D672D782D892D9B2F07E00E94243317
:104D80008901542E652E762E872E982EB92FDDCFD1
:104D90001B861C861D861E861F86188A198A1A8AFB
:104DA000F5013197EE0DFF1D80818F778083A5017E
:104DB000B701C6010E94302662960FB6F894DEBF96
:104DC0000FBECDBFDF91CF911F910F91FF90EF905C
:104DD000DF90CF90BF90AF909F908F907F906F901B
:104DE0005F9008958F929F92AF92BF92CF92DF9281
:104DF000EF92FF920F931F93FA01DB0114962C910F
:104E0000223099F028F42130E9F48080912C0FC0F1
:104E1000243081F02830B1F480809180A280B3806A
:104E2000C480D580E680F7801CC080809180A12C52
:104E3000B12C04C080809180A280B380C12CD12C81
:104E400076010FC0FC01208531852115310511F453
:104E500029E932E0DC0119963C932E93189780E003
:104E600006C084019501A601B7010E9467261F9123
:104E70000F91FF90EF90DF90CF90BF90AF909F90F9
:104E80008F9008950F931F93CF93FA01DB0114962F
:104E90002C912230D9F068F4213091F50081102F47
:104EA000110F110B212F312FC12FB12FA12F712FD6
:104EB00036C02430B1F0283019F5008111812281EB
:104EC0003381C481B581A681778129C01181008198
:104ED000212F220F220B322FC22FB22FA22F722F7F
:104EE0001EC040815181628173818A019B01770FCD
:104EF000440B542FBA01C42FB42FA42F742F0FC00A
:104F0000FC01208531852115310511F429E932E0B4
:104F1000DC0119963C932E93189780E005C04C2F26
:104F20005B2F6A2F0E946726CF911F910F910895E2
:104F3000DF92EF92FF920F931F93CF93DF93FC01C9
:104F4000D22EE32EF42ED52FC62FB72F98014D2D3C
:104F50005E2D6F2D7D2F8C2F9B2FA0E00E9449335B
:104F600064F401E00E9409332095309540955095F6
:104F700060957095809590950AC098014D2D5E2D95
:104F80006F2D7D2F8C2F9B2F01E00E94093389010B
:104F90009A01AB01BC01CF010E946726DF91CF913E
:104FA0001F910F91FF90EF90DF9008950F931F9343
:104FB000CF93FA01DB0114962C912230D9F068F4DA
:104FC000213091F50081102F110F110B212F312F5E
:104FD000C12FB12FA12F712F36C02430B1F028304E
:104FE00019F50081118122813381C481B581A681A7
:104FF000778129C011810081212F220F220B322FAE
:10500000C22FB22FA22F722F1EC040815181628108
:1050100073818A019B01770F440B542FBA01C42F6F
:10502000B42FA42F742F0FC0FC01208531852115CA
:10503000310511F429E932E0DC0119963C932E93F5
:10504000189780E005C04C2F5B2F6A2F0E9498278D
:10505000CF911F910F91089544E050E00C943026B9
:10506000BA010C942C2848E050E00C943026BA0188
:105070000C9433288F929F92AF92BF92CF92DF927F
:10508000EF92FF920F931F93FC01A62F49015A0143
:10509000A50160E070E080E090E003E00E94093349
:1050A000022F242F0A2B132F352FAB01BC01CF0168
:1050B0000E9467261F910F91FF90EF90DF90CF9095
:1050C000BF90AF909F908F900895FB0121812F702A
:1050D0002330A1F088F0243021F0283020F462E061
:1050E0000EC061E00CC0FC01208531852115310521
:1050F00061F426EF32E009C060E001C065E0208184
:1051000030E040E050E00C943A28FC0131872087E1
:1051100080E008952F923F924F925F926F927F921C
:105120008F929F92AF92BF92CF92DF92EF92FF92B7
:105130000F931F93CF93DF93CDB7DEB72B970FB6A7
:10514000F894DEBF0FBECDBF7C016B015A01DB01BD
:1051500011963C91232F207C203409F41CC1203867
:1051600011F0211132C181E08B87832F8F7090E085
:10517000FC01EE0FFF1FEA54FC4F40805180F60106
:105180004381442331F0F501E40FF11D47FDFA9509
:1051900002C0FE013B96203849F4D501AD90BC9089
:1051A00041E0A114B10409F440E04B873073303181
:1051B000B9F018F4332339F0E1C03032B1F03033B4
:1051C00009F4CBC0DBC0A114B10409F0CBC0F701D6
:1051D00080859185009709F0FFC089E193E0FCC0CC
:1051E0008081882309F4DEC0BDC08080912C8114A9
:1051F000910409F4D7C0203881F0D60115962C917E
:1052000030E02815390548F4F7018085918500972D
:1052100009F0E2C087E693E0DFC005970CF072C0AA
:10522000F601208130E040E050E062E0C7010E94DA
:105230003A28882309F4D5C0D60111968C918F7035
:10524000833031F43401660C771C660C771C29C05E
:10525000843039F43401A3E0660C771CAA95E1F799
:1052600020C0FE0131961F018AE0DF011D928A9560
:10527000E9F78501612C712CA801B601C101F20189
:105280001995882309F4ADC0D60114968C91080FA6
:10529000111DBFEF6B1A7B0A6814790468F36F80E5
:1052A0007884830120E030E040E050E060E070E08E
:1052B000C7010E946726882309F493C0F701808103
:1052C0009181892B51F4A30160E070E0C7010E9435
:1052D0003026882309F485C065C000E010E0A501F0
:1052E000B601C701F2011995882309F47AC0D601E5
:1052F00014968C91A80EB11C0F5F1F4F081519054D
:1053000070F350C000E010E0B601C7010E946528AC
:10531000882309F466C0F6018181982F907C90382B
:10532000D1F48F7090E005970297A8F4D5014D91C4
:105330005C91B601C701F2011995882309F451C0A7
:10534000D60114968C91A80EB11C0F5F1F4F081543
:105350001905D0F227C0A501ECCF9081D6018C9120
:10536000981320C0B601C7010E9465288823C9F19F
:10537000A501B601C701F201199534C0D7011896ED
:105380008D919C911997009711F486EF92E0F701A7
:105390009187808726C04E5F5F4FD501ED91FC91CC
:1053A000309711F481E01EC019958111FBCFF701F0
:1053B000208531852115310511F42FE733E0D70120
:1053C00019963C932E9318970DC0FC01808591850A
:1053D000009711F486EF92E0D70119969C938E9373
:1053E000189780E02B960FB6F894DEBF0FBECDBFA6
:1053F000DF91CF911F910F91FF90EF90DF90CF90B1
:10540000BF90AF909F908F907F906F905F904F90E4
:105410003F902F900895EF92FF920F931F93CF9399
:10542000DF93CDB7DEB72C970FB6F894DEBF0FBE73
:10543000CDBF7C01CE0101960E94C11A811102C02C
:1054400081E041C06B817C81FB0181818F70498546
:105450005A85883071F5FA01008111810115110515
:1054600069F1F801A081B1811296ED91FC91139739
:10547000309721F0B801C701199513C014966D91AA
:105480007C911597FB018181807C803821F4A801F3
:105490004E5F5F4F03C0F80142815381C7010E94F4
:1054A0008A28811102C080E00EC0F80104811581B4
:1054B000D5CFC7010E948A288823A9F3CE0101967F
:1054C0000E94E11ABBCF2C960FB6F894DEBF0FBE38
:1054D000CDBFDF91CF911F910F91FF90EF90089575
:1054E000CF92DF92EF92FF920F931F93CF93DF93B0
:1054F000EC016B017A018A0120E030E040E050E0ED
:1055000060E070E00E946726882369F0A701B60179
:10551000CE01DF91CF911F910F91FF90EF90DF901F
:10552000CF900C94302680E0DF91CF911F910F91A6
:10553000FF90EF90DF90CF900895FB01BA01448176
:105540002181207C203811F050E002C04FEF5FEF46
:105550006115710561F0FB0120E030E0241735078B
:1055600041F0A191AA2329F02F5F3F4FF7CF20E010
:1055700030E0A9010C94702AFA01309729F440E038
:1055800050E060E070E01FC0DB0111962C91119794
:10559000207C4081211113C0242F30E02F5F3F4F2A
:1055A00014966C9170E06217730748F4FC01208533
:1055B00031852115310549F42EE833E006C050E06D
:1055C000BF016F5F7F4F0C94702ADC0119963C93EA
:1055D0002E93189780E008956F927F928F929F92FA
:1055E000AF92BF92CF92DF92EF92FF920F931F93F1
:1055F000CF93DF93CDB7DEB72A970FB6F894DEBF0F
:105600000FBECDBF7C014B013A01CE0101965C017A
:105610008AE0F50111928A95E9F7C5010E940B2AEB
:10562000811104C029853A85F70154C0CF80D88400
:10563000860120E030E040E050E060E070E0C7012B
:105640000E946726882309F451C0F7012081318127
:105650002115310539F4A60160E070E0C7010E9410
:10566000302644C0F701868197818C0D9D1D4481B1
:1056700055814817590750F480859185009711F49A
:105680008BE593E0F701918780872FC03A832983C8
:10569000F701828193819C838B83DE82CD82188681
:1056A0001F821A861986A301B401C5010E940B2A24
:1056B0004F815885F70126813781240F351F3783A5
:1056C00026832B813C813383228329853A854C159F
:1056D0005D0519F43187208709C02115310511F4C2
:1056E00022EA33E0F7013187208780E02A960FB65F
:1056F000F894DEBF0FBECDBFDF91CF911F910F9108
:10570000FF90EF90DF90CF90BF90AF909F908F90E1
:105710007F906F900895FB01668177816115710517
:1057200049F4FC01208531852115310529F420E358
:1057300033E002C00C94EC2AFC013187208780E022
:1057400008951F920F920FB60F9211242F933F933B
:105750004F935F936F937F938F939F93AF93BF9379
:10576000EF93FF938091CB0687FF05C010928500D1
:10577000109284001AC02091CB06332727FD309564
:105780008091CA0690E0281739077CF48091CB06F7
:10579000992787FD9095FC01EE0FFF1FE80FF91F79
:1057A000E453F94F808186FD15C08091CB068F5F51
:1057B0008093CB062091CB06332727FD309580912F
:1057C000CA0690E028173907BCF48091CB068C30CC
:1057D0005CF112C08091CB06992787FD9095FC0162
:1057E000EE0FFF1FE80FF91FE453F94F808160E0CF
:1057F0008F730E94E02FD9CF809184009091850013
:10580000049680349C4918F480E49CE905C080919A
:10581000840090918500049690938900809388007D
:105820008FEF8093CB0638C08091840090918500E3
:105830002091CB06332727FD3095F901EE0FFF1F8E
:10584000E20FF31FE453F94F21813281820F931F3E
:1058500090938900809388008091CB06992787FDDB
:105860009095FC01EE0FFF1FE80FF91FE453F94F6D
:10587000808186FF11C08091CB06992787FD909586
:10588000FC01EE0FFF1FE80FF91FE453F94F808171
:1058900061E08F730E94E02FFF91EF91BF91AF9174
:1058A0009F918F917F916F915F914F913F912F9138
:1058B0000F900FBE0F901F9018952091CA062C30A4
:1058C000A0F431E0320F3093CA06FC012083822F0E
:1058D00090E0FC01EE0FFF1FE80FF91FE453F94FB2
:1058E00088EB9BE09283818308952FEFFC01208356
:1058F0000895DF92EF92FF920F931F93CF93DF9360
:10590000EC01D62E7A01890188818C3008F066C0BE
:1059100061E08D2D0E94A72F8881A82FB0E0FD01A6
:10592000EE0FFF1FEA0FFB1FE453F94F2D2D2F73CE
:105930009081907C922B908360E272E06E197F09D7
:1059400077FF02C06D5F7F4F759567957595679579
:10595000698340E659E0401B510B57FF02C04D5F81
:105960005F4F55954795559547954A832CE0622F93
:105970000E94AB32289FB001112420E030E0A90141
:10598000460F571FFA01EE0FFF1FE40FF51FE453F8
:10599000F94F908196FD16C02F5F3F4F2C30310597
:1059A00071F781110FC01092800082E08093810016
:1059B0001092850010928400B19A80916F008260ED
:1059C00080936F00888190E0FC01EE0FFF1FE80FCD
:1059D000F91FE453F94F8081806480838881DF91CF
:1059E000CF911F910F91FF90EF90DF90089520E6E7
:1059F00039E040E252E00C94792CFC01808190E087
:105A0000FC01EE0FFF1FE80FF91FE453F94F8081EF
:105A10008F7B80830895FC0180818C3070F59181AB
:105A200028E830E0291B310997FD3395220F331FF9
:105A3000220F331F621773077CF0928128E532E052
:105A4000291B310997FD3395220F331F220F331F76
:105A5000621773070CF49B014FB7F89490E0FC01B8
:105A6000EE0FFF1FE80FF91FE453F94F22503109E1
:105A7000220F331F328321834FBF08954F925F92CD
:105A80006F927F92AF92BF92CF92DF92EF92FF928E
:105A90000F931F93CF93DF93EC01603282E078077E
:105AA0000CF040C077FD06C0653B71052CF064EB3F
:105AB00070E002C060E070E0898128E830E0281BD7
:105AC000310987FD3395220F331F220F331F5901F0
:105AD000CC24B7FCC094DC2C882777FD8095982FC8
