:100000000C949A000C94C2000C94C2000C94C20090
:100010000C94C2000C94C2000C94C2000C94C20058
:100020000C94C2000C94C2000C94C2000C94C20048
:100030000C94C2000C94C2000C94C2000C94C20038
:100040000C94A30F0C94C2000C9425120C94731200
:100050000C94C2000C94C2000C94C2000C94C20018
:100060000C94500A0C94C200302E31322E706F73F3
:10007000743400626173652D6E6F64652D727063F8
:100080000000576865656C6572204C616200302E17
:1000900031322E706F73743400687474703A2F2F7D
:1000A0006769746875622E636F6D2F776865656C1C
:1000B00065722D6D6963726F666C756964696373CF
:1000C0002F626173655F6E6F64655F7270632E6728
:1000D00069740000000000240027002A00000000CE
:1000E00000250028002B0000000000230026002926
:1000F00000040404040404040402020202020203D1
:1001000003030303030102040810204080010204DA
:10011000081020010204081020000000070002015E
:1001200000000304060000000000000000005A0167
:10013000CA08DF1311241FBECFEFD8E0DEBFCDBF4A
:1001400011E0A0E0B1E0E2E8F9E202C005900D9212
:10015000A236B107D9F714E0A2E6B1E001C01D92C2
:10016000AA36B107E1F711E0C4E3D1E004C0229759
:10017000FE010E948414CE32D107C9F70E944B08B9
:100180000C94BF140C940000FB01DC0105900D924F
:100190000020E1F70895FC0105900020E9F7809523
:1001A00090958E0F9F1F0895A0E0B0E0EAEDF0E07B
:1001B0000C9492147C01EB018A01690109C0CE0103
:1001C0002196F6010995F70181937F0101501040B6
:1001D00001151105A1F7CDB7DEB7E8E00C94AE1418
:1001E000A0E0B0E0E6EFF0E00C949214EC017B01AB
:1001F0008A01690109C0CE012196F70161917F0151
:10020000F60109950150104001151105A1F7CDB770
:10021000DEB7E8E00C94AE149C01F999FECF32BD34
:1002200021BDF89A80B508959C01F999FECF1FBAB7
:1002300032BD21BD60BD0FB6F894FA9AF99A0FBE8F
:10024000089504970E942901089502970E942901A8
:100250000895AC01455F5E4F20E830E0B901CA0166
:100260000895BC01E0916802F09169020280F38177
:10027000E02D88E692E009950895DC01ED91FC916E
:100280000280F381E02D41E050E009950895FC01E2
:10029000828193810E941A0C08950F931F938C0101
:1002A000FC01828193810E941A0CF80114821F9133
:1002B0000F9108958F929F92AF92BF92CF92DF924B
:1002C000EF92FF920F931F938BE191E09093630164
:1002D0008093620181E291E09093650180936401D3
:1002E00087E291E090936701809366011092B901D3
:1002F0001092B8011092BA011092BC011092BB0189
:1003000088248A94982C9092C2018092C10120E5A1
:10031000A22EB12CB092BE01A092BD0198E6E92EAA
:1003200091E0F92EF092C001E092BF018AEF9FEFB9
:10033000E80EF91E03EC11E01092C3011092C40103
:100340001092D0011092CF011092D2011092D101DF
:100350001092D6011092D5011092E4011092E3019F
:1003600088EB91E09093D8018093D701C8010E9457
:100370001A0C85E3C82E81E0D82ED092E601C092F7
:10038000E5011093E8010093E701C8010E941A0CEF
:100390008DE291E09093E6018093E50184E494E09E
:1003A0009093EA018093E90110923C0210923B0283
:1003B00010923D0210923F0210923E02909245022E
:1003C00080924402B0924102A09240028BEE91E0F2
:1003D000909343028093420206E412E01092460298
:1003E000109247021092530210925202109255023C
:1003F0001092540210925902109258021092670201
:10040000109266028BE392E090935B0280935A0213
:10041000C8010E941A0CD0926902C092680210931F
:100420006B0200936A02C8010E941A0C8DE391E0EE
:10043000909369028093680210926C0288E692E0C1
:100440000E944D0189E091E09093630180936201E5
:1004500006969093650180936401069690936701D8
:1004600080936601F092EE02E092ED021F910F91EF
:10047000FF90EF90DF90CF90BF90AF909F908F90C4
:100480000895AF92BF92CF92DF92EF92FF920F93B7
:100490001F93DF93CF930F92CDB7DEB76C017B0133
:1004A00000E010E05E010894A11CB11C0DC084E4C2
:1004B00094E00E9466138983F60182819381B501DD
:1004C0000E94390C0F5F1F4F0E151F0584F30F900C
:1004D000CF91DF911F910F91FF90EF90DF90CF9020
:1004E000BF90AF9008958F929F92BF92CF92DF926C
:1004F000EF92FF920F931F93DF93CF930F92CDB79D
:10050000DEB77C016B0189E393E00E946D08B82E91
:100510000894C108D108F7018481882309F4B482C2
:1005200000E010E04E010894811C911C10C089E38A
:1005300093E00E946D088983F7018481B81629F43D
:1005400082819381B4010E94390C0F5F1F4F0C15FB
:100550001D056CF30F90CF91DF911F910F91FF90CC
:10056000EF90DF90CF90BF909F908F900895EF9283
:10057000FF920F931F938C01F62EE72ECB01B8014B
:100580000E94C400C8010E94CB00BC018F2D9E2D8B
:100590001F910F91FF90EF9008950F931F93CF93AA
:1005A000DF93EC011A86198600E010E00CC0EF81A1
:1005B000F885E00FF11FC90160810E94FF0B9A8747
:1005C00089870F5F1F4F8B819C8129853A8508178A
:1005D000190768F3C9010E94190C89879A87DF916E
:1005E000CF911F910F910895CF92DF92EF92FF92DA
:1005F0000F931F93DF93CF93CDB7DEB763970FB6FB
:10060000F894DEBF0FBECDBF6C012B8B1986188608
:100610008FEF9FEF9A8B898B2A875E874D87788B28
:100620006F875C874B8738E0E32EF12CEC0EFD1EC4
:10063000C7010E94CD028091000190910101A0911B
:100640000201B09103018C839D83AE83BF838091AF
:10065000BA008695898389E393E0F60160810E9460
:100660005A0889E393E08E010F5F1F4FB8010E9483
:100670003D0189E393E0BE016C5F7F4F43E050E0B2
:100680000E94E10889E393E0BE01675F7F4F41E08C
:1006900050E00E94E10889E393E0B70141E050E0B7
:1006A0000E94E10889E393E0BE016D5E7F4F0E94E6
:1006B0003D018B859C859B838A8389E393E0BE0102
:1006C0006D5F7F4F41E050E00E94E10889E393E0D5
:1006D000BE016E5F7F4F41E050E00E94E10889E378
:1006E00093E00E945509F02EE12E29C08A01403284
:1006F000510510F00FE110E089E393E0F60160810D
:100700000E945A0889E393E06F2D7E2D0E943D01DF
:100710006F85788989E393E0A8010E94E10889E365
:1007200093E00E9455098F859889800F911F988BBF
:100730008F878B859C85801B910B9C878B874B8536
:100740005C854115510591F689E393E0F6016081DE
:100750000E945A0889E393E0BE016F5F7F4F0E94B9
:100760003D0189E393E0BE016E5E7F4F41E050E0C2
:100770000E94E10889E393E0BE016F5E7F4F41E094
:1007800050E00E94E10889E393E00E9455096396D6
:100790000FB6F894DEBF0FBECDBFCF91DF911F9192
:1007A0000F91FF90EF90DF90CF9008958F929F92DE
:1007B000AF92BF92CF92DF92EF92FF920F931F936F
:1007C000CF93DF93DC0158016901EB018601888139
:1007D000803209F44DC2813208F043C0893009F4F7
:1007E000F6C08A30F8F4843009F4C2C0853068F469
:1007F000813009F48AC0813008F479C0823009F46C
:1008000092C0833009F06EC09CC0863009F4CCC021
:10081000863008F4BBC0873009F4C9C0883009F0BD
:1008200061C0CDC08E3009F408C18F3068F48B30C0
:1008300009F4F4C08B3008F4D6C08C3009F4F4C04D
:100840008D3009F04FC0F4C0803109F400C180310F
:1008500008F4F7C0813109F408C1823109F042C0BF
:1008600018C1863609F4A6C18736F8F4813609F432
:1008700057C1823670F4813409F42DC1823418F4E2
:10088000803481F515C1823409F43FC1803651F5B9
:1008900041C1833609F451C1833608F445C1843619
:1008A00009F47BC18536F1F47DC1803809F4E0C1DB
:1008B000813860F4883609F4B5C1883608F486C1F9
:1008C000893609F4C9C18A3669F4CCC1823809F481
:1008D0001BC2823808F4D9C1803A09F41CC2813A9B
:1008E00009F427C2EE24FF24CFEFDFEF30C2ED91F1
:1008F000FC91A081B1812D913C91CF01F901099525
:10090000AB01BC0188E690E029C0ED91FC91A0818B
:10091000B1812D913C91CF01F9010995AB01BC0149
:1009200083E790E01BC0ED91FC91A081B1812D91F6
:100930003C91CF01F9010995AB01BC0181E890E040
:100940000DC0ED91FC91A081B1812D913C91CF0121
:10095000F9010995AB01BC0182E890E00E94B70261
:10096000562F282F392FC9017C01252F372F1EC262
:10097000ED91FC91A081B1812D913C91CF01F901C4
:100980000995AB01BC018EE890E0E8CFED91FC91B8
:10099000A081B1812D913C91CF01F9010995AB0165
:1009A000BC0189E990E0DACF0E94F90F02C00E94F1
:1009B000EB0FF801608371838283938362C1898125
:1009C0009A81009709F4C0C10E947810BDC1498185
:1009D0005A814115510509F4B7C1BA0180E090E090
:1009E0000E941F101FC080916604909167040097B9
:1009F00029F42DB73EB72A56344004C02DB73EB770
:100A0000281B390BC901AA2797FDA095BA2FF80119
:100A100080839183A283B383780134C189816A8101
:100A20000E943F11760191C189810E94D211C8C0F4
:100A300089816A810E947E1187C189810E94BD10CF
:100A400075C06A81898170E00E94DF10EBCFFB01E5
:100A50003196828193818E0F9F1F93838283898138
:100A60009181F6018083918364C0FB0131962281DC
:100A700033812E0F3F1F3383228389819181A22FDF
:100A8000B3819C01220F331F220F331F7D01E90127
:100A90005EC1FB013196828193818E0F9F1F9383EC
:100AA0008283718153816981482F952F842F3EC1A4
:100AB000FB013196648175816E0F7F1F758364839E
:100AC000F8944281538189819A8124E131E00E9426
:100AD000F000789439C10D90BC91A02D09811A8144
:100AE0000B80DC81C02D1296ED91FC911397019043
:100AF000F081E02DCD01029609957C01B801AE018F
:100B00002CE031E00E94D40022C18FEF93E0A0E0FE
:100B1000B0E0B2C089E393E069810E94750914C115
:100B20008091BA0086954CC080E290E0F8019183F4
:100B300080837601C2E0D0E00AC10D90BC91A02D67
:100B40001496ED91FC9115970190F081E02DCD0167
:100B5000049609957C016B01C0E0D0E018E0CC154B
:100B6000DD0508F0F4C089E393E0612F0E945A0884
:100B700089E393E00E945509882359F4F701EC0FAB
:100B8000FD1F1083219661E070E080E090E00E94FC
:100B90001F101F5F183719F7DAC089E393E00E942E
:100BA0006408C4CF89E393E00E946D08F601808356
:100BB000760109C089E393E069814A810E94660950
:100BC000F80180837601C1E0D0E0C1C00D90BC91F6
:100BD000A02DD980CA801496ED91FC9115970190B3
:100BE000F081E02DCD01049609957B018C017801FF
:100BF00089E393E06D2D4C2D0E946609E80110E019
:100C000008C089E393E00E946D081C1540F48993A5
:100C10001F5F89E393E00E946408892B91F7C12F3D
:100C2000D0E095C0FB013196038114810E0F1F1F88
:100C300014830383E180F28089E393E069810E9459
:100C40005A0889E393E0B801A7010E94E10889E30B
:100C500093E00E945509E6CE8091BA0081608093AE
:100C6000BA00E0CE8091BA008E7F8093BA006CC04B
:100C700089E490E0A0E0B0E0F80180839183A28352
:100C8000B3837601C4E0D0E062C0FB0131960381FA
:100C900014810E0F1F1F14830383AD90BC90F98045
:100CA000E180D280C48046E0842E41E0942E8A0CFC
:100CB0009B1CC4010E944D01F501E65FFE4FF082CE
:100CC000CF014E2D5D2D602F7C2D24E60E94F40275
:100CD0000E94EB0F7B018C01E501C85FDE4F0E9493
:100CE000EB0F6E197F09800B910B685873418040A0
:100CF000904008F03FC0E881F98181898823B1F1F3
:100D0000C4010E944D01EBCF8D919C918A5F9E4F53
:100D10000E944D0187CE0D90BC91A02DED91FC91CC
:100D200011970190F081E02DCD0109957C01262FCE
:100D30001DCE84E494E040E052EC61E070E00E945B
:100D4000AE128CE08093B8007801C0E0D0E0BE0124
:100D5000C701DF91CF911F910F91FF90EF90DF902E
:100D6000CF90BF90AF909F908F90089580898823F7
:100D700009F4B5CF20EE30E0A20EB31EF50180815C
:100D800091812CEF3FEFA20EB31EF50140815181FE
:100D90008C019A01E9012834310510F0C7E4D0E054
:100DA000C4010E944D0178012C2F3D2FE901CFCFC6
:100DB000EF92FF920F931F93DF93CF93CDB7DEB7E0
:100DC00062970FB6F894DEBF0FBECDBFE091E7018A
:100DD000F091E8018189882309F422C1CF01E5C09F
:100DE0002091BB013091BC018091BA018436C1F4DD
:100DF00021153105A9F08091BF019091C001BC017E
:100E0000A9019C010091BD011091BE018DEE92E0FF
:100E10000E94D603AC01892B39F460E070E004C075
:100E200060E070E040E050E024E629838FEF9FEF20
:100E30009A8B898B198618862A877E876D87588BAF
:100E40004F877C876B8768E0E62EF12CEC0EFD1E49
:100E5000C7010E94CD028091000190910101A091F3
:100E60000201B09103018C839D83AE83BF83E09127
:100E7000E901F091EA01A081B18112962D913C9196
:100E80001397CF01BE016C5F7F4F43E050E0F90143
:100E900009950091E9011091EA01D801ED91FC91C9
:100EA0000280F381E02DC801BE01675F7F4F41E002
:100EB00050E00995D801ED91FC910280F381E02D7D
:100EC000C801B70141E050E00995E091E901F091D6
:100ED000EA01A081B18112962D913C911397CF0127
:100EE000BE016F5F7F4F41E050E0F90109958A85AF
:100EF000843619F0833709F054C00091E90110914C
:100F0000EA018B859C859B838A83D801ED91FC91B6
:100F10000280F381E02DC801BE016D5F7F4F41E08B
:100F200050E00995D801ED91FC910280F381E02D0C
:100F3000C801BE016E5F7F4F41E050E009954B85CF
:100F40005C854115510579F0E091E901F091EA01E4
:100F5000A081B1816F85788912962D913C9113976C
:100F6000CF01F90109950091E9011091EA01D80139
:100F7000ED91FC910280F381E02DC801BE016E5E0F
:100F80007F4F41E050E00995D801ED91FC9102803E
:100F9000F381E02DC801BE016F5E7F4F41E050E05C
:100FA00009958091E7019091E8010E941A0CE09167
:100FB0006A02F0916B0281898823B9F12CC02091DB
:100FC0003E0230913F0280913D028436C9F42115E2
:100FD0003105B1F08091420290914302BC01A90118
:100FE0009C0100914002109141028DEE92E00E941E
:100FF000D603FC019B01892B39F420E030E004C0CA
:1010000020E030E0E0E0F0E0BF01A9018CE692E0F2
:1010100024E60E94F40288E692E00E944D0108C096
:101020008089882309F0DCCEC2CF8089882339F6F5
:1010300062960FB6F894DEBF0FBECDBFCF91DF91A1
:101040001F910F91FF90EF90089584E494E040E0A9
:1010500052EC61E070E00E94AE128CE08093B80028
:1010600089E393E061E371E00E94C50808950F935E
:101070001F93E091E501F091E6010281138184E480
:1010800094E00E943513BC0185EE91E0F8010995CA
:101090001F910F910895CF93DF930E9482100E94B9
:1010A0002508C0E6D2E10E94D8062097E1F30E940D
:1010B0006012F9CF81E080933403609311031092A2
:1010C00032031092330308952091100330E0809191
:1010D0000F03281B3109C901089540910F03809126
:1010E0001003481718F02FEF3FEF0AC0E42FF0E08D
:1010F000E151FD4F8081282F30E04F5F40930F0377
:10110000C9010895E0910F0380911003E81718F0CA
:10111000EFEFFFEF06C0F0E0E151FD4F8081E82FD7
:10112000F0E0CF0108950895AC012091370330918C
:10113000380321153105E1F090910F0380911003E0
:101140009817B0F090E008C0FA01EA0FFB1F808109
:10115000A151BD4F8C939F5FA92FB0E0A617B70791
:101160009CF310920F0360931003CB01F9010995D2
:101170000895E0913503F0913603309729F01092ED
:1011800032031092330309950895709338036093E6
:101190003703089510923C0310923B0388EE93E0CE
:1011A000A0E0B0E080933D0390933E03A0933F0303
:1011B000B093400385E491E090933A038093390320
:1011C0000895CF92DF92EF92FF920F931F93CF93E8
:1011D000DF937C016B018A01809134038823A1F0A5
:1011E000C0E0D0E00DC0D701ED91FC91D601AC0F6D
:1011F000BD1F0190F081E02DC7016C9109952196EA
:10120000C017D10780F304C0CB01642F0E942B0AC2
:10121000C801DF91CF911F910F91FF90EF90DF9068
:10122000CF900895DF93CF930F92CDB7DEB7FC0137
:101230006983809134038823C9F08091330380321D
:1012400038F081E090E09383828320E030E015C0A5
:1012500080913203E82FF0E0EE5EFC4F998190839D
:101260008F5F809332038093330305C0CE010196D4
:1012700061E00E942B0A21E030E0C9010F90CF917C
:10128000DF9108950F93062F8091110362E173E0BF
:101290004091330321E00E94D6091092320310924C
:1012A0003303109234030F91089561E00E944209C4
:1012B0000895413208F040E2862F6FEE72E00E94FE
:1012C0008D0910920F0380931003089521E00E946E
:1012D0005909089510920F031092100310923203CF
:1012E000109233030E94E10B08950F931F938C011A
:1012F000862F0E94890989EB98E00E944B0A84E9B5
:1013000098E00E94460AC8010E946A091F910F9145
:101310000895880F8093BA000895382F413210F055
:1013200040E042C0809145038823E1F791E090932B
:101330004503209347038FEF8093B20310926D0310
:10134000415040936E034F5F909346038091460354
:10135000330F832B8093460380914803813041F4FF
:1013600010924803809146038093BB0085EC01C036
:1013700085EE8093BC00809145038130E1F380913C
:101380006D03841710F440916D0320E030E00AC033
:10139000FB01E20FF31FD901A35BBC4F8C9180834B
:1013A0002F5F3F4F2417A0F3842F08950F931F93AF
:1013B000582F122F413210F081E04AC0809145032E
:1013C0008823E1F782E080934503009347038FEF82
:1013D0008093B20310926D0340936E03ADE4B3E0CB
:1013E000FB0102C081918D938E2F861B8417D0F351
:1013F0001092460380914603550F852B8093460338
:1014000080914803813041F4109248038091460353
:101410008093BB0085EC01C085EE8093BC00112356
:1014200021F0809145038230E1F38091B2038F3F38
:1014300011F480E00DC08091B203803211F482E09B
:1014400007C08091B203803311F084E001C083E0D3
:101450001F910F910895482F613210F081E0089597
:1014600080914503843011F082E0089560939003E9
:10147000AFE6B3E0842F9C01F90102C081918D9306
:101480008E2F841B8617D0F380E0089590934C0331
:1014900080934B03089590934A03809349030895E2
:1014A0001F920F920FB60F9211242F933F934F93D9
:1014B0005F936F937F938F939F93AF93BF93EF93BC
:1014C000FF938091B90090E0887F907080369105FD
:1014D00009F4F2C081369105CCF58832910509F402
:1014E0007BC089329105B4F48031910509F46FC055
:1014F000813191053CF4009709F447C1089709F040
:101500004FC165C08831910509F466C0809709F024
:1015100047C182C08034910509F4A4C0813491058B
:1015200044F48033910509F482C0C89709F038C1AA
:1015300089C08035910509F489C08835910509F481
:1015400096C08834910509F02BC1AEC08839910549
:1015500009F413C189399105ECF48837910509F430
:10156000ABC0893791054CF48836910509F4A4C0C5
:101570008037910509F014C19FC08838910509F49E
:10158000FCC08039910509F49DC08038910509F0AF
:1015900007C198C0803B910509F4C6C0813B910505
:1015A0004CF4803A910509F49FC0883A910509F0FE
:1015B000F7C0BAC0803C910509F4E3C0883C9105AE
:1015C00009F4DFC0883B910509F0EAC0C2C08091F0
:1015D00046038093BB00CFC090916D0380916E0352
:1015E000981768F490916D03E92FF0E0E35BFC4FEE
:1015F00080818093BB009F5F90936D03BCC08091FE
:101600004703882309F44BC085ED8093BC0080918B
:10161000BC0084FDFCCFC2C080E28093B20385EDA4
:101620008093BC008091BC0084FDFCCFB7C080E3F8
:101630008093B20385ED8093BC008091BC0084FD53
:10164000FCCFACC088E38093B2039BC080916D0354
:101650009091BB00E82FF0E0E35BFC4F90838F5F3D
:1016600080936D0390916D0380916E0382C0809191
:101670006D039091BB00E82FF0E0E35BFC4F90839B
:101680008F5F80936D0380914703882341F085ED40
:101690008093BC008091BC0084FDFCCF7FC081E0C2
:1016A0008093480384EA6EC085ED8093BC008091EE
:1016B000BC0084FDFCCF72C083E080934503109290
:1016C000B10359C08091B103803208F056C08091B7
:1016D000B1039091BB00E82FF0E0EF56FC4F9083F0
:1016E0008F5F8093B10347C08091B103803230F4A3
:1016F000E091B103F0E0EF56FC4F108285ED80934E
:10170000BC008091BC0084FDFCCF10924503609129
:10171000B103E0914B03F0914C0381E993E070E059
:1017200009951092B1032DC084E080934503109277
:101730008F0310929003E0914903F0914A030995B9
:1017400080919003882329F481E080939003109284
:101750006F0390918F03E92FF0E0E159FC4F8081F6
:101760008093BB009F5F90938F0390918F03809134
:101770009003981710F485EC01C085E88093BC00B5
:101780000FC085EC8093BC0009C01092B20385EDB8
:101790008093BC008091BC0084FDFCCF1092450377
:1017A000FF91EF91BF91AF919F918F917F916F9139
:1017B0005F914F913F912F910F900FBE0F901F900F
:1017C00018951092450381E08093470310924803D7
:1017D00082E161E00E947E1183E161E00E947E115E
:1017E000E9EBF0E080818E7F808380818D7F808334
:1017F00088E48093B80085E48093BC0008959C0140
:101800002627822F82958227082E86958695802509
:10181000082E869580258770022E232F86950794A3
:101820008795302D28270694879530252827C901CC
:1018300008950895FC01A489B58912961C92129707
:1018400014961C921E9213978FEF9FEF1A969C93FB
:101850008E931997138A128A108A118A1786168610
:1018600011A210A28CE090E093838283178E168ED3
:101870000895AF92BF92CF92DF92EF92FF920F93B3
:101880001F93DF93CF930F92CDB7DEB78C01611515
:10189000710581F4CE010196D80115969C938E9323
:1018A000149717969C938E93169719969C938E93E4
:1018B000189707C0FC01758364836F5F7F4F778340
:1018C0006683D80114962D913C91159716968D91AB
:1018D0009C9117972817390709F04BC0EDC2883043
:1018E0009105DCF48330910509F41CC18430910525
:1018F00064F48130910509F4E5C0823091050CF063
:10190000FBC0892B09F4DAC022C08530910509F4A7
:1019100046C106970CF06FC122C18B30910509F4C6
:1019200022C28C30910544F48930910509F4F6C146
:101930000A970CF00CC2BFC18D30910509F426C284
:101940008D3091050CF4A6C00E9709F478C2D80129
:1019500014968D919C911597019615969C938E9354
:10196000149716962D913C9117978217930709F4B7
:10197000A3C2F801828193818730910509F466C181
:1019800088309105BCF48330910509F4D7C08430C8
:10199000910544F48130910509F4A6C0029709F03D
:1019A0005AC2B6C08530910509F40BC106970CF0F8
:1019B0002EC1E7C08B30910509F44EC08C309105E3
:1019C0003CF489309105D1F00A970CF0CCC17FC16D
:1019D0008D30910509F4E6C18D3091050CF466C097
:1019E0000E9709F038C2FFC1D8015496ED91FC91D1
:1019F0005597828381E050968C934CC0F801A4895E
:101A0000B58919968C91199719961C9219971A965F
:101A10008C931A9784819581FC01208119968D9170
:101A20009C911A97820F911D1A969C938E931997E9
:101A3000F801228933898217930749F481E0808B6A
:101A40008685978514969C938E93139723C081E087
:101A5000D80151968C931EC0D8015496ED91FC91FB
:101A600055971C962D913C911D97858196818217E3
:101A7000930718F481E051968C9381E0F801808BF4
:101A80000488F589E02DD8011C968D919C911D97B5
:101A900094838383F801848195810196958384835F
:101AA000268137818217930709F4D5C1D80114968E
:101AB000ED91FC91159780818C3721F0F80113820C
:101AC000128235C2D80114968D919C91159701967A
:101AD00015969C938E93149716962D913C9117977B
:101AE0008217930709F4BAC1D8011496ED91FC91BD
:101AF000159780818C3711F7F801848195810196C3
:101B000095838483268137818217930709F4A9C1BD
:101B1000D8011496ED91FC91159780818C3771F660
:101B200050961C92F8018481958101969583848357
:101B3000268137818217930709F49BC1F801A48994
:101B4000B58911961C921E9284819581FC01808139
:101B500090E0DC90CC248C299D298D939C93D80116
:101B600014968D919C911597019615969C938E9342
:101B7000149716962D913C9117978217930709F4A5
:101B80007BC1F801A489B58984819581FC0180819C
:101B900090E0BC90AA248A299B298D939C93D8011C
:101BA00014968D919C911597019615969C938E9302
:101BB000149716962D913C9117978217930709F465
:101BC0005EC1D8011496ED91FC9115978081843601
:101BD00061F0853620F4813609F070CF05CF8E365E
:101BE00009F4AFC0833709F069CFD8015496ED915D
:101BF000FC9155978283F8018481958101969583A4
:101C00008483268137818217930709F43BC1D80169
:101C100091961C921E9290971D961C921E921C9754
:101C20001496ED91FC91159780811C968C931C97CE
:101C30001D961C92F8018481958101969583848379
:101C4000268137818217930709F41FC1D8011C969A
:101C5000FC901C97EE241D96FC92EE921C97149615
:101C6000ED91FC91159780819701280F311D1D96EC
:101C70003C932E931C975496ED91FC91559785813A
:101C800096818217930718F481E051968C93F8019E
:101C9000868D978D0B96FC01EE0FFF1FE00FF11F55
:101CA00028E030E0318320830A97D8015F969C9327
:101CB0008E935E976BC0F801848195810196958320
:101CC0008483268137818217930709F4E1C0D80104
:101CD00052968D919C9153970E94190CF801938B09
:101CE000828BA489B5891A961C921E92199719960F
:101CF0008C91199719961C9219971A968C931A978A
:101D000084819581FC01208119968D919C911A976F
:101D1000820F911D1A969C938E931997D801149651
:101D20008D919C911597019615969C938E9314977F
:101D300016962D913C9117978217930709F05ECE66
:101D4000AAC0D8015496ED91FC9155978283F80171
:101D500084819581019695838483268137818217BA
:101D6000930709F49BC0D80114968D919C91159707
:101D7000019615969C938E93149716962D913C91EF
:101D800017978217930709F067CE8BC0F8018481FB
:101D900095810196958384832681378182179307E5
:101DA00009F482C0D8011F961C921E921E9753966A
:101DB0001C921E9252971C968D919C911D97149681
:101DC000ED91FC911597892B59F431971596FC9359
:101DD000EE9314975E96ED91FC915F97319790C0CA
:101DE00080E090E009C0D8011496ED91FC91159720
:101DF00052968D919C91539760810E94FF0BF80140
:101E0000938B828B268537850488F589E02D0780A2
:101E1000F085E02DE20FF31FD80114968D919C916F
:101E20001597DC018C9180832F5F3F4FF801378736
:101E30002687848595852817390709F45CC0F80141
:101E400084819581019695838483268137818217C9
:101E5000930749F62CC08CE090E005C081E090E04B
:101E600028C082E090E0D80113969C938E9312973D
:101E700023C083E090E01DC084E090E0F4CF85E0D3
:101E800090E017C086E090E0EECF87E090E011C0D0
:101E900088E090E0E8CF89E090E00BC08AE090E035
:101EA000E2CF8BE090E005C08DE090E0DCCF8EE0EB
:101EB00090E0F80193838283D80114962D913C9190
:101EC000159718968D919C9119972817390779F5D0
:101ED00012968D919C9113970D9749F5F8011786ED
:101EE0001686138A128A84859585892B01F52150DF
:101EF000304035832483068CF78DE02D3197D8014F
:101F00005F96FC93EE935E973B96EE0FFF1FE00FFC
:101F1000F11F8081918113969C938E931297F80103
:101F2000828193818730910509F0D9CC83CE0F90BF
:101F3000CF91DF911F910F91FF90EF90DF90CF90A5
:101F4000BF90AF9008951F920F920FB60F92112479
:101F50002F933F938F939F93AF93BF938091B7033A
:101F60009091B803A091B903B091BA033091BB032B
:101F70000196A11DB11D232F2D5F2D3720F02D5768
:101F80000196A11DB11D2093BB038093B7039093CD
:101F9000B803A093B903B093BA038091B3039091AF
:101FA000B403A091B503B091B6030196A11DB11D74
:101FB0008093B3039093B403A093B503B093B60397
:101FC000BF91AF919F918F913F912F910F900FBE35
:101FD0000F901F9018958FB7F8942091B703309108
:101FE000B8034091B9035091BA038FBFB901CA0138
:101FF00008959FB7F8942091B3033091B4034091B2
:10200000B5035091B60386B5A89B06C08F3F21F05B
:102010002F5F3F4F4F4F5F4F9FBF542F432F322FA4
:102020002227280F311D411D511D82E0220F331F31
:10203000441F551F8A95D1F7B901CA0108959B0124
:10204000AC017FB7F8948091B3039091B403A09151
:10205000B503B091B60366B5A89B05C06F3F19F0F4
:102060000196A11DB11D7FBFBA2FA92F982F8827D8
:10207000860F911DA11DB11D62E0880F991FAA1F37
:10208000BB1F6A95D1F7BC012DC0FFB7F8948091B2
:10209000B3039091B403A091B503B091B603E6B534
:1020A000A89B05C0EF3F19F00196A11DB11DFFBF10
:1020B000BA2FA92F982F88278E0F911DA11DB11D12
:1020C000E2E0880F991FAA1FBB1FEA95D1F7861B74
:1020D000970B885E9340C8F22150304040405040FA
:1020E00068517C4F211531054105510571F6089560
:1020F000019739F0880F991F880F991F0297019750
:10210000F1F70895789484B5826084BD84B58160C8
:1021100084BD85B5826085BD85B5816085BDEEE6EF
:10212000F0E0808181608083E1E8F0E010828081CE
:1021300082608083808181608083E0E8F0E080813C
:1021400081608083E1EBF0E0808184608083E0EB5C
:10215000F0E0808181608083EAE7F0E08081846044
:1021600080838081826080838081816080838081A0
:10217000806880831092C1000895982F8E3008F0F7
:102180009E509770809104018295880F880F807C03
:10219000892B80937C0080917A00806480937A0000
:1021A00080917A0086FDFCCF2091780040917900E3
:1021B000942F80E030E0282B392BC90108951F931C
:1021C000CF93DF93182FEB0161E00E943F1120971E
:1021D00009F44AC0CF3FD10509F449C0E12FF0E02E
:1021E000E75EFE4F84918330C1F0843028F4813063
:1021F00051F08230B1F50CC0863019F1873049F1C9
:10220000843079F514C084B5806884BDC7BD33C0FF
:1022100084B5806284BDC8BD2EC080918000806876
:1022200080938000D0938900C093880024C080915F
:102230008000806280938000D0938B00C0938A00DE
:102240001AC08091B00080688093B000C093B30042
:1022500012C08091B00080628093B000C093B4003F
:102260000AC0C038D1051CF4812F60E002C0812F64
:1022700061E00E947E11DF91CF911F910895CF936D
:10228000DF93482F50E0CA018B5F9E4FFC013491D1
:102290004F505F4FFA018491882369F190E0880FD5
:1022A000991FFC01ED52FF4FA591B491FC01E3523F
:1022B000FF4FC591D491662351F42FB7F8948C91B8
:1022C000932F909589238C93888189230BC062304A
:1022D00061F42FB7F8948C91932F909589238C9368
:1022E0008881832B88832FBF06C09FB7F8948C9179
:1022F000832B8C939FBFDF91CF910895482F50E09F
:10230000CA01875E9E4FFC012491CA018B5F9E4FDC
:10231000FC0194914F505F4FFA013491332309F43B
:1023200040C0222351F1233071F0243028F42130B1
:10233000A1F0223011F514C02630B1F02730C1F0E1
:102340002430D9F404C0809180008F7703C080913D
:1023500080008F7D8093800010C084B58F7702C08D
:1023600084B58F7D84BD09C08091B0008F7703C094
:102370008091B0008F7D8093B000E32FF0E0EE0FEE
:10238000FF1FE352FF4FA591B4912FB7F894662336
:1023900021F48C919095892302C08C91892B8C9388
:1023A0002FBF0895682F70E0CB01875E9E4FFC0120
:1023B0002491CB018B5F9E4FFC0144916F507F4F66
:1023C000FB019491992319F420E030E03CC02223D2
:1023D00051F1233071F0243028F42130A1F0223063
:1023E00011F514C02630B1F02730C1F02430D9F4F3
:1023F00004C0809180008F7703C0809180008F7D22
:102400008093800010C084B58F7702C084B58F7D23
:1024100084BD09C08091B0008F7703C08091B00067
:102420008F7D8093B000892F90E0880F991F89518C
:102430009F4FFC01A591B4918C9120E030E0842362
:1024400011F021E030E0C90108951F920F920FB6FC
:102450000F9211242F933F934F938F939F93EF935A
:10246000FF938091C00082FD1DC04091C600209165
:10247000FC033091FD032F5F3F4F2F73307080912D
:10248000FE039091FF032817390771F0E091FC03D8
:10249000F091FD03E454FC4F40833093FD032093FF
:1024A000FC0302C08091C600FF91EF919F918F9134
:1024B0004F913F912F910F900FBE0F901F90189545
:1024C000E0915004F0915104E05CFF4F81919191B3
:1024D00020813181821B930B8F739070892B11F0B7
:1024E0000E94370808951F920F920FB60F92112481
:1024F0002F933F938F939F93EF93FF9320914004EB
:102500003091410480914204909143042817390787
:1025100031F48091C1008F7D8093C10014C0E0919F
:102520004204F0914304E050FC4F2081809142042A
:102530009091430401968F7390709093430480931D
:1025400042042093C600FF91EF919F918F913F919C
:102550002F910F900FBE0F901F901895AF92BF92C2
:10256000DF92EF92FF920F931F93CF93DF93EC01D3
:102570007A018B01DD24403081EE580780E0680746
:1025800080E0780711F0DD24D39491E0A92EB12CDE
:10259000EC89FD89DD2069F0C50108A002C0880F23
:1025A000991F0A94E2F7808360E079E08DE390E080
:1025B00005C0108260E874E88EE190E0A801970100
:1025C0000E9460142150304040405040569547953D
:1025D0003795279580E12030380720F0DD2011F075
:1025E000DD24D6CFE889F9893083EA89FB89208305
:1025F00019A2EE89FF89408121E030E0C9010C8CED
:1026000002C0880F991F0A94E2F7482B4083EE8995
:10261000FF894081C9010D8C02C0880F991F0A945F
:10262000E2F7482B4083EE89FF894081C9010E8C77
:1026300002C0880F991F0A94E2F7482B4083EE8965
:10264000FF8980810F8C02C0220F331F0A94E2F7AA
:10265000209528232083DF91CF911F910F91FF9028
:10266000EF90DF90BF90AF900895DC011C96ED9144
:10267000FC911D97E05CFF4F219131918081918108
:10268000281B390B2F733070C9010895DC011C968B
:10269000ED91FC911D97E05CFF4F20813181E0546A
:1026A000F040DF01AE5BBF4F8D919C9111972817D1
:1026B000390719F42FEF3FEF07C08D919C91E80F78
:1026C000F91F8081282F30E0C9010895DC011C9694
:1026D000ED91FC911D97E05CFF4F20813181E0542A
:1026E000F040DF01AE5BBF4F8D919C911197281791
:1026F000390719F42FEF3FEF10C08D919C9111977E
:10270000E80FF91F20818D919C91119701968F738D
:10271000907011969C938E9330E0C9010895DC016E
:1027200091968C919197882339F05496ED91FC9174
:102730005597808186FFF9CF91961C920895CF938B
:10274000DF93EC01EE85FF85E05CFF4F2081318156
:10275000E054F0402F5F3F4F2F733070DF01AE5BCE
:10276000BF4F8D919C91119728173907D1F3E05CE9
:10277000FF4F80819181E054F040E80FF91F6083A2
:10278000EE85FF85E05CFF4F31832083EE89FF8972
:10279000208181E090E00F8C02C0880F991F0A947D
:1027A000E2F7282B208381E089A3EC89FD898081D1
:1027B0008064808381E090E0DF91CF910895109252
:1027C00047041092460488EE93E0A0E0B0E08093C6
:1027D000480490934904A0934A04B0934B0485E5C0
:1027E00091E090934504809344048CEB93E09093A4
:1027F00051048093500480E094E0909353048093BC
:10280000520485EC90E0909355048093540484EC3A
:1028100090E0909357048093560480EC90E090935E
:1028200059048093580481EC90E090935B0480936A
:102830005A0482EC90E090935D0480935C0486ECF3
:1028400090E090935F0480935E0484E08093600442
:1028500083E08093610487E08093620485E0809345
:10286000630481E08093640408950895CF92DF9219
:10287000EF92FF920F931F93CF93DF937C016B0135
:102880008A01C0E0D0E00FC0D6016D916D01D70183
:10289000ED91FC910190F081E02DC7010995C80FE1
:1028A000D91F015010400115110571F7CE01DF91BC
:1028B000CF911F910F91FF90EF90DF90CF900895EF
:1028C000A1E21A2EAA1BBB1BFD010DC0AA1FBB1F34
:1028D000EE1FFF1FA217B307E407F50720F0A21BA6
:1028E000B30BE40BF50B661F771F881F991F1A9413
:1028F00069F760957095809590959B01AC01BD013D
:10290000CF010895EE0FFF1F0590F491E02D09947B
:102910002F923F924F925F926F927F928F929F92EF
:10292000AF92BF92CF92DF92EF92FF920F931F93DD
:10293000CF93DF93CDB7DEB7CA1BDB0B0FB6F8948E
:10294000DEBF0FBECDBF09942A88398848885F84CE
:102950006E847D848C849B84AA84B984C884DF803F
:10296000EE80FD800C811B81AA81B981CE0FD11D23
:102970000FB6F894DEBF0FBECDBFED010895F894F9
:02298000FFCF87
:102982007C7C7C0001000000002901FEFF00002584
:1029920001FCFF00002101000000003514000000CE
:1029A200003514000000003514000000004701410A
:1029B200020000000047013514000000004D0173C1
:1029C20002000000001209E10864086D0882089301
:1029D20008000000009F1336143513661346138F48
:0229E2001300E0
:00000001FF
