:100000000C94B2000C94DA000C94DA000C94DA0030
:100010000C94DA000C94DA000C94DA000C94DA00F8
:100020000C94DA000C94DA000C94DA000C94DA00E8
:100030000C94DA000C94DA000C94DA000C94DA00D8
:100040000C94200E0C94DA000C948B110C94BD11BE
:100050000C94DA000C94DA000C94DA000C94DA00B8
:100060000C94AC080C94DA00320C460C5C0C780C46
:100070009C0CCA0CE90C200DC70B5A0DF10B140C8B
:100080007B0D950D1C0C200C3A0C500C6C0C8A0C42
:10009000BE0CDD0C050E390D4E0D5A0D080C6F0D02
:1000A000A00D687474703A2F2F6769746875622E9A
:1000B000636F6D2F776865656C65722D6D6963720E
:1000C0006F666C7569646963732F626173655F6ED7
:1000D0006F64655F7270632E67697400302E313211
:1000E0002E706F73743900576865656C6572204CAB
:1000F00061620000626173652D6E6F64652D7270C0
:100100006300000000000800020100000304070073
:1001100000000000000000010204081020408001DF
:10012000020408102001020408102004040404043E
:100130000404040202020202020303030303030095
:1001400000000023002600290000000000250028F0
:10015000002B0000000000240027002A00004402B9
:10016000F10AED1111241FBECFEFD8E0DEBFCDBFE5
:1001700011E0A0E0B1E0E4E9F5E202C005900D92E3
:10018000A436B107D9F724E0A4E6B1E001C01D927E
:10019000AF35B207E1F711E0C4E6D1E004C0229721
:1001A000FE010E947D12CE35D107C9F70E94870754
:1001B0000C94C8120C94000040E850E060E070E03D
:1001C000BC01655F7E4FCB01BA01089502970C9484
:1001D000DC0004970C94DC00E0916C02F0916D025D
:1001E0000280F381E02DBC018CE692E00994FC01D1
:1001F000828193810C940E0BCF93DF93EC010E94CC
:10020000F7001C82DF91CF9108950F931F93CF9336
:10021000DF938C01EB01BC01CE010E948612C80164
:100220000E948D12AC01BE01CB01BA01DF91CF91CA
:100230001F910F9108950F931F93CF93DF93EC01BC
:100240001A86198600E010E02B813C8189859A8509
:100250000217130760F4EF81F885E00FF11F60814A
:100260000E94F50A9A8789870F5F1F4FEDCF0E9482
:100270000D0B9A878987DF91CF911F910F91089578
:1002800026E040E052EC61E070E08EEB93E00E94EB
:1002900029118CE08093B8006CEE70E08FE593E05C
:1002A0000C94EC0ADC01ED91FC910280F381E02DCD
:1002B00041E050E009940F931F93CF93DF93EC013B
:1002C0008B01E881F9816F5F7F4F0280F381E02D20
:1002D00041E050E00995E881F9810280F381E02D49
:1002E00041E050E0B801CE01DF91CF911F910F9115
:1002F0000994FC01E158FF4F0190F081E02D218924
:10030000222359F083589F4FDC01ED91FC9101901D
:10031000F081E02D099580E0089580890895FC0121
:10032000E158FF4F0190F081E02D2189222331F027
:1003300083589F4F0E94FC0080E0089580890895B3
:100340000F931F93CF93DF93EC018B01E881F98129
:100350006F5F7F4F0280F381E02D41E050E009950F
:10036000E881F9810280F381E02D41E050E0B8019D
:10037000CE01DF91CF911F910F910994EF92FF92DF
:100380000F931F93CF93DF93CDB7DEB762970FB66E
:10039000F894DEBF0FBECDBF7C012A8B8FEF9FEF9D
:1003A0009B878A871A8309832B835F834E83798790
:1003B00068875D834C83CE0101960E941B018CE708
:1003C0009CE7ACE7B0E08C879D87AE87BF87D701FD
:1003D0008D919C91DC01ED91FC910280F381E02DE7
:1003E00043E050E0BE01645F7F4F0995BE016F5F3F
:1003F0007F4FF701808191810E94A001D7018D91EB
:100400009C91DC01ED91FC910280F381E02D41E0B3
:1004100050E0BE016E5E7F4F09958B81843611F0EE
:10042000833729F58C819D81998B888BBE01605F14
:100430007F4FD7018D919C910E94A0014C815D81DD
:100440004115510561F0F70180819181DC01ED9149
:10045000FC91688579850280F381E02D0995BE01C4
:10046000665F7F4FF701808191810E94A0016296B3
:100470000FB6F894DEBF0FBECDBFDF91CF911F91B5
:100480000F91FF90EF9008954F925F926F927F923D
:100490008F929F92AF92BF92CF92DF92EF92FF9294
:1004A0000F931F93CF93DF93C6E6D1E08BE091E0EB
:1004B0009983888388E6E82E81E0F82E81E191E037
:1004C000D7018D939C930AE611E087E191E0F80152
:1004D00091838083ECEBF1E0118210821092BE01D7
:1004E0001092C0011092BF0144244A94542C50929F
:1004F000C6014092C50120E5622E712C7092C201A6
:100500006092C1018CE691E09093C4018093C30195
:1005100037ECA32E31E0B32ED5011C921092C80106
:100520001092D4011092D3011092D6011092D501ED
:100530001092DA011092D9011092E8011092E701AD
:10054000F093DC01E093DB01C5010E940E0B49EE44
:10055000C42E41E0D42E5DE1852E51E0952EF601AA
:1005600091828082B092EC01A092EB01C6010E94C0
:10057000F70085E291E0D6018D939C938EEB93E09A
:100580009093EE018093ED01EFE3F2E0118210828F
:10059000109241021092430210924202509249027C
:1005A0004092480270924502609244028FEE91E0C0
:1005B00090934702809346026AE4A62E62E0B62E2C
:1005C000D5011C9210924B021092570210925602C3
:1005D000109259021092580210925D0210925C0221
:1005E00010926B0210926A02F0935F02E0935E0237
:1005F000C5010E940E0B7CE6C72E72E0D72EF601D5
:1006000091828082B0926F02A0926E02C6010E9417
:10061000F7008DE291E0D6018D939C9310927002C9
:10062000C6010E94FC0085E391E0998388838BE3F7
:1006300091E0F7019183808381E491E0D8018D936B
:100640009C93D0936501C0936401DF91CF911F917A
:100650000F91FF90EF90DF90CF90BF90AF909F9061
:100660008F907F906F905F904F900895CF93DF931E
:10067000E091E901F091EA01C281D3818EEB93E030
:100680000E944610BC0189EE91E0FE01DF91CF91FE
:100690000994BF92CF92DF92EF92FF920F931F9334
:1006A000CF93DF931F92CDB7DEB78C017B018FE52F
:1006B00093E00E94E109B82E81E0E81AF108F80100
:1006C0008481811101C0B482C12CD12CCE14DF04ED
:1006D000A4F48FE593E00E94E1098983F801848105
:1006E000B81207C0BE016F5F7F4F828193810E9465
:1006F0002D0BFFEFCF1ADF0AE9CF0F90DF91CF91DB
:100700001F910F91FF90EF90DF90CF90BF900895D1
:10071000EF92FF920F931F93CF93DF93CDB7DEB786
:1007200063970FB6F894DEBF0FBECDBF8C012B8B45
:100730001A8219828FEF9FEF9B878A872B835F83B3
:100740004E83798768875D834C83CE0101960E9432
:100750001B018CE79CE7ACE7B0E08C879D87AE87F8
:10076000BF878091BA0086958A8BF80160818FE5FA
:1007700093E00E94CC0ABE016E5E7F4F8FE593E04E
:100780000E94520143E050E0BE01645F7F4F8FE55D
:1007900093E00E94330ABE016F5F7F4F8FE593E0C5
:1007A0000E945B01BE016D5E7F4F8FE593E00E946A
:1007B00052018C819D81998B888BBE01605F7F4F38
:1007C0008FE593E00E945B018FE593E00E94E90AC8
:1007D000EC80FD80E114F10461F1F0E2EF16F10428
:1007E00018F0EFE1EE2EF12CF80160818FE593E037
:1007F0000E94CC0ABE016E5E7F4F8FE593E00E949F
:10080000520168857985A7018FE593E00E94330A3C
:100810008FE593E00E94E90A888599858E0D9F1DDA
:10082000998788878C819D818E199F099D838C83F0
:10083000CFCFF80160818FE593E00E94CC0ABE0122
:100840006E5E7F4F8FE593E00E945201BE01665FAE
:100850007F4F8FE593E00E945B018FE593E00E945C
:10086000E90A63960FB6F894DEBF0FBECDBFDF91E5
:10087000CF911F910F91FF90EF9008958F929F92CB
:10088000AF92BF92CF92DF92EF92FF920F931F939E
:10089000CF93DF9300D000D0CDB7DEB7DC01FB01F2
:1008A00069018081803209F436C208F05BC089306A
:1008B00009F420C140F5843009F4E9C0C0F4813066
:1008C00009F4C7C008F4B8C0823009F4D3C083303B
:1008D00009F07EC28D919C91DC01ED91FC9101901B
:1008E000F081E02D0995BC0187EE90E0BEC0863016
:1008F00009F4E7C008F4D8C0873009F4EAC08830AA
:1009000009F4F0C065C28E3009F41BC180F48B304D
:1009100009F40EC108F4F9C08C3009F40EC18D3011
:1009200009F056C2628181810E94E50F56C2803172
:1009300009F411C108F409C1813109F418C18231E7
:1009400009F046C29B012F5F3F4F83819481820F44
:10095000931F9483838381819281A381B4818C01CD
:100960006D013DC2863609F47CC1D8F5813609F4A3
:100970002FC128F5813409F40DC1A8F4803409F0A1
:1009800027C29B012F5F3F4F85819681820F931F66
:10099000968385836181728143815481F8940E949A
:1009A000A61278941AC2823409F40DC1803609F077
:1009B0000FC261818FE593E00E94A90A0EC28336BF
:1009C00009F410C108F408C1843609F440C1853621
:1009D00009F0FEC18FE593E00E94E109F6018083F2
:1009E00048C1803809F497C178F4883609F473C196
:1009F00008F442C1893609F488C18A3609F0E8C191
:100A00008091BA008E7F84C1823809F4D0C108F485
:100A10008EC1803A09F4D2C1813A09F0D9C126E0E9
:100A200040E052EC61E070E08EEB93E00E9429110F
:100A30008CE08093B800D1C18D919C91DC01ED9147
:100A4000FC910190F081E02D0995BC0182E091E0DC
:100A50000CC08D919C91DC01ED91FC910190F08195
:100A6000E02D0995BC0184EF90E00E9405018B0107
:100A70006C01B5C18D919C91DC01ED91FC910190CF
:100A8000F081E02D0995BC0183EF90E0EECF8D91D0
:100A90009C91DC01ED91FC910190F081E02D099594
:100AA000BC018CED90E0E1CF8D919C91DC01ED914A
:100AB000FC910190F081E02D0995BC0182EA90E063
:100AC000D4CF0E94760EF601608371838283938374
:100AD0002BC10E946A0ED6016D937D938D939C93DA
:100AE000139722C181819281009709F476C10E94F7
:100AF000C10E73C1618172816115710509F46DC107
:100B000080E090E00E94990E68C120915B043091D2
:100B10005C048DB79EB72115310519F48F559440AB
:100B200002C0821B930BAA2797FDA095BA2FF7C08E
:100B3000628181810E94AC0F50C181810E941B1093
:100B400096C081810E94070F49C0628170E0818157
:100B50000E94240F42C19B012F5F3F4F83819481EC
:100B6000820F931F948383838181928174C09B0140
:100B70002F5F3F4F83819481820F931F94838383E0
:100B800001811281238134816901000F111F000F3F
:100B9000111F25C103811481E180F2808D919C9108
:100BA000DC011296ED91FC9113970190F081E02DFC
:100BB00002960995DC01CB016D01A801B701CD01B9
:100BC0000E9496120CC18FEF93E0A0E0B0E0A7C0A6
:100BD0008091BA0086954BC080E290E0F601918347
:100BE00080833CC08D919C91DC011496ED91FC9129
:100BF00015970190F081E02D049609957B016C0119
:100C0000F8E09F2E00E010E00E151F0508F0E7C089
:100C1000692D8FE593E00E94CC0A8FE593E00E9456
:100C2000E90A81110FC05801BFEFAB1ABB0AF601E8
:100C3000E00FF11F908261E070E080E090E00E94A0
:100C4000990E85019394E8E79E12DECFC8C08FE528
:100C500093E00E94D909D6018D939C9302E010E0A5
:100C6000BEC0428161818FE593E00E94C90AD6012E
:100C70008C9301E010E0B3C0B280F1808D919C9123
:100C8000DC011496ED91FC9115970190F081E02D17
:100C900004960995182F092FC82ED92E4B2D6F2D8C
:100CA0008FE593E00E94C90AA12EE12EF02E0E2DB1
:100CB0000A198FE593E00E94D909892B31F08FE55D
:100CC00093E00E94E1090B1510F010E088C0F701D5
:100CD00081937F01ECCFCB01019604811581080F30
:100CE000191F15830483E280F38061818FE593E00F
:100CF0000E94CC0AA701B8018FE593E00E94330A55
:100D00008FE593E00E94E90A68C08091BA00816093
:100D10008093BA0062C089E490E0A0E0B0E0F60100
:100D200080839183A283B38304E010E058C09B01C9
:100D30002F5F3F4F84819581820F931F958384831A
:100D40001181CD90DC90428153816481758176015F
:100D5000FAEFEF1AFEEFFF0AC70149835A836B834C
:100D60007C830E94FC00C601865F9E4FDC011C93C1
:100D700024E649815A816B817C810E9488030E940C
:100D80006A0E4B015C01860107571F4F0E946A0ED5
:100D9000681979098A099B096838734181059105A9
:100DA00088F5C8010E948F0181112CC0EFCF8D9171
:100DB0009C918A5F9E4F0E94FC000FC08D919C9178
:100DC000DC01ED91FC910190F081E02D09954FCE71
:100DD000C12CD12C0FEF1FEF02C000E010E0B801D2
:100DE000C6010F900F900F900F90DF91CF911F9140
:100DF0000F91FF90EF90DF90CF90BF90AF909F90BA
:100E00008F900895F601E752FF4FC780D084038189
:100E100014810834110510F007E410E0C7010E94A6
:100E2000FC00DDCF0F931F93CF93DF93FC01CB0129
:100E3000C381D4812281243611F4209759F420E013
:100E400030E04FEF5FEFBA01C901DF91CF911F9101
:100E50000F910895A781B0859D0105811681AE018E
:100E6000BD010E943E04AB019C01EDCF0F931F9387
:100E70008CE691E00E947901882301F18CE691E0F3
:100E80000E9479018823D1F064E671E08CEB91E057
:100E90000E941207AB01BC01CA016115710511F472
:100EA00080E090E0AC0100E010E024E68DEE91E0FF
:100EB0000E94BE0189EE91E00E94F7008FEE91E062
:100EC0000E948F01882301F18FEE91E00E948F0133
:100ED0008823D1F064E671E08FE392E00E9412076C
:100EE000AB01BC01CA016115710511F480E090E00D
:100EF000AC0124E680E792E00E9488038CE692E051
:100F00001F910F910C94FC001F910F9108950E9466
:100F1000CC0E0E944001C3E7D0E10E943607209723
:100F2000E1F30E947310F9CFCF92DF92EF92FF921C
:100F30000F931F93CF93DF931F92CDB7DEB77C0142
:100F40006B0100E010E00C151D0584F48EEB93E0BE
:100F50000E945F108983BE016F5F7F4FF70182811E
:100F600093810E942D0B0F5F1F4FEDCF0F90DF91EC
:100F7000CF911F910F91FF90EF90DF90CF90089548
:100F800010925E0381E080935C0310925B0361E04A
:100F900082E10E94E50F61E083E10E94E50FE9EB49
:100FA000F0E080818E7F808380818D7F808388E4E4
:100FB0008093B80085E48093BC000895880F8093E7
:100FC000BA000895413208F03FC090915E0391113C
:100FD000FCCF91E090935E0320935C032FEF20936E
:100FE000F10210923603240F2093350390935D0392
:100FF00090915D03880F892B80935D0380915B0343
:10100000813041F410925B0380915D038093BB00BB
:1010100085EC01C085EE8093BC0080915E03813039
:10102000E1F380913603841710F44091360327E3EF
:1010300033E0FB01D9018A2F821B841718F48D91AC
:101040008193F9CF842F089580E008950F93413262
:1010500008F046C090915E039111FCCF92E090930E
:101060005E0300935C039FEF9093F10210923603AE
:1010700040933503FB0167E373E0DB019A2F961B76
:10108000941718F491919D93F9CF10925D0390916C
:101090005D03880F892B80935D0380915B03813012
:1010A00041F410925B0380915D038093BB0085EC5B
:1010B00001C085EE8093BC00222321F080915E0365
:1010C0008230E1F38091F1028F3F61F08091F10273
:1010D000803251F08091F102803341F483E007C007
:1010E00081E005C080E003C082E001C084E00F9190
:1010F0000895613298F420915E03243089F460935E
:101100001303FC0185E193E0DC012A2F281B26173D
:1011100018F421912D93F9CF80E0089581E008958E
:1011200082E0089590935803809357030895909315
:101130005A0380935903089585ED8093BC008091F4
:10114000BC0084FDFCCF10925E03089585EC809373
:10115000BC0010925E0308951F920F920FB60F927B
:1011600011242F933F934F935F936F937F938F93AC
:101170009F93AF93BF93EF93FF938091B900887FC4
:10118000803609F49CC068F5883209F45BC090F49D
:10119000803109F454C038F4882309F4F5C088304C
:1011A00009F44DC0F5C0883109F44CC0803209F40F
:1011B0005DC0EEC0803409F468C048F4803309F49F
:1011C00055C0883309F0E4C08093F102A8C080358F
:1011D00009F44FC0883509F45DC0883409F0D8C0DF
:1011E000D5C0883909F4C6C0A8F4883709F467C0A7
:1011F00038F4883609F463C0803709F460C0C8C089
:10120000883809F4B7C0803909F45FC0803809F024
:10121000BFC05BC0803B09F485C038F4803A09F454
:1012200066C0883A09F47EC0B3C0803C09F4A6C009
:10123000883C09F4A3C0883B09F489C0A9C0809107
:101240005D0310C09091360380913503981770F5B7
:10125000E091360381E08E0F80933603F0E0E95C85
:10126000FC4F80818093BB0085EC85C08093F102A8
:101270008DC0E091360381E08E0F8093360380911C
:10128000BB00F0E0E95CFC4F8083909136038091D5
:1012900035036DC0E091360381E08E0F80933603F5
:1012A0008091BB00F0E0E95CFC4F808380915C039F
:1012B00081116CC081E080935B0384EA60C083E0AD
:1012C00080935E031092F202CFCF8091F2028032BF
:1012D00008F050C0E091F20281E08E0F8093F2029C
:1012E0008091BB00F0E0ED50FD4F8083BDCF809139
:1012F000F202803230F4E091F202F0E0ED50FD4F66
:1013000010820E949C086091F20270E0E091570305
:10131000F091580383EF92E009951092F2020E9437
:10132000A60836C084E080935E03109214031092E6
:101330001303E0915903F0915A0309958091130327
:10134000811105C081E08093130310921503E09191
:10135000140381E08E0F80931403F0E0EB5EFC4FEA
:1013600080818093BB0090911403809113039817A0
:1013700008F47ACF85E88093BC000AC085EC80939E
:10138000BC0010925E0304C01092F1020E949C08FF
:10139000FF91EF91BF91AF919F918F917F916F914D
:1013A0005F914F913F912F910F900FBE0F901F9023
:1013B00018958091930390E020919403821B9109EA
:1013C00008952091940380919303281750F4E22FFD
:1013D000F0E0EB56FC4F808190E02F5F2093940368
:1013E00008958FEF9FEF0895E09194038091930308
:1013F000E81730F4F0E0EB56FC4F808190E0089560
:101400008FEF9FEF08950895E0916B03F0916C03C7
:101410003097E1F030919403209193033217B0F0AC
:1014200040E0242F30E02617370754F4DC01A20FE8
:10143000B31F5C91D901AB56BC4F5C934F5FF1CFAA
:101440001092940360939303CB0109940895E09163
:101450006D03F0916E03309729F010927103109292
:10146000700309940895CF92DF92EF92FF920F9349
:101470001F93CF93DF937C01CB018A0120916F03EF
:10148000222389F0EB016B01C40ED51ECC15DD05BE
:1014900069F06991D701ED91FC910190F081E02D07
:1014A000C7010995F3CF642F0E947908C801DF9125
:1014B000CF911F910F91FF90EF90DF90CF90089503
:1014C000CF93DF931F92CDB7DEB7698320916F036F
:1014D0002223D1F020917003203240F021E030E04F
:1014E000FC013383228380E090E015C0809171037A
:1014F000E82FF0E0EE58FC4F998190838F5F809346
:1015000071038093700305C061E0CE0101960E94D3
:10151000790881E090E00F90DF91CF910895FC0170
:101520001382128248EE53E060E070E044835583FA
:101530006683778387E491E0918380830895109296
:1015400094031092930310927103109270030C9401
:10155000C007CF93DF93EC01862F0E94DE0787E25E
:101560009AE00E94970884E09AE00E949208CE01D7
:10157000DF91CF910C949F0A862F413208F040E210
:1015800065E973E00E94E20710929403809393034D
:10159000089521E00C94BC0A81E080936F0360936E
:1015A0009203109271031092700308950F93062F07
:1015B00021E04091700362E773E0809192030E9402
:1015C0002608109271031092700310926F030F910E
:1015D000089561E00C94D60A70936C0360936B03DA
:1015E00008958FE593E00C948F0A8627682F629503
:1015F0006827062E669566956025062E66956025F9
:101600006770082E892F669507946795902D862719
:10161000069467959025862708950895FC01A4896E
:10162000B58912961C92129714961C921E921397CB
:101630008FEF9FEF1A969C938E931997138A128AB5
:10164000108A118A1786168611A210A28CE090E0EB
:1016500093838283178E168E0895AF92BF92CF9296
:10166000DF92EF92FF920F931F93CF93DF931F921E
:10167000CDB7DEB78C016115710581F4CE010196FD
:10168000D80115969C938E93149717969C938E93DE
:10169000169719969C938E93189707C0FC01758333
:1016A00064836F5F7F4F77836683D80114962D9193
:1016B0003C91159716968D919C911797281739078D
:1016C00009F057C071C2608180E090E00E94F50A85
:1016D000F801938B828B0488F589E02D0780F085D3
:1016E000E02DD8011E968D919C911F979C012F5F34
:1016F0003F4F1F963C932E931E9714962D913C912D
:101700001597D9012C91E80FF91F2083F801268540
:101710003785848595852817390709F011C2068C0D
:10172000F78DE02DCF010197D8015F969C938E93A2
:101730005E973A96EE0FFF1FE00FF11F80819181B7
:1017400013969C938E931297D8011296ED91FC916B
:101750001397EF30F10508F454C2F80184819581A4
:10176000019695838483268137818217930709F434
:101770001BC2D8011296ED91FC9113973197EE3070
:10178000F10508F0EBC1EC5CFF4F0C947B12D80123
:101790005496ED91FC915597F184E12CF286E18607
:1017A00014968D919C911597DC018C919701280FCF
:1017B000311DC90132872187D80152962D913C9164
:1017C00053978217930749F481E050968C93509772
:1017D0001E968D919C911F9719C081E0F801818B15
:1017E00017C0D8011C968D919C911D975496ED9130
:1017F000FC915597258136812817390718F421E087
:1018000051962C9321E0D80150962C939483838396
:10181000F80184819581019695838483268137819F
:101820008217930709F49AC1D8011496ED91FC919F
:10183000159780818C3721F0F80113821282F4C150
:10184000D80114968D919C911597019615969C93AD
:101850008E93149716962D913C91179782179307A4
:1018600009F47FC1D8011496ED91FC911597808100
:101870008C3711F7F80184819581019695838483D3
:10188000268137818217930709F46EC1D801149617
:10189000ED91FC91159780818C3771F650961C92D2
:1018A000F80184819581019695838483268137810F
:1018B0008217930709F460C1D8015496ED91FC9109
:1018C00055971182108214968D919C911597DC0189
:1018D0008C9190E091838083F801848195810196B9
:1018E00095838483268137818217930709F447C142
:1018F000D8015496ED91FC91559714968D919C9139
:101900001597DC018C91B080A12C9501282BC90181
:1019100091838083D80114968D919C91159701969F
:1019200015969C938E93149716962D913C9117972C
:101930008217930709F426C1D8011496ED91FC9102
:10194000159780818436A1F068F4813609F074CF50
:10195000D8015496ED91FC915597828381E0509681
:101960008C9356CF8E3609F493C0833709F064CF39
:10197000D8015496ED91FC9155978283F8018481AA
:1019800095810196958384832681378182179307F9
:1019900009F4FBC0D80191961C921E9290971D9657
:1019A0001C921E921C971496ED91FC9115978081C4
:1019B00090E01D969C938E931C97F80184819581ED
:1019C000019695838483268137818217930709F4D2
:1019D000DFC0D8011C96DC901C97C12C1D96DC92B0
:1019E000CE921C971496ED91FC9115978081F6018B
:1019F000E80FF11DCF011D96FC93EE931C975496B2
:101A0000ED91FC915597258136812817390718F4F7
:101A100081E051968C93D8015E96ED91FC915F9791
:101A2000CF0101965F969C938E935E973B96EE0F47
:101A3000FF1FE00FF11F88E090E0918380834FC08B
:101A4000D80152968D919C9153970E940D0BF801ED
:101A5000938B828B0488F589E02D12861186D8013C
:101A600014968D919C911597DC018C9190E0928752
:101A70008187F801848195810196958384832681ED
:101A800037818217930709F082CE89E090E089C000
:101A9000D8015496ED91FC9155978283F801848189
:101AA00095810196958384832681378182179307D8
:101AB00009F471C0D80114968D919C9115970196E7
:101AC00015969C938E93149716962D913C9117978B
:101AD0008217930709F085CE8BE090E062C0F80191
:101AE000848195810196958384832681378182172D
:101AF000930709F453C0D8011F961C921E921E979B
:101B000053961C921E9252971C968D919C911D97F4
:101B10001496ED91FC911597892B09F0D4CD31974E
:101B20001596FC93EE93149765C0D8011496ED9129
:101B3000FC911597608152968D919C915397C6CDDB
:101B4000F80184819581019695838483268137816C
:101B50008217930751F78EE090E023C08CE090E06D
:101B600005C081E090E01DC082E090E0D8011396AE
:101B70009C938E93129718C083E090E012C084E08B
:101B800090E0F4CF85E090E00CC086E090E0EECFEE
:101B900087E090E006C08AE090E0E8CF8DE090E03A
:101BA000E5CFF80193838283D80114968D919C919F
:101BB000159718962D913C91199782179307A1F5C7
:101BC00012962D913C9113972D30310569F51F9692
:101BD0001C921E921E9753961C921E9252971C9610
:101BE0002D913C911D97232BF9F4019715969C9309
:101BF0008E9314975E96ED91FC915F97CF010197BC
:101C000094CDEE5BFF4F0C947B12F801848195819B
:101C1000019695838483268137818217930709F083
:101C20000FCF88E090E0A2CF0F90DF91CF911F916E
:101C30000F91FF90EF90DF90CF90BF90AF900895FD
:101C40001F920F920FB60F9211242F933F938F93F1
:101C50009F93AF93BF938091B6039091B703A091E8
:101C6000B803B091B9033091B50323E0230F2D37AA
:101C700020F40196A11DB11D05C026E8230F029690
:101C8000A11DB11D2093B5038093B6039093B703B4
:101C9000A093B803B093B9038091BA039091BB03AA
:101CA000A091BC03B091BD030196A11DB11D80930D
:101CB000BA039093BB03A093BC03B093BD03BF9141
:101CC000AF919F918F913F912F910F900FBE0F90E9
:101CD0001F9018952FB7F8946091B6037091B703D1
:101CE0008091B8039091B9032FBF08953FB7F8943E
:101CF0008091BA039091BB03A091BC03B091BD0346
:101D000026B5A89B05C02F3F19F00196A11DB11D56
:101D10003FBF6627782F892F9A2F620F711D811D73
:101D2000911D42E0660F771F881F991F4A95D1F7D2
:101D30000895CF92DF92EF92FF92CF93DF936B01E2
:101D40007C010E94760EEB01C114D104E104F10480
:101D500089F00E9458120E94760E6C1B7D0B683E23
:101D6000734090F381E0C81AD108E108F108C85126
:101D7000DC4FEACFDF91CF91FF90EF90DF90CF90D3
:101D800008958230910538F0880F991F880F991FA8
:101D900005970197F1F70895789484B5826084BD22
:101DA00084B5816084BD85B5826085BD85B581605F
:101DB00085BDEEE6F0E0808181608083E1E8F0E0BF
:101DC0001082808182608083808181608083E0E8EE
:101DD000F0E0808181608083E1EBF0E080818460CD
:101DE0008083E0EBF0E0808181608083EAE7F0E0CF
:101DF0008081846080838081826080838081816033
:101E000080838081806880831092C10008958E3025
:101E100008F08E5087702091060190E4299F900170
:101E20001124822B80937C0080917A0080648093BF
:101E30007A0080917A0086FDFCCF80917800209115
:101E4000790090E0922B08951F93CF93DF93182F82
:101E5000EB0161E00E94AC0F209711F460E004C038
:101E6000CF3FD10539F461E0812FDF91CF911F91F0
:101E70000C94E50FE12FF0E0ED5FFE4FE491E330CD
:101E8000F9F048F4E130B9F0E230A1F584B58062B0
:101E900084BDC8BD34C0E730E9F0E83019F1E43062
:101EA00049F580918000806280938000D0938B0000
:101EB000C0938A0024C084B5806884BDC7BD1FC09C
:101EC00080918000806880938000D0938900C093C7
:101ED000880015C08091B00080688093B000C093E6
:101EE000B3000DC08091B00080628093B000C093B9
:101EF000B40005C0C038D1050CF0B5CFAFCFDF912D
:101F0000CF911F910895833081F028F4813099F0AA
:101F10008230A1F008958730A9F08830B9F084307C
:101F2000D1F4809180008F7D03C0809180008F77F5
:101F300080938000089584B58F7702C084B58F7D2B
:101F400084BD08958091B0008F7703C08091B00068
:101F50008F7D8093B0000895CF93DF9390E0FC01D4
:101F6000E95EFE4F2491FC01E55DFE4F84918823DC
:101F700049F190E0880F991FFC01ED5AFE4FA591A1
:101F8000B491875B9E4FFC01C591D4919FB76111BD
:101F900008C0F8948C91209582238C9388818223A9
:101FA0000AC0623051F4F8948C91322F309583231B
:101FB0008C938881822B888304C0F8948C91822B27
:101FC0008C939FBFDF91CF9108950F931F93CF9371
:101FD000DF931F92CDB7DEB7282F30E0F901ED5F18
:101FE000FE4F8491F901E95EFE4F1491F901E55D20
:101FF000FE4F04910023C9F0882321F069830E94D9
:10200000830F6981E02FF0E0EE0FFF1FE75BFE4FCB
:10201000A591B4919FB7F8948C91611103C010956C
:10202000812301C0812B8C939FBF0F90DF91CF91B3
:102030001F910F910895CF93DF93282F30E0F9017E
:10204000ED5FFE4F8491F901E95EFE4FD491F901F5
:10205000E55DFE4FC491CC2391F081110E94830F66
:10206000EC2FF0E0EE0FFF1FE15CFE4FA591B49165
:102070002C912D2381E090E021F480E002C080E0EB
:1020800090E0DF91CF9108950E948112FC01818D33
:10209000228D90E0805C9F4F821B91098F7399275E
:1020A0000895FC01918D828D981731F0828DE80F93
:1020B000F11D858D90E008958FEF9FEF0895FC014D
:1020C000918D828D981761F0828DDF01A80FB11D6F
:1020D0005D968C91928D9F5F9F73928F90E0089593
:1020E0008FEF9FEF089583EE91E1892B49F086E30E
:1020F00093E0892B29F00E94E31181110C9436039F
:102100000895FC01848DDF01A80FB11DA35ABF4FB4
:102110002C91848D90E001968F739927848FA689E6
:10212000B7892C93A089B1898C9180648C93938D0D
:10213000848D981306C00288F389E02D80818F7DFD
:1021400080830895CF93DF93EC01888D8823C9F0B5
:10215000EA89FB89808185FD05C0A889B9898C91B0
:1021600086FD0FC00FB607FCF5CF808185FFF2CF4B
:10217000A889B9898C9185FFEDCFCE010E9481108D
:10218000E7CFDF91CF910895CF92DF92FF920F9327
:102190001F93CF93DF931F92CDB7DEB76C0181E021
:1021A000D60158968C9358975B969C915B975C965A
:1021B0008C915C97981307C05096ED91FC915197C4
:1021C000808185FD2EC0F601038D10E00F5F1F4F4B
:1021D0000F731127F02EF601848DF81211C00FB67F
:1021E00007FCF9CFD6015096ED91FC915197808173
:1021F00085FFF1CFC60169830E9481106981EBCF11
:10220000838DE80FF11DE35AFF4F6083D6015B9683
:102210000C935B975296ED91FC915397808180626D
:102220000CC0D6015696ED91FC915797608350965D
:10223000ED91FC91519780818064808381E090E0F2
:102240000F90DF91CF911F910F91FF90DF90CF9072
:102250000895BF92CF92DF92EF92FF92CF93DF93D8
:10226000EC016A017B01B22EE889F98982E0808362
:10227000411581EE580761057105A1F060E079E034
:102280008DE390E0A70196010E9459122150310977
:10229000410951095695479537952795211580E1B4
:1022A000380798F0E889F989108260E874E88EE1CF
:1022B00090E0A70196010E9459122150310941096D
:1022C00051095695479537952795EC85FD853083BF
:1022D000EE85FF852083188EEC89FD89B082EA891E
:1022E000FB89808180618083EA89FB8980818860A5
:1022F0008083EA89FB89808180688083EA89FB8901
:1023000080818F7D8083DF91CF91FF90EF90DF9070
:10231000CF90BF9008951F920F920FB60F92112485
:102320002F938F939F93EF93FF93E091CE03F091C0
:10233000CF038081E091D403F091D50382FD12C0D8
:1023400090818091D7038F5F8F732091D80382177C
:1023500051F0E091D703F0E0E254FC4F958F809369
:10236000D70301C08081FF91EF919F918F912F91B1
:102370000F900FBE0F901F9018951F920F920FB6DF
:102380000F9211242F933F934F935F936F937F93FB
:102390008F939F93AF93BF93EF93FF938EEB93E055
:1023A0000E948110FF91EF91BF91AF919F918F910A
:1023B0007F916F915F914F913F912F910F900FBE41
:1023C0000F901F9018958EEB93E00E94461021E02D
:1023D000892B09F420E0822F08951092C1031092F6
:1023E000C00388EE93E0A0E0B0E08093C203909336
:1023F000C303A093C403B093C50387E591E0909312
:10240000BF038093BE0385EC90E09093CB03809351
:10241000CA0384EC90E09093CD038093CC0380ECCE
:1024200090E09093CF038093CE0381EC90E0909363
:10243000D1038093D00382EC90E09093D3038093F8
:10244000D20386EC90E09093D5038093D40310924E
:10245000D7031092D8031092D9031092DA0308958B
:10246000CF92DF92EF92FF920F931F93CF93DF9360
:102470006C017A01EB01E60EF71E00E010E0CE15CC
:10248000DF0561F06991D601ED91FC910190F08139
:10249000E02DC6010995080F191FF1CFC801DF9182
:1024A000CF911F910F91FF90EF90DF90CF90089503
:1024B0000895A1E21A2EAA1BBB1BFD010DC0AA1F85
:1024C000BB1FEE1FFF1FA217B307E407F50720F09D
:1024D000A21BB30BE40BF50B661F771F881F991F18
:1024E0001A9469F760957095809590959B01AC0161
:1024F000BD01CF010895EE0FFF1F0590F491E02D6F
:10250000099481E090E0F8940C94C812FB01DC017E
:1025100005900D920020E1F70895FC010590002040
:10252000E9F7809590958E0F9F1F0895DC01CB01F0
:10253000FC01F999FECF06C0F2BDE1BDF89A3196D3
:1025400000B40D9241505040B8F70895DC01A40F3B
:10255000B51F4150504048F0CB01840F951F2E917C
:102560000E94B71241505040D0F70895262FF99994
:10257000FECF92BD81BDF89A019700B4021639F0E2
:102580001FBA20BD0FB6F894FA9AF99A0FBE0895B3
:04259000F894FFCFED
:1025940000005F04800001000000004410000000FF
:1025A40000441000000000441000000000F7004444
:1025B4001000000000F700940700000000FC004930
:1025C4000300000000DC00FEFF0000E600FCFF004A
:1025D40000E90000000000600A330AD909E109F4A7
:1025E40009030A00000000C410301246105F1051A5
:0425F40010A2100021
:00000001FF
