:100000000C94B7000C94DF000C94DF000C94DF001C
:100010000C94DF000C94DF000C94DF000C94DF00E4
:100020000C94DF000C94DF000C94DF000C94DF00D4
:100030000C94DF000C94DF000C94DF000C94DF00C4
:100040000C94110E0C94DF000C947C110C94AE11E6
:100050000C94DF000C94DF000C94DF000C94DF00A4
:100060000C94B9090C94DF00230C370C4D0C690C6F
:100070008D0CBB0CDA0C110DB80B4B0DE20B050C03
:100080006C0D860D0D0C110C2B0C410C5D0C7B0CBA
:10009000AF0CCE0CF60D2A0D3F0D4B0DF90B600D7C
:1000A000910D687474703A2F2F6769746875622EA9
:1000B000636F6D2F776865656C65722D6D6963720E
:1000C0006F666C7569646963732F626173655F6ED7
:1000D0006F64655F7270632E67697400302E313112
:1000E0002E706F7374323200576865656C657220CC
:1000F0004C616200626173655F6E6F64655F727010
:100100006300302E31312E706F7374323200000074
:1001100000080002010000030407000000000000C6
:100120000000010204081020408001020408102091
:10013000010204081020040404040404040402025C
:100140000202020203030303030300000000230072
:100150002600290000000000250028002B000000D8
:100160000000240027002A004A02C908DE111124D9
:100170001FBECFEFD8E0DEBFCDBF11E0A0E0B1E001
:10018000E6E7F5E202C005900D92A436B107D9F773
:1001900024E0A4E6B1E001C01D92AF35B207E1F75B
:1001A00011E0CEE6D1E004C02297FE010E946E125B
:1001B000C836D107C9F70E9476070C94B9120C947F
:1001C000000040E850E060E070E0BC01655F7E4FF9
:1001D000CB01BA01089502970C94E10004970C94A6
:1001E000E100E0916C02F0916D020280F381E02D5C
:1001F000BC018CE692E00994FC01828193810C940D
:10020000FF0ACF93DF93EC010E94FC001C82DF9178
:10021000CF9108950F931F93CF93DF938C01EB0140
:10022000BC01CE010E947712C8010E947E12AC016F
:10023000BE01CB01BA01DF91CF911F910F910895BB
:1002400008950F931F93CF93DF93EC011A861986BD
:1002500000E010E02B813C8189859A850217130705
:1002600060F4EF81F885E00FF11F60810E94E60ADB
:100270009A8789870F5F1F4FEDCF0E94FE0A9A87EA
:100280008987DF91CF911F910F91089526E040E07B
:1002900052EC61E070E08EEB93E00E941A118CE06A
:1002A0008093B80061EF70E081EF92E00C94C40895
:1002B000DC01ED91FC910280F381E02D41E050E002
:1002C00009940F931F93CF93DF93EC018B01E88187
:1002D000F9816F5F7F4F0280F381E02D41E050E0B4
:1002E0000995E881F9810280F381E02D41E050E039
:1002F000B801CE01DF91CF911F910F910994FC01BC
:10030000E158FF4F0190F081E02D2189222359F01F
:1003100083589F4FDC01ED91FC910190F081E02D1D
:10032000099580E0089580890895FC01E158FF4F08
:100330000190F081E02D2189222331F083589F4FD5
:100340000E94010180E00895808908950F931F9312
:10035000CF93DF93EC018B01E881F9816F5F7F4FD1
:100360000280F381E02D41E050E00995E881F981B8
:100370000280F381E02D41E050E0B801CE01DF9131
:10038000CF911F910F910994EF92FF920F931F93BA
:10039000CF93DF93CDB7DEB762970FB6F894DEBF89
:1003A0000FBECDBF7C012A8B8FEF9FEF9B878A8783
:1003B0001A8309832B835F834E83798768875D83E4
:1003C0004C83CE0101960E9421018CE79CE7ACE7AB
:1003D000B0E08C879D87AE87BF87D7018D919C91B8
:1003E000DC01ED91FC910280F381E02D43E050E0CF
:1003F000BE01645F7F4F0995BE016F5F7F4FF701BC
:10040000808191810E94A601D7018D919C91DC0190
:10041000ED91FC910280F381E02D41E050E0BE01BE
:100420006E5E7F4F09958B81843611F0833729F5F5
:100430008C819D81998B888BBE01605F7F4FD70136
:100440008D919C910E94A6014C815D8141155105C1
:1004500061F0F70180819181DC01ED91FC9168856B
:1004600079850280F381E02D0995BE01665F7F4F9B
:10047000F701808191810E94A60162960FB6F894DF
:10048000DEBF0FBECDBFDF91CF911F910F91FF90C7
:10049000EF9008954F925F926F927F928F929F920A
:1004A000AF92BF92CF92DF92EF92FF920F931F9382
:1004B000CF93DF93C6E6D1E08BE091E09983888308
:1004C00088E6E82E81E0F82E81E191E0D7018D9356
:1004D0009C930AE611E087E191E0F8019183808323
:1004E000ECEBF1E0118210821092BE011092C0017B
:1004F0001092BF0144244A94542C5092C601409259
:10050000C50120E5622E712C7092C2016092C1017A
:100510008CE691E09093C4018093C30137ECA32E45
:1005200031E0B32ED5011C921092C8011092D40173
:100530001092D3011092D6011092D5011092DA01D7
:100540001092D9011092E8011092E701F093DC01BA
:10055000E093DB01C5010E94FF0A49EEC42E41E091
:10056000D42E5DE1852E51E0952EF6019182808298
:10057000B092EC01A092EB01C6010E94FC0085E262
:1005800091E0D6018D939C938EEB93E09093EE01D6
:100590008093ED01EFE3F2E01182108210924102AC
:1005A0001092430210924202509249024092480235
:1005B00070924502609244028FEE91E09093470260
:1005C000809346026AE4A62E62E0B62ED5011C9204
:1005D00010924B021092570210925602109259023A
:1005E0001092580210925D0210925C0210926B02FF
:1005F00010926A02F0935F02E0935E02C5010E94CE
:10060000FF0A7CE6C72E72E0D72EF6019182808227
:10061000B0926F02A0926E02C6010E94FC008DE2B1
:1006200091E0D6018D939C9310927002C6010E94B6
:10063000010185E391E0998388838BE391E0F701E1
:100640009183808381E491E0D8018D939C93D09332
:100650006501C0936401DF91CF911F910F91FF90CD
:10066000EF90DF90CF90BF90AF909F908F907F9052
:100670006F905F904F900895CF93DF93E091E901E1
:10068000F091EA01C281D3818EEB93E00E94371092
:10069000BC0189EE91E0FE01DF91CF910994BF92F8
:1006A000CF92DF92EF92FF920F931F93CF93DF933E
:1006B0001F92CDB7DEB78C017B0181EF92E00E94E3
:1006C000B907B82E81E0E81AF108F8018481811198
:1006D00001C0B482C12CD12CCE14DF04A4F481EF6C
:1006E00092E00E94B9078983F8018481B81207C09B
:1006F000BE016F5F7F4F828193810E941E0BFFEFCF
:10070000CF1ADF0AE9CF0F90DF91CF911F910F91A0
:10071000FF90EF90DF90CF90BF900895EF92FF92FF
:100720000F931F93CF93DF93CDB7DEB763970FB6C9
:10073000F894DEBF0FBECDBF8C012B8B1A821982BD
:100740008FEF9FEF9B878A872B835F834E83798709
:1007500068875D834C83CE0101960E9421018CE75E
:100760009CE7ACE7B0E08C879D87AE87BF87809120
:10077000BA0086958A8BF801608181EF92E00E9431
:10078000A408BE016E5E7F4F81EF92E00E94580187
:1007900043E050E0BE01645F7F4F81EF92E00E9432
:1007A0000B08BE016F5F7F4F81EF92E00E946101F5
:1007B000BE016D5E7F4F81EF92E00E9458018C81F7
:1007C0009D81998B888BBE01605F7F4F81EF92E0A6
:1007D0000E94610181EF92E00E94C108EC80FD80DF
:1007E000E114F10461F1F0E2EF16F10418F0EFE129
:1007F000EE2EF12CF801608181EF92E00E94A408B6
:10080000BE016E5E7F4F81EF92E00E9458016885C5
:100810007985A70181EF92E00E940B0881EF92E0B9
:100820000E94C108888599858E0D9F1D99878887AC
:100830008C819D818E199F099D838C83CFCFF80178
:10084000608181EF92E00E94A408BE016E5E7F4F3E
:1008500081EF92E00E945801BE01665F7F4F81EFF9
:1008600092E00E94610181EF92E00E94C1086396CC
:100870000FB6F894DEBF0FBECDBFDF91CF911F91B1
:100880000F91FF90EF9008958F929F92AF92BF9239
:10089000CF92DF92EF92FF920F931F93CF93DF934C
:1008A00000D000D0CDB7DEB7DC01FB0169012081AB
:1008B000203209F41FC208F055C0283009F409C1DC
:1008C00010F5233009F4D2C090F48D919C91213021
:1008D00009F4B2C008F0BFC0DC01ED91FC910190B9
:1008E000F081E02D0995BC0182E091E0AFC0253098
:1008F00009F4D6C008F4C7C0263009F4D9C027309F
:1009000009F4DFC054C22D3009F40AC180F42A3042
:1009100009F4FDC008F4E8C02B3009F4FDC02C3008
:1009200009F045C2628181810E94D60F45C22F30F5
:1009300009F400C108F4F8C0203109F407C12131DD
:1009400009F035C29B012F5F3F4F83819481820F55
:10095000931F9483838381819281A381B4818C01CD
:100960006D012CC2263609F46BC1D8F5213609F485
:100970001EC128F5213409F4FCC0A8F4203409F084
:1009800016C29B012F5F3F4F85819681820F931F77
:10099000968385836181728143815481F8940E949A
:1009A0009712789409C2223409F4FCC0203609F069
:1009B000FEC1618181EF92E00E948108FDC1233672
:1009C00009F4FFC008F4F7C0243609F42FC1253616
:1009D00009F0EDC181EF92E00E94B907F601808332
:1009E00037C1203809F486C178F4283609F462C189
:1009F00008F431C1293609F477C12A3609F0D7C184
:100A00008091BA008E7F73C1223809F4BFC108F407
:100A10007DC1203A09F4C1C1213A09F0C8C126E0DC
:100A200040E052EC61E070E08EEB93E00E941A111E
:100A30008CE08093B800C0C1DC01ED91FC91019085
:100A4000F081E02D0995BC0184EF90E00E940A013D
:100A50008B016C01B3C1DC01ED91FC910190F0813F
:100A6000E02D0995BC0188EE90E0F0CF8D919C912E
:100A7000DC01ED91FC910190F081E02D0995BC0124
:100A80008CED90E0E3CF8D919C91DC01ED91FC9198
:100A90000190F081E02D0995BC0182EA90E0D6CF6B
:100AA0000E94670EF60160837183828393832BC15A
:100AB0000E945B0ED6016D937D938D939C9313974B
:100AC00022C181819281009709F476C10E94B20E01
:100AD00073C1618172816115710509F46DC180E096
:100AE00090E00E948A0E68C120915B0430915C0402
:100AF0008DB79EB72115310519F48F55944002C06A
:100B0000821B930BAA2797FDA095BA2FF7C062818D
:100B100081810E949D0F50C181810E940C1096C05E
:100B200081810E94F80E49C0628170E081810E943B
:100B3000150F42C19B012F5F3F4F83819481820F2C
:100B4000931F948383838181928174C09B012F5F63
:100B50003F4F83819481820F931F9483838301810C
:100B60001281238134816901000F111F000F111FB1
:100B700025C103811481E180F2808D919C91DC017B
:100B80001296ED91FC9113970190F081E02D029661
:100B90000995DC01CB016D01A801B701CD010E94CF
:100BA00087120CC18FEF93E0A0E0B0E0A7C0809166
:100BB000BA0086954BC080E290E0F6019183808375
:100BC0003CC08D919C91DC011496ED91FC911597A0
:100BD0000190F081E02D049609957B016C01F8E00D
:100BE0009F2E00E010E00E151F0508F0E7C0692DEC
:100BF00081EF92E00E94A40881EF92E00E94C10878
:100C000081110FC05801BFEFAB1ABB0AF601E00F0C
:100C1000F11F908261E070E080E090E00E948A0E17
:100C200085019394E8E79E12DECFC8C081EF92E081
:100C30000E94B107D6018D939C9302E010E0BEC0E4
:100C40004281618181EF92E00E94A108D6018C93DC
:100C500001E010E0B3C0B280F1808D919C91DC0185
:100C60001496ED91FC9115970190F081E02D04967A
:100C70000995182F092FC82ED92E4B2D6F2D81EFD6
:100C800092E00E94A108A12EE12EF02E0E2D0A194D
:100C900081EF92E00E94B107892B31F081EF92E061
:100CA0000E94B9070B1510F010E088C0F70181937E
:100CB0007F01ECCFCB01019604811581080F191F2C
:100CC00015830483E280F380618181EF92E00E94CA
:100CD000A408A701B80181EF92E00E940B0881EF00
:100CE00092E00E94C10868C08091BA008160809340
:100CF000BA0062C089E490E0A0E0B0E0F601808331
:100D00009183A283B38304E010E058C09B012F5F5E
:100D10003F4F84819581820F931F95838483118136
:100D2000CD90DC9042815381648175817601FAEF28
:100D3000EF1AFEEFFF0AC70149835A836B837C8356
:100D40000E940101C601865F9E4FDC011C9324E6D0
:100D500049815A816B817C810E948E030E945B0EC7
:100D60004B015C01860107571F4F0E945B0E6819FB
:100D700079098A099B09683873418105910588F5CD
:100D8000C8010E94950181112CC0EFCF8D919C91DB
:100D90008A5F9E4F0E9401010FC08D919C91DC01E2
:100DA000ED91FC910190F081E02D099551CEC12C7F
:100DB000D12C0FEF1FEF02C000E010E0B801C60118
:100DC0000F900F900F900F90DF91CF911F910F9187
:100DD000FF90EF90DF90CF90BF90AF909F908F905B
:100DE0000895F601E752FF4FC780D0840381148134
:100DF0000834110510F007E410E0C7010E9401015A
:100E0000DDCF0F931F93CF93DF93FC01CB01C38101
:100E1000D4812281243611F4209759F420E030E067
:100E20004FEF5FEFBA01C901DF91CF911F910F9191
:100E30000895A781B0859D0105811681AE01BD0190
:100E40000E944404AB019C01EDCF0F931F938CE6ED
:100E500091E00E947F01882301F18CE691E00E94DD
:100E60007F018823D1F064E671E08CEB91E00E9471
:100E70000107AB01BC01CA016115710511F480E0E5
:100E800090E0AC0100E010E024E68DEE91E00E94DD
:100E9000C40189EE91E00E94FC008FEE91E00E9477
:100EA0009501882301F18FEE91E00E94950188233E
:100EB000D1F064E671E08FE392E00E940107AB019C
:100EC000BC01CA016115710511F480E090E0AC012C
:100ED00024E680E792E00E948E038CE692E01F9168
:100EE0000F910C9401011F910F9108950E94BD0E66
:100EF0000E9420010E944601C4E6D0E10E9425071D
:100F00002097E1F30E946410F9CFCF92DF92EF9225
:100F1000FF920F931F93CF93DF931F92CDB7DEB74E
:100F20007C016B0100E010E00C151D0584F48EEBD4
:100F300093E00E9450108983BE016F5F7F4FF701DD
:100F4000828193810E941E0B0F5F1F4FEDCF0F9088
:100F5000DF91CF911F910F91FF90EF90DF90CF9095
:100F600008958091250390E020912603821B91092A
:100F700008952091260380912503281750F4E22F2D
:100F8000F0E0E95DFC4F808190E02F5F2093260325
:100F900008958FEF9FEF0895E09126038091250338
:100FA000E81730F4F0E0E95DFC4F808190E00895AF
:100FB0008FEF9FEF08950895E091FD02F091FE02FA
:100FC0003097E1F030912603209125033217B0F0DD
:100FD00040E0242F30E02617370754F4DC01A20F3D
:100FE000B31F5C91D901A95DBC4F5C934F5FF1CFFA
:100FF0001092260360932503CB0109940895E09194
:10100000FF02F0910003309729F010920303109231
:10101000020309940895CF92DF92EF92FF920F930B
:101020001F93CF93DF937C01CB018A0120910103B1
:10103000222389F0EB016B01C40ED51ECC15DD0512
:1010400069F06991D701ED91FC910190F081E02D5B
:10105000C7010995F3CF642F0E948609C801DF916B
:10106000CF911F910F91FF90EF90DF90CF90089557
:10107000CF93DF931F92CDB7DEB769832091010331
:101080002223D1F020910203203240F021E030E011
:10109000FC013383228380E090E015C0809103033C
:1010A000E82FF0E0EC5FFC4F998190838F5F809395
:1010B00003038093020305C061E0CE0101960E9404
:1010C000860981E090E00F90DF91CF910895FC01B7
:1010D0001382128248EE53E060E070E0448355834F
:1010E0006683778387E491E09183808308951092EB
:1010F00026031092250310920303109202030C940E
:10110000CD08CF93DF93EC01862F0E94EB088FEF81
:1011100097E00E94A4098CED97E00E949F09CE0100
:10112000DF91CF910C947708862F413208F040E28E
:1011300067E273E00E94EF08109226038093250374
:10114000089521E00C94940881E08093010360935A
:101150002403109203031092020308950F93062FA5
:1011600021E04091020364E073E0809124030E9437
:1011700033091092030310920203109201030F919E
:10118000089561E00C94AE087093FE026093FD0236
:10119000089581EF92E00C9467081092B40381E007
:1011A0008093B2031092B10361E082E10E94D60FF6
:1011B00061E083E10E94D60FE9EBF0E080818E7F51
:1011C000808380818D7F808388E48093B80085E46C
:1011D0008093BC000895880F8093BA00089541322F
:1011E00008F03FC09091B4039111FCCF91E090932F
:1011F000B4032093B2032FEF2093470310928C0384
:10120000240F20938B039093B3039091B303880F23
:10121000892B8093B3038091B103813041F4109204
:10122000B1038091B3038093BB0085EC01C085EED0
:101230008093BC008091B4038130E1F380918C03F2
:10124000841710F440918C032DE833E0FB01D901A1
:101250008A2F821B841718F48D918193F9CF842FE4
:10126000089580E008950F93413208F046C09091B0
:10127000B4039111FCCF92E09093B4030093B203B6
:101280009FEF9093470310928C0340938B03FB01D5
:101290006DE873E0DB019A2F961B941718F4919177
:1012A0009D93F9CF1092B3039091B303880F892BCC
:1012B0008093B3038091B103813041F41092B10364
:1012C0008091B3038093BB0085EC01C085EE8093D1
:1012D000BC00222321F08091B4038230E1F380919D
:1012E00047038F3F61F080914703803251F0809136
:1012F0004703803341F483E007C081E005C080E00C
:1013000003C082E001C084E00F910895613298F437
:101310002091B403243089F460936903FC018BE6C7
:1013200093E0DC012A2F281B261718F421912D9316
:10133000F9CF80E0089581E0089582E008959093C8
:10134000AE038093AD0308959093B0038093AF03F1
:10135000089585ED8093BC008091BC0084FDFCCF96
:101360001092B403089585EC8093BC001092B403EE
:1013700008951F920F920FB60F9211242F933F934F
:101380004F935F936F937F938F939F93AF93BF938D
:10139000EF93FF938091B900887F803609F49CC059
:1013A00068F5883209F45BC090F4803109F454C0C8
:1013B00038F4882309F4F5C0883009F44DC0F5C02D
:1013C000883109F44CC0803209F45DC0EEC080342D
:1013D00009F468C048F4803309F455C0883309F033
:1013E000E4C080934703A8C0803509F44FC0883516
:1013F00009F45DC0883409F0D8C0D5C0883909F433
:10140000C6C0A8F4883709F467C038F4883609F4F0
:1014100063C0803709F460C0C8C0883809F4B7C019
:10142000803909F45FC0803809F0BFC05BC0803BE1
:1014300009F485C038F4803A09F466C0883A09F4A2
:101440007EC0B3C0803C09F4A6C0883C09F4A3C0A8
:10145000883B09F489C0A9C08091B30310C0909162
:101460008C0380918B03981770F5E0918C0381E0D9
:101470008E0F80938C03F0E0E357FC4F80818093C4
:10148000BB0085EC85C0809347038DC0E0918C0341
:1014900081E08E0F80938C038091BB00F0E0E357D6
:1014A000FC4F808390918C0380918B036DC0E09101
:1014B0008C0381E08E0F80938C038091BB00F0E061
:1014C000E357FC4F80838091B20381116CC081E0AF
:1014D0008093B10384EA60C083E08093B4031092E8
:1014E0004803CFCF80914803803208F050C0E0918C
:1014F000480381E08E0F809348038091BB00F0E0A9
:10150000E75BFC4F8083BDCF80914803803230F48D
:10151000E0914803F0E0E75BFC4F10820E94A909CC
:101520006091480370E0E091AD03F091AE0389E46F
:1015300093E00995109248030E94B30936C084E0F5
:101540008093B40310926A0310926903E091AF0391
:10155000F091B003099580916903811105C081E084
:101560008093690310926B03E0916A0381E08E0F10
:1015700080936A03F0E0E559FC4F80818093BB00C3
:1015800090916A0380916903981708F47ACF85E8EF
:101590008093BC000AC085EC8093BC001092B40319
:1015A00004C0109247030E94A909FF91EF91BF91D7
:1015B000AF919F918F917F916F915F914F913F91EB
:1015C0002F910F900FBE0F901F9018958627682FB0
:1015D00062956827062E669566956025062E6695A7
:1015E00060256770082E892F669507946795902D62
:1015F0008627069467959025862708950895FC010F
:10160000A489B58912961C92129714961C921E9268
:1016100013978FEF9FEF1A969C938E931997138AC7
:10162000128A108A118A1786168611A210A28CE0DF
:1016300090E093838283178E168E0895AF92BF92A7
:10164000CF92DF92EF92FF920F931F93CF93DF938E
:101650001F92CDB7DEB78C016115710581F4CE0103
:101660000196D80115969C938E93149717969C9388
:101670008E93169719969C938E93189707C0FC012A
:10168000758364836F5F7F4F77836683D801149679
:101690002D913C91159716968D919C91179728172F
:1016A000390709F057C071C2608180E090E00E9464
:1016B000E60AF801938B828B0488F589E02D078078
:1016C000F085E02DD8011E968D919C911F979C016D
:1016D0002F5F3F4F1F963C932E931E9714962D918C
:1016E0003C911597D9012C91E80FF91F2083F8013F
:1016F00026853785848595852817390709F011C215
:10170000068CF78DE02DCF010197D8015F969C9351
:101710008E935E973A96EE0FFF1FE00FF11F8081C8
:10172000918113969C938E931297D8011296ED9106
:10173000FC911397EF30F10508F454C2F80184814D
:10174000958101969583848326813781821793073B
:1017500009F41BC2D8011296ED91FC9113973197B1
:10176000EE30F10508F0EBC1EC5CFF4F0C946C120D
:10177000D8015496ED91FC915597F184E12CF286B5
:10178000E18614968D919C911597DC018C919701BF
:10179000280F311DC90132872187D80152962D911A
:1017A0003C9153978217930749F481E050968C93AC
:1017B00050971E968D919C911F9719C081E0F8015A
:1017C000818B17C0D8011C968D919C911D975496C2
:1017D000ED91FC915597258136812817390718F42A
:1017E00021E051962C9321E0D80150962C939483BC
:1017F0008383F80184819581019695838483268172
:1018000037818217930709F49AC1D8011496ED9194
:10181000FC91159780818C3721F0F8011382128298
:10182000F4C1D80114968D919C9115970196159647
:101830009C938E93149716962D913C91179782172F
:10184000930709F47FC1D8011496ED91FC91159787
:1018500080818C3711F7F8018481958101969583F9
:101860008483268137818217930709F46EC1D801DA
:101870001496ED91FC91159780818C3771F65096F6
:101880001C92F80184819581019695838483268139
:1018900037818217930709F460C1D8015496ED91FE
:1018A000FC9155971182108214968D919C911597F9
:1018B000DC018C9190E091838083F8018481958193
:1018C000019695838483268137818217930709F4D3
:1018D00047C1D8015496ED91FC91559714968D917E
:1018E0009C911597DC018C91B080A12C9501282B3F
:1018F000C90191838083D80114968D919C9115978D
:10190000019615969C938E93149716962D913C9163
:1019100017978217930709F426C1D8011496ED9101
:10192000FC91159780818436A1F068F4813609F026
:1019300074CFD8015496ED91FC915597828381E044
:1019400050968C9356CF8E3609F493C0833709F0A6
:1019500064CFD8015496ED91FC9155978283F8019C
:1019600084819581019695838483268137818217AE
:10197000930709F4FBC0D80191961C921E92909790
:101980001D961C921E921C971496ED91FC91159732
:10199000808190E01D969C938E931C97F801848122
:1019A00095810196958384832681378182179307D9
:1019B00009F4DFC0D8011C96DC901C97C12C1D9641
:1019C000DC92CE921C971496ED91FC911597808134
:1019D000F601E80FF11DCF011D96FC93EE931C97C5
:1019E0005496ED91FC91559725813681281739073A
:1019F00018F481E051968C93D8015E96ED91FC919C
:101A00005F97CF0101965F969C938E935E973B966E
:101A1000EE0FFF1FE00FF11F88E090E091838083BD
:101A20004FC0D80152968D919C9153970E94FE0A07
:101A3000F801938B828B0488F589E02D128611863C
:101A4000D80114968D919C911597DC018C9190E0B2
:101A500092878187F801848195810196958384839B
:101A6000268137818217930709F082CE89E090E0C2
:101A700089C0D8015496ED91FC9155978283F80165
:101A8000848195810196958384832681378182178D
:101A9000930709F471C0D80114968D919C91159704
:101AA000019615969C938E93149716962D913C91C2
:101AB00017978217930709F085CE8BE090E062C0FC
:101AC000F8018481958101969583848326813781ED
:101AD0008217930709F453C0D8011F961C921E92D7
:101AE0001E9753961C921E9252971C968D919C9114
:101AF0001D971496ED91FC911597892B09F0D4CD83
:101B000031971596FC93EE93149765C0D8011496FF
:101B1000ED91FC911597608152968D919C91539710
:101B2000C6CDF801848195810196958384832681B1
:101B300037818217930751F78EE090E023C08CE045
:101B400090E005C081E090E01DC082E090E0D80107
:101B500013969C938E93129718C083E090E012C066
:101B600084E090E0F4CF85E090E00CC086E090E067
:101B7000EECF87E090E006C08AE090E0E8CF8DE00D
:101B800090E0E5CFF80193838283D80114968D917C
:101B90009C91159718962D913C9119978217930750
:101BA000A1F512962D913C9113972D30310569F5D1
:101BB0001F961C921E921E9753961C921E9252972D
:101BC0001C962D913C911D97232BF9F401971596A6
:101BD0009C938E9314975E96ED91FC915F97CF0145
:101BE000019794CDEE5BFF4F0C946C12F801848149
:101BF0009581019695838483268137818217930787
:101C000009F00FCF88E090E0A2CF0F90DF91CF9145
:101C10001F910F91FF90EF90DF90CF90BF90AF900A
:101C200008951F920F920FB60F9211242F933F9396
:101C30008F939F93AF93BF938091B6039091B70317
:101C4000A091B803B091B9033091B50323E0230FFD
:101C50002D3720F40196A11DB11D05C026E8230FE4
:101C60000296A11DB11D2093B5038093B6039093F6
:101C7000B703A093B803B093B9038091BA039091CE
:101C8000BB03A091BC03B091BD030196A11DB11D82
:101C90008093BA039093BB03A093BC03B093BD039E
:101CA000BF91AF919F918F913F912F910F900FBE58
:101CB0000F901F9018952FB7F8946091B60370910C
:101CC000B7038091B8039091B9032FBF08953FB730
:101CD000F8948091BA039091BB03A091BC03B0919A
:101CE000BD0326B5A89B05C02F3F19F00196A11D85
:101CF000B11D3FBF6627782F892F9A2F620F711D64
:101D0000811D911D42E0660F771F881F991F4A951C
:101D1000D1F70895CF92DF92EF92FF92CF93DF93A6
:101D20006B017C010E94670EEB01C114D104E10438
:101D3000F10489F00E9449120E94670E6C1B7D0B12
:101D4000683E734090F381E0C81AD108E108F108B9
:101D5000C851DC4FEACFDF91CF91FF90EF90DF9039
:101D6000CF9008958230910538F0880F991F880F21
:101D7000991F05970197F1F70895789484B58260CB
:101D800084BD84B5816084BD85B5826085BD85B51F
:101D9000816085BDEEE6F0E0808181608083E1E8CE
:101DA000F0E0108280818260808380818160808306
:101DB000E0E8F0E0808181608083E1EBF0E0808109
:101DC00084608083E0EBF0E0808181608083EAE7DB
:101DD000F0E0808184608083808182608083808164
:101DE000816080838081806880831092C100089523
:101DF0008E3008F08E5087702091060190E4299F64
:101E000090011124822B80937C0080917A00806461
:101E100080937A0080917A0086FDFCCF80917800D3
:101E20002091790090E0922B08951F93CF93DF9338
:101E3000182FEB0161E00E949D0F209711F460E0E4
:101E400004C0CF3FD10539F461E0812FDF91CF91FC
:101E50001F910C94D60FE12FF0E0E25FFE4FE4916A
:101E6000E330F9F048F4E130B9F0E230A1F584B59F
:101E7000806284BDC8BD34C0E730E9F0E83019F1B4
:101E8000E43049F580918000806280938000D09397
:101E90008B00C0938A0024C084B5806884BDC7BD10
:101EA0001FC080918000806880938000D09389005B
:101EB000C093880015C08091B00080688093B00006
:101EC000C093B3000DC08091B00080628093B000D9
:101ED000C093B40005C0C038D1050CF0B5CFAFCF6A
:101EE000DF91CF911F910895833081F028F48130E4
:101EF00099F08230A1F008958730A9F08830B9F0C8
:101F00008430D1F4809180008F7D03C08091800067
:101F10008F7780938000089584B58F7702C084B551
:101F20008F7D84BD08958091B0008F7703C080912C
:101F3000B0008F7D8093B0000895CF93DF9390E041
:101F4000FC01EE5DFE4F2491FC01EA5CFE4F8491A2
:101F5000882349F190E0880F991FFC01E25AFE4F57
:101F6000A591B4918C5A9E4FFC01C591D4919FB715
:101F7000611108C0F8948C91209582238C938881FC
:101F800082230AC0623051F4F8948C91322F30953C
:101F900083238C938881822B888304C0F8948C914E
:101FA000822B8C939FBFDF91CF9108950F931F9346
:101FB000CF93DF931F92CDB7DEB7282F30E0F90122
:101FC000E25FFE4F8491F901EE5DFE4F1491F9013D
:101FD000EA5CFE4F04910023C9F0882321F0698355
:101FE0000E94740F6981E02FF0E0EE0FFF1FEC5AA2
:101FF000FE4FA591B4919FB7F8948C91611103C0E5
:102000001095812301C0812B8C939FBF0F90DF918E
:10201000CF911F910F910895CF93DF93282F30E038
:10202000F901E25FFE4F8491F901EE5DFE4FD4911C
:10203000F901EA5CFE4FC491CC2391F081110E941A
:10204000740FEC2FF0E0EE0FFF1FE65BFE4FA59143
:10205000B4912C912D2381E090E021F480E002C026
:1020600080E090E0DF91CF9108950E947212FC0110
:10207000818D228D90E0805C9F4F821B91098F7330
:1020800099270895FC01918D828D981731F0828DEA
:10209000E80FF11D858D90E008958FEF9FEF089573
:1020A000FC01918D828D981761F0828DDF01A80F60
:1020B000B11D5D968C91928D9F5F9F73928F90E082
:1020C00008958FEF9FEF089584ED91E1892B49F0FA
:1020D0008CE393E0892B29F00E94D41181110C9498
:1020E0003C030895FC01848DDF01A80FB11DA35AA4
:1020F000BF4F2C91848D90E001968F739927848F28
:10210000A689B7892C93A089B1898C9180648C931E
:10211000938D848D981306C00288F389E02D808109
:102120008F7D80830895CF93DF93EC01888D882382
:10213000C9F0EA89FB89808185FD05C0A889B98934
:102140008C9186FD0FC00FB607FCF5CF808185FF0F
:10215000F2CFA889B9898C9185FFEDCFCE010E947D
:102160007210E7CFDF91CF910895CF92DF92FF9267
:102170000F931F93CF93DF931F92CDB7DEB76C0100
:1021800081E0D60158968C9358975B969C915B970B
:102190005C968C915C97981307C05096ED91FC91DA
:1021A0005197808185FD2EC0F601038D10E00F5FF1
:1021B0001F4F0F731127F02EF601848DF81211C0F6
:1021C0000FB607FCF9CFD6015096ED91FC915197CF
:1021D000808185FFF1CFC60169830E9472106981F9
:1021E000EBCF838DE80FF11DE35AFF4F6083D601DB
:1021F0005B960C935B975296ED91FC91539780817F
:1022000080620CC0D6015696ED91FC915797608381
:102210005096ED91FC91519780818064808381E09C
:1022200090E00F90DF91CF911F910F91FF90DF9081
:10223000CF900895BF92CF92DF92EF92FF92CF930B
:10224000DF93EC016A017B01B22EE889F98982E013
:102250008083411581EE580761057105A1F060E0AA
:1022600079E08DE390E0A70196010E944A12215087
:1022700031094109510956954795379527952115FB
:1022800080E1380798F0E889F989108260E874E8FD
:102290008EE190E0A70196010E944A122150310977
:1022A000410951095695479537952795EC85FD8548
:1022B0003083EE85FF852083188EEC89FD89B082FE
:1022C000EA89FB89808180618083EA89FB8980813A
:1022D00088608083EA89FB89808180688083EA89BD
:1022E000FB8980818F7D8083DF91CF91FF90EF907C
:1022F000DF90CF90BF9008951F920F920FB60F926C
:1023000011242F938F939F93EF93FF93E091CE032C
:10231000F091CF038081E091D403F091D50382FD49
:1023200012C090818091D7038F5F8F732091D80363
:10233000821751F0E091D703F0E0E254FC4F958F03
:102340008093D70301C08081FF91EF919F918F917E
:102350002F910F900FBE0F901F9018951F920F9204
:102360000FB60F9211242F933F934F935F936F9368
:102370007F938F939F93AF93BF93EF93FF938EEBD6
:1023800093E00E947210FF91EF91BF91AF919F91E6
:102390008F917F916F915F914F913F912F910F900E
:1023A0000FBE0F901F9018958EEB93E00E94371090
:1023B00021E0892B09F420E0822F08951092C103B7
:1023C0001092C00388EE93E0A0E0B0E08093C203D7
:1023D0009093C303A093C403B093C50387E591E032
:1023E0009093BF038093BE0385EC90E09093CB0362
:1023F0008093CA0384EC90E09093CD038093CC0348
:1024000080EC90E09093CF038093CE0381EC90E03A
:102410009093D1038093D00382EC90E09093D30308
:102420008093D20386EC90E09093D5038093D403FD
:102430001092D7031092D8031092D9031092DA03A6
:102440000895CF92DF92EF92FF920F931F93CF9355
:10245000DF936C017A01EB01E60EF71E00E010E05D
:10246000CE15DF0561F06991D601ED91FC910190E7
:10247000F081E02DC6010995080F191FF1CFC801A1
:10248000DF91CF911F910F91FF90EF90DF90CF9050
:1024900008950895A1E21A2EAA1BBB1BFD010DC0D1
:1024A000AA1FBB1FEE1FFF1FA217B307E407F50704
:1024B00020F0A21BB30BE40BF50B661F771F881FE0
:1024C000991F1A9469F760957095809590959B0176
:1024D000AC01BD01CF010895EE0FFF1F0590F491EF
:1024E000E02D099481E090E0F8940C94B912FB017E
:1024F000DC0105900D920020E1F70895FC010590A4
:102500000020E9F7809590958E0F9F1F0895DC01BC
:10251000CB01FC01F999FECF06C0F2BDE1BDF89AEE
:10252000319600B40D9241505040B8F70895DC0147
:10253000A40FB51F4150504048F0CB01840F951FA8
:102540002E910E94A81241505040D0F70895262F96
:10255000F999FECF92BD81BDF89A019700B4021699
:1025600039F01FBA20BD0FB6F894FA9AF99A0FBE47
:062570000895F894FFCF6E
:1025760000005F048000010000000035100000002C
:1025860000351000000000351000000000FC00358A
:102596001000000000FC0085070000000001014F4C
:1025A6000300000000E100FEFF0000EB00FCFF005E
:1025B60000EE000000000038080B08B107B907CC90
:1025C60007DB0700000000B510211237105010423B
:0425D600109310004E
:00000001FF
